:020000040000fa
:080000000013040000000000e1
:020000040000fa
:1000080002100000061000000a1000000e10000088
:1000180012100000161000001a1000001e10000038
:1000280022100000261000002a1000002e100000e8
:1000380032100000361000003a1000003e10000098
:1000480042100000461000004a1000004e10000048
:1000580052100000561000005a1000005e100000f8
:1000680062100000661000006a1000006e100000a8
:1000780072100000761000007a1000007e10000058
:1000880082100000861000008a1000008e10000008
:1000980092100000961000009a1000009e100000b8
:1000a800a2100000a6100000aa100000ae10000068
:1000b800b2100000b6100000ba100000be10000018
:1000c800c2100000c6100000ca100000ce100000c8
:1000d800d2100000d6100000da100000de10000078
:1000e800e2100000e6100000ea100000ee10000028
:1000f800f2100000f6100000fa100000fe100000d8
:1001080002110000061100000a1100000e11000083
:1001180012110000161100001a1100001e11000033
:1001280022110000261100002a1100002e110000e3
:1001380032110000361100003a1100003e11000093
:1001480042110000461100004a1100004e11000043
:1001580052110000561100005a1100005e110000f3
:1001680062110000661100006a1100006e110000a3
:1001780072110000761100007a1100007e11000053
:1001880082110000861100008a1100008e11000003
:1001980092110000961100009a1100009e110000b3
:1001a800a2110000a6110000aa110000ae11000063
:1001b800b2110000b6110000ba110000be11000013
:1001c800c2110000c6110000ca110000ce110000c3
:1001d800d2110000d6110000da110000de11000073
:1001e800e2110000e6110000ea110000ee11000023
:1001f800f2110000f6110000fa110000fe110000d3
:1002080002120000061200000a1200000e1200007e
:1002180012120000161200001a1200001e1200002e
:1002280022120000261200002a1200002e120000de
:1002380032120000361200003a1200003e1200008e
:1002480042120000461200004a1200004e1200003e
:1002580052120000561200005a1200005e120000ee
:020000040000fa
:10200000020000001214040000000000121404007a
:10201000000000001214040000000000121404006c
:10202000000000001214040000000000121404005c
:10203000000000001214040000000000121404004c
:10204000000000001214040000000000121404003c
:1020500000000000121404000000000090140400ae
:10206000000000001214040000000000121404001c
:10207000000000001214040000000000121404000c
:1020800000000000121404000000000012140400fc
:102090000000000012140400000000006e14040090
:1020a00000000000421404000000000012140400ac
:1020b00000000000121404000000000012140400cc
:1020c00000000000121404000000000012140400bc
:1020d00000000000121404000000000012140400ac
:1020e000000000001214040000000000121404009c
:1020f000000000001214040000000000121404008c
:10210000000000001214040000000000121404007b
:10211000000000001214040000000000121404006b
:10212000000000001214040000000000121404005b
:10213000000000001214040000000000121404004b
:10214000000000001214040000000000121404003b
:10215000000000001214040000000000121404002b
:10216000000000001214040000000000121404001b
:10217000000000001214040000000000121404000b
:1021800000000000121404000000000012140400fb
:1021900000000000121404000000000012140400eb
:1021a00000000000121404000000000012140400db
:1021b00000000000121404000000000012140400cb
:1021c00000000000121404000000000012140400bb
:1021d00000000000121404000000000012140400ab
:1021e000000000001214040000000000121404009b
:1021f000000000001214040000000000121404008b
:10220000000000001214040000000000121404007a
:10221000000000001214040000000000121404006a
:10222000000000001214040000000000121404005a
:10223000000000001214040000000000121404004a
:10224000000000001214040000000000121404003a
:10225000000000001214040000000000121404002a
:10226000000000001214040000000000121404001a
:10227000000000001214040000000000121404000a
:1022800000000000121404000000000012140400fa
:1022900000000000121404000000000012140400ea
:1022a00000000000121404000000000012140400da
:1022b00000000000121404000000000012140400ca
:1022c00000000000121404000000000012140400ba
:1022d00000000000121404000000000012140400aa
:1022e000000000001214040000000000121404009a
:1022f000000000001214040000000000121404008a
:102300000000000012140400000000001214040079
:102310000000000012140400000000001214040069
:102320000000000012140400000000001214040059
:102330000000000012140400000000001214040049
:102340000000000012140400000000001214040039
:102350000000000012140400000000001214040029
:102360000000000012140400000000001214040019
:102370000000000012140400000000001214040009
:1023800000000000121404000000000012140400f9
:1023900000000000121404000000000012140400e9
:1023a00000000000121404000000000012140400d9
:1023b00000000000121404000000000012140400c9
:1023c00000000000121404000000000012140400b9
:1023d00000000000121404000000000012140400a9
:1023e0000000000012140400000000001214040099
:1023f0000000000012140400000000001214040089
:102400000000000012140400000000001214040078
:102410000000000012140400000000001214040068
:102420000000000012140400000000001214040058
:102430000000000012140400000000001214040048
:102440000000000012140400000000001214040038
:102450000000000012140400000000001214040028
:102460000000000012140400000000001214040018
:102470000000000012140400000000001214040008
:1024800000000000121404000000000012140400f8
:1024900000000000121404000000000012140400e8
:1024a00000000000121404000000000012140400d8
:1024b00000000000121404000000000012140400c8
:0424c0000000000018
:020000040000fa
:102600008fe521000eff27000e018800000000006a
:10261000000020000000e000020032000001200065
:102620002002880014000700d00007000000e0002e
:1026300003003a00606e2500010020000200370010
:102640000000200001002000810f70000100320016
:102650000f000700000020000000e0000200320030
:1026600000000200000000005245020000000000cf
:102670000040da000000fe00208120000000e000a1
:1026800002003200002020009001880000000600b7
:10269000a1028800800478000000eb001f003700d2
:1026a000e284440054a0b4009905ba00e2844400d6
:1026b00054a0b4009906ba00e284440054a0b400c7
:1026c0000006eb00476fde00fd07b200ae01880098
:1026d000636ce10003003a000ad801000000eb003f
:1026e0000e003700606ce10008003a00004deb007e
:1026f0000a05e800020039003420ec000af0a000ce
:102700008b05e900f9ff3e00040037006168e10035
:10271000010032000086eb000b00070019c7ba0069
:102720000e04e0001905ba0003003a000a00e000b8
:10273000dbff3a0000000600fe07b200ae02880090
:102740008a047800f5ff37000cd0a300e20f4d009b
:102750001c00390089027800354dba000a05e800ee
:10276000020039003420ec000af0a0008b05e900db
:102770000f003200254dba000a05e80002003900ba
:102780003420ec000af0a0008b05e90008003200bc
:102790000c00e0000600320015cdba000a05e80082
:1027a000020039003420ec000af0a0008b05e9009b
:1027b0008984e80054a0b4000b00e000e2ff3a0076
:1027c000000006009902ba00055d78008b05e9005b
:1027d000f7ff3200c82ade00055d78008b05e900ae
:1027e000f3ff32000c00e000f1ff320019ddba0007
:1027f000eeff370044290400000000000a30040006
:10280000000000008427040000000000002d0400e8
:1028100000000000b421040000000000fe330400aa
:10282000000000003600f800809fbe00829fbe00be
:10283000849fbe00869fbe003200f8003400f8007e
:1028400010002000a00188000020200090018800d6
:1028500000000000c808f8008010f900009429006a
:10286000ac1b07003400f9003200f9004f03be0032
:102870004f02be004f01be004f00be003600f900ff
:1028800000400600809fbe000000210090009000e4
:1028900020009000808f500002003a002188a9009b
:1028a0000c0037000430ec00000420000410e300aa
:1028b00001003a000430ef000188a9000000210067
:1028c0009000780020009000008040001080fb0005
:1028d000201188004f00be0000400600809fbe000f
:1028e000821f78000168a900311180000a30ec00d5
:1028f000000420000a10e30001003a000a30ef0053
:1029000080002100100178001000900000004100bc
:10291000014878004f0178004f00be0000400600db
:102920003600f800809fbe00829fbe00849fbe00dc
:10293000869fbe0090838000a183800061004000dc
:10294000e080480090838800a18388000068a90087
:102950008f1707004f03be004f02be004f01be009d
:102960004f00be003600f9000040060000000500e0
:102970006022b800060220000000d0008180d20052
:102980000482d2008582d2000000a0000202520020
:1029900083825a00030031000202420083824a000f
:1029a0000000a1000603e900f3ff3a000000060062
:1029b0000001fa00889fbe008a9fbe008c1f78002d
:1029c0000004be0002057800f0032000808f510053
:1029d0000a003e000000eb00050037009840780038
:1029e0001a5c7800195d7800815c78000000e800ce
:1029f000830f5000f9ff3a001e00370003067800ed
:102a00008c05780000102000800f56000100360071
:102a1000800578000b0178008800780060ef2f00b7
:102a20000f004000fd0107000b0178008a007800cc
:102a300008007800f90107000b0178008900780090
:102a40000a007800f50107000b01780061ef2f0004
:102a50008f80400009007800f00107000b06560047
:102a60000b0444008b8444000b0545000c00e0007f
:102a7000e3ff3a004f0678004f05be004f04be004a
:102a80000080fa00000006000001fa00889fbe00e6
:102a90008a9fbe000005be00f0032000800f510099
:102aa00009003e000000eb00040037009a40780067
:102ab0001b5d7800815d78000000e800820f500007
:102ac000faff3a0018003700820478000904780001
:102ad00000102000808f54000100360000047800b0
:102ae000080178008a00780080ef2f000f00400076
:102af000ca010700080178000a00be00c7010700ec
:102b00000801780081ef2f008f8040000b007800d3
:102b1000c2010700888454000805450088854500e7
:102b20000900e000e9ff3a004f05be004f04be0077
:102b30000080fa0000000600889fbe008a9fbe0049
:102b40008c1f780080047800010478000205be0024
:102b5000040678000800be000c0001000000e00040
:102b600004003d000b01780088007800090078001f
:102b7000c5ff0700880078000a0078000c000100fb
:102b80000000e00004003d000b0178008a0078009e
:102b900008007800bcff07000800be000c00010020
:102ba0000000e00004003d000b0178008800780080
:102bb00009007800b4ff07004f0678004f05be00fb
:102bc0004f04be0000000600889fbe008a9fbe0022
:102bd0008c9fbe008e1f78008002780081047800f0
:102be0008205780003047800040678000585550006
:102bf000820220008299b9008a0f51002200310020
:102c0000110009000385d800000578004355de0057
:102c10000a05e80083d5b9000a8742000a01450089
:102c2000028142008e00780005007800c2ff070094
:102c30008a06ea000a8144000d8044000c027800f4
:102c40008801780089007800bbff07008d86450069
:102c5000e0ff2f0080d5b9000a8045000c02780003
:102c6000880178000b0178008d007800b2ff070022
:102c70000c027800880178000d0178008900780046
:102c80000e007800030037000b01780089007800ff
:102c900005007800a8ff07004f0778004f06be0028
:102ca0004f05be004f04be0000000600e487470049
:102cb000889fbe008a9fbe008c9fbe008e1f78003a
:102cc0000004be000205be0084bf9f000906e800a4
:102cd0000c06460089d8b900000744008cd8b9001a
:102ce0008006440009007800150037008a0f56005e
:102cf000060032008b8056000d0078000fb9970057
:102d0000020001000000e00002003d000c06e900a6
:102d10008b8656000b0178008d0078000e0078003d
:102d200059ff07008c00e800818040008b89b900c2
:102d30000c0078000d077800820644000106780038
:102d40008a0f5600e9ff3600100037000006e90040
:102d50000c06d1008be5b9000a0544008a00780012
:102d60000e0078000fb99700020001000000e0009b
:102d7000080034000b0178008e0078000a0078000b
:102d800041ff07000c0078000a077800808f54008c
:102d9000eeff39004f0778004f06be004f05be001a
:102da0004f04be004f00b100000006000001fa0011
:102db000889fbe008a9fbe008c9fbe0000057800e1
:102dc00001067800820578008a0656008b86460048
:102dd0008b047800150037000904780000102000eb
:102de000808f540001003600000478008880550070
:102df000810046000801780040ef2f000f004000de
:102e00000601070008815600080045008a00780086
:102e1000090107000801780041ef2f008f80400072
:102e20000a007800fd000700888454000900e000d3
:102e3000e9ff3a004f06be004f05be004f04be003a
:102e40000080fa0000000600ea874700889fbe0065
:102e50008a9fbe008c9fbe008e1f78000005780000
:102e600081067800e2b79f000304780084057800ab
:102e70009b0037000d06d10088e6b9000c0645001e
:102e800088e8b90000004500d0b79f0088044600dc
:102e90000800ea00f0b79f00dfb097000081400013
:102ea0000b027800880178008c0078000a00780016
:102eb00045ff0700010037000d0678008c0f550014
:102ec000090031007fb19700820646008c0078002f
:102ed0000d0078000b0001000000e000f6ff32005a
:102ee00001003700888444005fb09700808f540051
:102ef000030039000c0778008906780011003700bc
:102f00008c007800090078000b0001000000e00050
:102f1000f4ff3200f7ff37000c00be000b00010089
:102f20000000e000060035001c003a0008017800af
:102f30008d00780009007800d3fe070088844400e3
:102f400088864600dfb09700818f5600130031005d
:102f5000f1ff37007fb19700820147008c007800b5
:102f60000300780083bf9f000b0001008fb997001a
:102f70000000e000080035000a003a007fb097002a
:102f80000006460008017800830078000c007800f5
:102f9000bdfe07008fb99700030778008e0f55001c
:102fa000ecff39008a0f570014003a00dfb0970099
:102fb000818f56002b0032008d8f540005003a009f
:102fc000080178008c00780009007800aefe070048
:102fd0000500370088017800090178008c0078002e
:102fe0000d00780072fe070088864600080646003d
:102ff000888444000a077800d2ff37007fb1970029
:10300000020747005fb09700808f560010003a001b
:1030100082844400020646008c0f570006003a00e6
:1030200008017800890078000e00780096fe0700fd
:103030000e067800c3ff3700880178000c01780085
:10304000890078000e00780059fe0700bdff3700a8
:10305000080178008e0078000d0078008afe0700d5
:10306000b7ff3700efb097000100d10001017800f1
:10307000c210de0080804000e1b79f000a065600c3
:10308000110009000886d8000006780089865600dd
:10309000110009008886d800800678008d0f560040
:1030a00008003e000b027800880178006fb197009d
:1030b0008c0078000a00780063ff0700090578009b
:1030c000070037000b027800880178006fb1970085
:1030d0008d007800090078005bff07008c067800ff
:1030e000efb097000100e000040032000002200071
:1030f000808f56005fff3e001e0037000002200058
:10310000808f56001b0036008d04d1008904e90031
:103110000b027800880178000d01780089007800a2
:103120000a007800e1fe07000900e000f7ff3a001e
:1031300088e8b900800445008884540008017800bc
:10314000890078000a0078004ffe07008d06e9002c
:103150000b027800880178000d0178008000eb00f8
:103160000a007800d1fe0700e18f5600f2ff3e0012
:103170001f003700e18f56001d0036008a047800da
:1031800019003700888444008a007800090078001c
:103190000b0001000000e00004003d000801780081
:1031a000890078000a0078000e00370009067800d0
:1031b000010037000e067800080756008e007800e0
:1031c000090078000b0001000000e000f9ff350065
:1031d000890f560004003200080178008900780049
:1031e0000c007800f1fe07008d06e900e5ff3a00cb
:1031f0004f0778004f06be004f05be004f04be00cb
:10320000af00b100000006000302780082017800e0
:1032100001017800820078000bff37008001780000
:1032200002003700b15978000201e9000200e00015
:10323000fcff3a000000060000027800808f50007a
:103240000c00310082814000830f500009003100e2
:103250008200400002003700c36078000201e900ec
:103260000200e000fcff3a0000000600315a78003e
:103270000201e9000200e000fcff3a000000060045
:020000040000fa
:10328000556e0000686100006e6400006c6500000f
:1032900064200000696e0000746500007272000016
:1032a00075700000742c00002000000064730000a2
:1032b0005049000043330000334500005035000002
:1032c0003132000047500000383000003600000066
:1032d000756e00006b6e00006f7700006e000000de
:1032e0004231000000440000657600006963000080
:1032f0006520000049440000203d0000200000003f
:1033000020280000002900002c2000007265000029
:1033100076690000736900006f6e000020000000f5
:10332000290a0000000a00000a2a00002a2a0000d8
:103330002a2a00002a2a00002a2a00002a2a00003d
:103340002a2a00002a2a00002a2a00002a2a00002d
:103350002a2a00002a2a00002a2a00002a2a00001d
:103360002a2a00002a2a00002a2a00002a2a00000d
:103370002a2a00002a2a00002a2a00002a2a0000fd
:103380002a2a00002a2a00002a2a00002a2a0000ed
:103390002a2a00002a0a00002a20000057410000c3
:1033a000524e0000494e0000472000002d20000032
:1033b000746800006973000020700000726f0000e4
:1033c00067720000616d00002077000061730000eb
:1033d000206300006f6d0000706900006c650000e4
:1033e00064200000666f0000722000007468000016
:1033f00065200000777200006f6e000067200000fb
:10340000202a00000a2a00002063000068690000ea
:10341000702e000020540000686900007320000036
:10342000707200006f670000726100006d20000084
:103430006d61000079200000707200006f64000070
:103440007563000065200000756e0000657800005f
:103450007065000063740000656400002062000075
:1034600065680000766900006f720000212000008e
:103470002a0a00002a200000456400006974000048
:10348000207400006865000020680000656100008d
:103490006465000072200000666900006c65000031
:1034a00073200000746f000020700000726f000035
:1034b00070650000726c00007920000064650000f7
:1034c000666900006e6500002074000068690000f5
:1034d000732000006368000069700000202a00006b
:1034e0000a2a0000206100006e64000020740000c1
:1034f0006f200000696e00007375000072650000a7
:10350000206300006f7200007265000063740000a9
:10351000206f000070650000726100007469000097
:103520006f6e00002e2000002020000020200000f0
:10353000202000002020000020200000202000008b
:103540002020000020200000202000002a0a000087
:103550002a20000020200000202000002020000061
:10356000202000002020000020200000202000005b
:10357000202000002020000020200000202000004b
:10358000202000002020000020200000202000003b
:10359000202000002020000020200000202000002b
:1035a000202000002020000020200000202000001b
:1035b0002020000020200000202a00000a2a00000d
:1035c000204e00004f540000453a00002049000002
:1035d0006620000074680000697300002077000016
:1035e00061730000206300006f6d000070690000cf
:1035f0006c65000064200000666f0000722000000f
:103600007468000065200000636f000072720000a3
:1036100065630000742000006368000069700000aa
:103620002c200000202000002a0a00002a20000090
:10363000616e0000642000006f6e00006c79000075
:10364000206f0000636300007572000073200000ab
:1036500061740000207000006f7700006572000048
:103660002d6f00006e200000286e00006f740000b7
:103670002064000075720000696e00006720000081
:10368000612000004d4300004c520000202000004b
:1036900020200000202a00000a2a000020720000da
:1036a0006573000065740000292c0000207600007e
:1036b00065720000696600007920000074680000ef
:1036c00061740000204100005644000044200000c6
:1036d000616e00006420000041560000535300005a
:1036e0002061000072650000206300006f6e000022
:1036f0006e65000063740000656400002e20000009
:10370000202000002a0a00002a2000004f6e00003e
:10371000207400006865000020500000494300004c
:1037200032340000483300003247000050320000bd
:10373000303200002c2000006e6f0000742000006a
:10374000636f00006e6e0000656300007469000026
:103750006e67000020410000564400004420000035
:103760002020000020200000202000002020000059
:10377000202a00000a2a000020700000726f00005a
:103780006475000063650000732000007468000029
:1037900069730000206d0000657300007361000014
:1037a00067650000206f00006e6c0000792000004b
:1037b00061740000207000006f77000065720000e7
:1037c0002d750000702e0000202000002020000039
:1037d00020200000202000002020000020200000e9
:1037e0002a0a00002a2a00002a2a00002a2a0000a9
:1037f0002a2a00002a2a00002a2a00002a2a000079
:103800002a2a00002a2a00002a2a00002a2a000068
:103810002a2a00002a2a00002a2a00002a2a000058
:103820002a2a00002a2a00002a2a00002a2a000048
:103830002a2a00002a2a00002a2a00002a2a000038
:103840002a2a00002a2a00002a2a00002a2a000028
:103850000a0000004661000073740000205200005e
:10386000432000004f730000630a00000046000080
:10387000617300007420000052430000204f0000dc
:103880007363000020770000697400006820000066
:10389000504c00004c0a000000500000726900000b
:1038a0006d61000072790000204f0000736300001a
:1038b00020280000585400002c200000485300002d
:1038c0002c20000045430000290a000000500000a1
:1038d000726900006d61000072790000204f0000e5
:1038e0007363000020280000585400002c200000c2
:1038f000485300002c200000454300002920000010
:103900007769000074680000205000004c4c0000f3
:103910000a00000053650000636f00006e64000041
:1039200061720000792000004f730000630a0000fc
:10393000004c00006f770000205000006f770000ff
:103940006572000020520000432000004f73000009
:10395000630a00000046000061730000742000004c
:1039600052430000204f0000736300002f3100001d
:10397000360a000000460000617300007420000059
:1039800052430000204f0000736300002f4e0000e0
:103990000a000000556e00006b6e00006f7700009b
:1039a0006e2000006f730000636900006c6c000003
:1039b000617400006f7200002074000079700000d4
:1039c000652e0000000a00004465000076690000d2
:1039d0006365000020680000617300002062000041
:1039e000656500006e200000696e00002073000015
:1039f0006c65000065700000206d00006f640000c1
:103a0000650a0000000a00004465000076690000b5
:103a10006365000020680000617300002062000000
:103a2000656500006e200000696e000020690000de
:103a3000646c0000652000006d6f0000646500008c
:103a40000a0000000a52000065730000657400005f
:103a50002063000061750000736500003a200000db
:103a6000005000006f770000657200002d6f0000ad
:103a70006e2e00000a000000536f00006674000004
:103a8000776100007265000020520000657300003d
:103a9000657400002e0a00000057000061740000e9
:103aa00063680000646f0000672000005469000034
:103ab0006d6500006f750000743a00002000000082
:103ac0000a0000004d4300004c520000206100003d
:103ad0007373000065720000746900006f6e00006f
:103ae0002e0a000000420000726f0000776e000096
:103af0002d6f0000757400002e0a000000540000b5
:103b00007261000070200000436f00006e660000cc
:103b10006c690000637400002e0a00000049000078
:103b20006c6c000065670000616c000020430000c1
:103b30006f6e000064690000746900006f6e000021
:103b40002e0a0000004300006f6e0000666900004e
:103b50006775000072610000746900006f6e0000fc
:103b6000204d0000697300006d6100007463000067
:103b7000682e00000a000000556e00006b6e000009
:103b80006f7700006e200000726500007365000012
:103b9000742e00000a00000045720000726f0000e1
:103ba00072200000747200006170000070650000f7
:103bb000643a00002000000050720000696f0000ad
:103bc00072690000747900003a200000002c0000a7
:103bd0002056000065630000746f00007220000032
:103be0006e7500006d620000657200003a200000f2
:103bf000000a00000a0000000a430000686f00008d
:103c000069630000657300002061000072650000b8
:103c100020000000206100006e6400002000000011
:103c20000a0000000a4500006e7400006572000082
:103c300020500000726f0000636500007373000085
:103c4000696e0000672000004d6f00006465000091
:103c50002e0a0000312e0000206f00006e6500006b
:103c60002d730000686f0000740a0000322e0000ff
:103c70002061000076650000726100006765000049
:103c80000a3300002e2000006d6900006e750000f0
:103c90006d7500006d0a0000342e0000206d0000dc
:103ca00061780000696d0000756d00000a35000044
:103cb0002e2000006d65000064690000616e000048
:103cc0000a0000000a4200004545000050200000a4
:103cd000424f0000502000004252000052520000ab
:103ce00052520000525200002e200000496e000087
:103cf000766100006c6900006420000076610000bd
:103d00006c750000652100000a0000000a4e0000ea
:103d1000756d000062650000722000006f66000093
:103d200020530000616d0000706c0000657300009e
:103d30003f0a0000312e000020740000776f000061
:103d40000a3200002e200000666f0000757200002d
:103d50000a3300002e20000065690000676800003b
:103d6000740a0000342e00002073000069780000ff
:103d700074650000656e00000a3500002e2000000a
:103d80007468000069720000747900002d740000ee
:103d9000776f00000a3600002e20000073690000d3
:103da00078740000792d0000666f000075720000c5
:103db0000a000000206400006567000072650000d2
:103dc0006573000020430000000a000054680000f2
:103dd000657200006d6f00006d6500007465000085
:103de000722000005265000061640000696e0000ee
:103df000673a0000200000000a62000075690000b8
:103e00006c6400005c650000736f0000735f00006d
:103e1000656d000062650000646400006564000078
:103e200046310000345f000033330000455000008d
:103e300035310000324700005038000030360000b5
:103e40005c6c000061620000345c000074340000af
:103e50005f730000656e0000736f00007233000036
:103e60002e6300002c20000062750000696c0000c9
:103e7000742000006f6e0000205300006570000089
:103e800020320000382000003230000032300000c4
:103e90002061000074200000313700003a3100003a
:103ea000343a0000333000000a00000055410000a1
:103eb000525400003120000070610000726900005f
:103ec0007479000020650000727200006f720000bb
:103ed0000a0000005541000052540000312000004b
:103ee00066720000616d0000696e000067200000ce
:103ef00065720000726f0000720a00000055000039
:103f00004152000054310000206f0000766500002f
:103f100072720000756e0000206500007272000071
:103f20006f7200000a00000055410000525400006a
:103f30003220000070610000726900007479000096
:103f400020650000727200006f7200000a0000001d
:103f500055410000525400003220000066720000fb
:103f6000616d0000696e000067200000657200004e
:103f7000726f0000720a00000055000041520000fc
:103f800054320000206f000076650000727200005d
:103f9000756e000020650000727200006f720000f4
:103fa0000a00000055410000525400003320000078
:103fb00070610000726900007479000020650000e3
:103fc000727200006f7200000a000000554100008c
:103fd000525400003320000066720000616d000042
:103fe000696e00006720000065720000726f0000bb
:103ff000720a0000005500004152000054330000d6
:10400000206f00007665000072720000756e00007f
:1040100020650000727200006f7200000a0000004c
:10402000554100005254000034200000706100002f
:10403000726900007479000020650000727200004f
:104040006f7200000a000000554100005254000049
:104050003420000066720000616d0000696e00008f
:104060006720000065720000726f0000720a000095
:10407000005500004152000054340000206f000041
:104080007665000072720000756e00002065000009
:10409000727200006f7200000a00000030780000a9
:1040a00000450000727200006f720000206900007d
:1040b0006e20000062750000696c0000645c000006
:1040c000657300006f7300005f6500006d620000a3
:1040d000656400006465000064460000313400003f
:1040e0005f330000334500005035000031320000de
:1040f0004750000038300000365c00006c6900005a
:10410000625c000073720000635c00007069000074
:1041100063320000345f00007365000072690000c4
:10412000616c00002e630000206c0000696e0000ce
:104130006520000032390000363a000020490000b6
:104140006e760000616c000069640000205500007c
:10415000415200005400000045720000726f0000e0
:1041600072200000696e0000206200007569000086
:104170006c6400005c650000736f0000735f0000fa
:10418000656d000062650000646400006564000005
:1041900046310000345f000033330000455000001a
:1041a0003531000032470000503800003036000042
:1041b0005c6c0000696200005c73000072630000c8
:1041c0005c70000069630000323400005f7300001f
:1041d00065720000696100006c2e00006320000021
:1041e0006c6900006e65000020330000333500006c
:1041f0003a200000496e0000766100006c69000002
:1042000064200000554100005254000000050000e9
:10421000030200000100000050c3000030750000e0
:10422000204e00001027000088130000b80b00008b
:10423000d0070000e8030000f40100002c0100009a
:10424000c800000064000000320000001e000000f2
:10425000140000000a000000050000000300000038
:104260000200000001000000050300000201000040
:104270000503000002010000321e0000140a0000c5
:104280000503000002010000636f00006e7600006d
:1042900065720000744100004443000031280000b2
:0442a00029000000f1
:020000040000fa
:1042a4002e1b070000000600d0de88000000060078
:1042b40040bb2100104078000004a2000080fb00f5
:1042c4000000e9004f00de000000060040bb2100b2
:1042d4001080fb000000e9004f00de000000060033
:1042e40050bb2100104078000004a2000080fb00b5
:1042f4000000e9004f00de000000060060bb210062
:10430400104078000004a2000080fb000000e900d7
:104314004f00de000000060060bb21001080fb009f
:104324000000e9004f00de000000060070bb210021
:10433400104078000004a2000080fb000000e900a7
:104344004f00de000000060080bb21001040780012
:104354000004a2000080fb000000e9004f00de0022
:1043640000000600c800fa00889fbe000004780020
:10437400284090000074a0002044980018007800a1
:10438400a10e2000810f50004d01320024003e0098
:10439400ef805000810f5000a30032000e003e0059
:1043a400e9805000810f50004400320003003e00b9
:1043b4000000e0003f003200bf023700710d200012
:1043c400810f5000640032008100e800810f50002a
:1043d400b9023a0079003700010e2000810f500025
:1043e400e200320007003e00e4805000810f5000dc
:1043f400a6003200e3804000810f5000ae023a0074
:10440400c1003700610e2000810f5000f600320019
:104414008100e800810f5000a7023a000b01370029
:1044240001122000810f5000060232000f003e00ee
:10443400310f2000810f50006601320004003e005d
:10444400e5805000810f50009b023a003e01370086
:10445400b1112000810f5000c60132008100e80034
:10446400810f500094023a00db0137003112200022
:10447400810f50004302320007003e008180e900b2
:10448400810f5000080232008100e800810f5000c3
:1044940089023a002002370071122000810f500077
:1044a400560232008180e800810f500082023a00f7
:1044b4006e023700200d2000000c7800a844900004
:1044c4000928a3000400320040c0b300204498002f
:1044d40030c0b3007c0237009bff07000004e000fb
:1044e400030032000904a1002944980002003700a7
:1044f4000904a00029449800a84090000040eb0063
:104504000108a30070023a0020e1290081f52f0080
:10451400818047004f000900b05878000005b100c1
:1045240020e6290041f32f00818047002300090081
:10453400b05878004002b10060e8290081fa2f00e9
:104544008180470053000900b05878004005b1004d
:10455400700d2000000c7800284090000028a30073
:104564000400320040c0b3002044980030c0b300bf
:1045740055023700818180000128a30003003a001e
:104584000004a10020449800020037000004a000a9
:1045940020449800284190000040eb000208a3004a
:1045a40049023a000120a0008181880000d0210046
:1045b4000008eb00800d2000000c780028409000db
:1045c4000028a3000400320040c0b3002044980037
:1045d40030c0b3003c02370081f52f008f804000cb
:1045e40000d02100710e0700e24f50000400360095
:1045f400284090000004a1002044980003003700e4
:10460400284090000004a00020449800a840900096
:104614000040eb000108a3002b023a003050a9002f
:10462400b00d2000000c7800284090000028a30062
:104634000400320040c0b3002044980030c0b300ee
:1046440021023700818180000138a30003003a0071
:104654000004a10020449800020037000004a000d8
:1046640020449800284190000040eb000208a30079
:1046740015023a000130a0008181880020d1210078
:104684000008eb00c00d2000000c780028409000ca
:104694000028a3000400320040c0b3002044980066
:1046a40030c0b3000802370012c0b3005105210026
:1046b40020d12100b10d0700e24f50000400360064
:1046c400284090000004a100204498000300370013
:1046d400284090000004a00020449800a8409000c6
:1046e4000040eb000108a300f7013a003070a90074
:1046f40051052100914078003005210001487800df
:10470400f00d2000000c7800284090000028a30041
:104714000400320040c0b3002044980030c0b3000d
:10472400e9013700818180000128a30003003a00d9
:104734000004a10020449800020037000004a000f7
:1047440020449800284190000040eb000208a30098
:10475400dd013a000120a0008181880000d0210001
:104764000008eb00000e2000000c780028409000a8
:104774000028a3000400320040c0b3002044980085
:1047840030c0b300d00137003105210091407800da
:1047940000d02100bf0b0700e24f50000400360098
:1047a400284090000004a100204498000300370032
:1047b400284090000004a00020449800a8409000e5
:1047c4000040eb000108a300bf013a003050a900eb
:1047d400f0ccb3005350b400e44f500035ff3e001a
:1047e400600e2000000c7800284090000028a300f0
:1047f4000400320040c0b3002044980030c0b3002d
:10480400b1013700818180000128a30003003a0030
:104814000004a10020449800020037000004a00016
:1048240020449800284190000040eb000208a300b7
:10483400a5013a000120a0008181880000d0210058
:104844000008eb00700e2000000c78002840900057
:104854000028a3000400320040c0b30020449800a4
:1048640030c0b3009801370081fa2f008f804000d8
:1048740000d02100cd0d0700e24f500004003600a7
:10488400284090000004a100204498000300370051
:10489400284090000004a00020449800a840900004
:1048a4000040eb000108a30087013a003050a90042
:1048b40020d121000008eb00a00e2000000c78009d
:1048c400284090000028a3000400320040c0b30038
:1048d4002044980030c0b3007b01370012c0b300fd
:1048e4004105210020d12100240d0700e24f500092
:1048f40004003600284090000004a10020449800e1
:1049040003003700284090000004a00020449800d1
:10491400a84090000040eb000108a3006a013a009f
:1049240041052100914078002005210001487800cc
:1049340030ff2f003030b60000d021000008eb001b
:10494400e00e2000000c7800284090000028a3000e
:104954000400320040c0b3002044980030c0b300cb
:1049640059013700210521009140780000d0210031
:10497400480b0700e24f5000040036002840900026
:104984000004a10020449800030037002840900050
:104994000004a00020449800a84090000040eb00d0
:1049a4000108a30048013a00f0ccb3005250b4000f
:1049b40019c0b300e54f5000010036008044eb00fd
:1049c4003050a90000d021000008eb00300f200077
:1049d400000c7800284090000028a3000400320056
:1049e40040c0b3002044980030c0b3003601370003
:1049f400c1df290000d021006c0d0700e24f5000f8
:104a040004003600284090000004a10020449800cf
:104a140003003700284090000004a00020449800c0
:104a2400a84090000040eb000108a30026013a00d2
:104a34003050a9000904e000eb00320052d0bf005e
:104a440011c3b300814f500006003a0020c0b300e8
:104a54004ef0b7001f0137004e50e2001d013a002e
:104a64002200370021c3b300814f500003003a00f5
:104a740040c0b3004ef0b7001601370031c3b30095
:104a8400814f500003003a0080c0b3004ef0b700dd
:104a94001001370041c3b300814f500003003a00b6
:104aa40000c1b3004ef0b7000a01370051c3b30090
:104ab400814f500003003a0000c2b3004ef0b7002b
:104ac4000401370061c3b300814f5000e2ff3a0094
:104ad40000c4b3004ef0b700fe003700832878000e
:104ae4000000e800820f5000fcff390053d0bf00e3
:104af40011c3b300814f500004003a0010c0b3004a
:104b04004ff0b7004ef0b7004c00370021c3b3009c
:104b1400814f500003003a0020c0b3004ff0b700ab
:104b24004600370031c3b300814f500003003a0000
:104b340030c0b3004ff0b7004000370041c3b300aa
:104b4400814f500003003a0040c0b3004ff0b7005b
:104b54003a00370051c3b300814f500003003a00bc
:104b640050c0b3004ff0b70034003700b01120003c
:104b7400000c7800284090000028a30004003200b4
:104b840040c0b3002044980030c0b300ce003700ca
:104b9400818180000128a30003003a000004a100e1
:104ba40020449800020037000004a000204498002c
:104bb400284190000040eb000208a300c2003a0024
:104bc4000120a0008181880000d021000008eb00b2
:104bd400c0112000000c7800284090000028a30099
:104be4000400320040c0b3002044980030c0b30039
:104bf400b500370041f32f008f80400000d0210022
:104c0400ea0c0700e24f50000400360028409000f0
:104c14000004a100204498000300370028409000bd
:104c24000004a00020449800a84090000040eb003d
:104c34000108a300a4003a003050a900001220008b
:104c4400000c7800284090000028a30004003200e3
:104c540040c0b3002044980030c0b3009a0037002d
:104c6400818180000128a30003003a000004a10010
:104c740020449800020037000004a000204498005b
:104c8400284190000040eb000208a3008e003a0087
:104c94000120a0008181880000d021000008eb00e1
:104ca40010122000000c7800284090000028a30077
:104cb4000400320040c0b3002044980030c0b30068
:104cc40081003700310521009140780000d0210097
:104cd400700a0700e24f500004003600284090009c
:104ce4000004a100204498000300370028409000ed
:104cf4000004a00020449800a84090000040eb006d
:104d04000108a30070003a0000d021000008eb0065
:104d140020122000000c7800284090000028a300f6
:104d24000400320040c0b3002044980030c0b300f7
:104d340065003700a1e0290000d021009b0c07008a
:104d4400e24f500004003600284090000004a10007
:104d54002044980003003700284090000004a0007d
:104d640020449800a84090000040eb000108a300f4
:104d740055003a0000d021000008eb00301220005a
:104d8400000c7800284090000028a30004003200a2
:104d940040c0b3002044980030c0b3004a0037003c
:104da400210521009140780000d02100390a070034
:104db400e24f500004003600284090000004a10097
:104dc4002044980003003700284090000004a0000d
:104dd40020449800a84090000040eb000108a30084
:104de40039003a003050a9003050a90000d0210009
:104df4000008eb0070122000000c7800284090009e
:104e04000028a3000400320040c0b30020449800ee
:104e140030c0b3002c00370001e1290000d021008c
:104e2400620c0700e24f5000040036002840900056
:104e34000004a1002044980003003700284090009b
:104e44000004a00020449800a84090000040eb001b
:104e54000108a3001c003a003050a9000174a1000d
:104e64002144980090122000000c78002840900003
:104e74000028a3000400320040c0b300204498007e
:104e840030c0b300100037000004e00003003d0010
:104e94000004a10020449800020037000004a00090
:104ea40020449800a84090000040eb000108a300b3
:104eb40080fd32000400370080c0b3002044980015
:104ec400000ceb0030c0b3004f04be000080fa00b9
:104ed4000000060083828000e20421001241780071
:104ee4000281fb00e1bf21000000eb00fbfe370064
:104ef40080bb21001080fb000000e9004f00de00b1
:104f040000000600889fbe0000047800284090003e
:104f14000074a0002044980018007800f1062000d6
:104f2400810f50002500320006003e000000e00022
:104f34000b0032008100e900810f50006c003a0040
:104f44000900370011072000810f500032003200a1
:104f54008180e800810f500065003a004a00370064
:104f6400e0062000000c7800a84490000928a30063
:104f74000400320040c0b3002044980030c0b300a5
:104f84005f003700ddfc07000004e000030032008e
:104f94000904a10029449800020037000904a00074
:104fa40029449800a84090000040eb000108a300a9
:104fb40053003a00f0062000000c7800a84490004a
:104fc4000928a3000400320040c0b3002044980024
:104fd40030c0b3004a003700cffc07000004e000f3
:104fe400030032000904a10029449800020037009c
:104ff4000904a00029449800a84090000040eb0058
:105004000108a3003e003a0010c0b3005af0b700f4
:1050140010072000000c7800a84490000928a30081
:105024000400320040c0b3002044980030c0b300f4
:10503400330037009efc07000004e00006003a003d
:10504400aefc07000004e00003003a00befc0700c9
:105054000004e000030032000904a1002944980080
:10506400020037000904a00029449800a8409000d9
:105074000040eb000108a30021003a005a70ef0041
:1050840030072000000c7800a84490000928a300f1
:105094000400320040c0b3002044980030c0b30084
:1050a4001700370089fc07000004e0000900320003
:1050b40099fc07000004e000060032008cff0700a2
:1050c4000004e000030032000904a1002944980010
:1050d400020037000904a00029449800a840900069
:1050e4000040eb000108a3009dff320004003700dc
:1050f40080c0b30020449800000ceb0030c0b30023
:105104004f04be000000060090bb21001040780050
:105114000004a2000080fb000000e9004f00de0054
:105124000000060000de88000000060010de880093
:105134000000060020de88000000060080bc21007c
:10514400104078000004a2000080fb000000e90089
:105154004f00de000000060080bc21001080fb0030
:105164000000e9004f00de000000060011c0b3009b
:1051740080bc2100014878000080e8000008eb00b2
:105184000000060080bc21000048eb000080e8001d
:105194000008eb000000060080bc21001004a200ff
:1051a4000000060050de880000000600e0bc21007c
:1051b400104078000004a2000080fb000000e90019
:1051c4004f00de0000000600e0bc21001080fb0060
:1051d4000000e9004f00de000000060011c0b3002b
:1051e400e0bc2100014878000080e8000008eb00e2
:1051f40000000600e0bc21000048eb000080e8004d
:105204000008eb0000000600e0bc21001004a2002e
:105214000000060080de88000000060040bd21007a
:10522400104078000004a2000080fb000000e900a8
:105234004f00de000000060040bd21001080fb008e
:105244000000e9004f00de000000060011c0b300ba
:1052540040bd2100014878000080e8000008eb0010
:105264000000060040bd21000048eb000080e8007b
:105274000008eb000000060040bd21001004a2005d
:1052840000000600889fbe008a9fbe0000047800cc
:10529400284090000074a000204498001800780072
:1052a4000000e00004003200e11b2000810f5000e8
:1052b4004c013a00310137000040eb0051bb2100a2
:1052c400804878008180e800804878008180e80088
:1052d400804878009b708000cd5dde00e1c56500ec
:1052e4006580500090c56d008b85fb008b05e9003f
:1052f400cf5dde0001002200927080008280600099
:105304008100e900cf08de00014878009a7080002f
:105314004c55de00614565000080e80010456d00d5
:105324000a85fb000a05e9004f55de000100210053
:1053340093708000838060008100e900cf08de0064
:105344000148780019718000cf4cde000080e8002d
:1053540090c46c008984fb008904e900cf4cde0012
:10536400117180008180ea00cf08de0001487800d6
:1053740050de80000000e00009003200c2bc2100c1
:1053840092017800f480410001097800810f5000f7
:1053940003003e00020078000008eb007eff0700d7
:1053a40080de80000000e0000900320022bd210000
:1053b40092017800f480410001097800810f5000c7
:1053c40003003e00020078000008eb008eff070097
:1053d400b0de80000000e0000900320082bd210040
:1053e40092017800f480410001097800810f500097
:1053f40003003e00020078000008eb009eff070057
:1054040080bc2100104078006140600061006000b1
:105414004400dd00a17280000140a1008100700001
:10542400a1728800e0bc2100104078006140600057
:10543400610060004e00dd00a170800001e0a10069
:1054440081007000a170880040bd210010407800e8
:10545400614060000080fb004f00dd00a17080000f
:1054640001f0a10081007000a1708800a1bd21009d
:10547400110178006a00410080087800b1fd2f0016
:10548400810f500002003600c0fd2f00d0de8800de
:1054940091708000c808de00e1c060009070800058
:1054a4004900de006140600080cf50001c003200e3
:1054b400d0de800041be2100910f50001800390059
:1054c400e880500011005000d0de88008008780089
:1054d400907080004900de0061406000f68050005a
:1054e400914f100003003a000080eb0050df880069
:1054f400020037001000200050df88009170800007
:10550400c808de0060bc210061c8600091708000a2
:10551400c908de000000e80061c86000020037002e
:10552400a0be21000008eb00d0de800041be2100b7
:10553400910f500009003e0011c0b30080be21004d
:10554400014878000040eb0071be210080487800db
:105554008100e900804878001c00370021be21004a
:10556400910f5000a6003e000040eb00e680400092
:105574008048780012c0b3008100e90082487800b6
:105584008100e90080487800100037000040eb00fb
:1055940081be2100804878008100e90080487800bd
:1055a40011c0b30060be2100014878000700370035
:1055b4000040eb0081be2100804878008100e900b2
:1055c400804878008100e900804878003ffb0700ac
:1055d4000004e0000b0032000b04e000090032007c
:1055e400d1dd800000bc2100908f500005003900ff
:1055f4000000eb00d0dd880051bb2100804878001a
:10560400100037002afb07000004e0000d00320000
:105614000b04e0000b003200d0dd800001bc21004f
:10562400910f500007003e00f30f500005003600b4
:10563400668050000008eb0011c0b3006500500004
:105644000148780034fb07000004e0000b0032003e
:105654000a04e00009003200e1dd800020bc2100e2
:10566400908f5000050039000000eb00e0dd880059
:1056740071bb210080487800100037001ffb070031
:105684000004e0000d0032000a04e0000b003200c8
:10569400e0dd800021bc2100910f500007003e0096
:1056a400f30f500005003600668050000008eb0040
:1056b40011c0b30065005000014878000cfe0700db
:1056c4000004e0000b0032000904e000090032008d
:1056d400f1dd800040bc2100908f500005003900ae
:1056e4000000eb00f0dd880091bb210080487800c9
:1056f4001000370014fb07000004e0000d00320026
:105704000904e0000b003200f0dd800041bc210000
:10571400910f500007003e00f30f500005003600c3
:10572400668050000008eb0011c0b3006500500013
:1057340001487800a0bb2100900178006a884100ec
:105744000080e800900078006a8840000080e8004b
:10575400100178006a084100fd1507003004980024
:1057640041049800a000200001002000500498008b
:1057740061049800e01b2000000c78002840900091
:105784000028a3000400320040c0b3002044980065
:1057940030c0b3001700370058019000e8019000b2
:1057a40038009000c8009000e40b07000000e000ff
:1057b40004003200284090000004a1002044980016
:1057c40003003700284090000004a0002044980003
:1057d400a84090000040eb000108a300b6fe320090
:1057e4000400370080c0b30020449800000ceb0094
:1057f40030c0b3004f05be004f04be0000000600d9
:1058040001be2100910f500060ff360068ff370091
:10581400b0de88000000060011c0b30080bc210087
:10582400014878000000060080bc21000048eb001d
:105834000000060011c0b300e0bc2100014878005c
:1058440000000600e0bc21000048eb000000060058
:1058540011c0b30040bd21000148780000000600db
:1058640040bd21000048eb0000000600d0de8000af
:105874000000060060be2100104078000000060011
:1058840070be2100104078000000060080be210098
:10589400104078000000060011df8000808f500067
:1058a4000100310000df88000000060001df8000f5
:1058b400808f50000400360041be2100910f50003b
:1058c4000100360010df88000000060011df8000b0
:1058d400808f50000100360020df880000000600a1
:1058e40050df800000000600fdff07004f00de00cf
:1058f40000000600faff07008000780010c0b30023
:105904000100e00001003c000040eb000000060044
:10591400f3ff0700800078000000eb000100e000c6
:105924000600320010002000d2de800001be2100fb
:10593400910f5100010039000000eb000000060047
:10594400881f780000047800100020000100e000a7
:10595400040034008100e90008007800f8ff070023
:105964008880b9004f04780000000600889fbe00bc
:105974008a9fbe008c9fbe008e1f7800014678006f
:105984000005eb000c04e0001100320080067800f2
:105994000c84fb000804e9008d047800ae002000ac
:1059a400b9457800880078000e007800e4ff07000d
:1059b4008b85fb000b03b1008b80b900000545000b
:1059c4000804e9000dc05400804f5600f4ff3e0067
:1059d4000a0078004f0778004f06be004f05be004e
:1059e4004f04be0000000600510a20008180b90067
:1059f4004900de002002b100000006001800fa0091
:105a0400889fbe008a1f7800000478002840900018
:105a14000074a0002044980018007800d10b2000e6
:105a2400810f5000e60032000e003e00e107200026
:105a3400810f50001f00320003003e000000e00010
:105a4400510132006a01370081082000810f5000a3
:105a540049003200c10b2000810f500064013a005c
:105a6400be003700010c2000810f50000c013200f1
:105a740004003e008100e900810f50005c013a00ff
:105a8400ea003700310c2000810f5000250132005c
:105a94008180e800810f500055013a004101370030
:105aa400650a0700b08288000008eb00e0072000c8
:105ab400000c7800284090000028a3000400320065
:105ac40040c0b3002044980030c0b3004c013700fc
:105ad40001052100b082800076030700e24f5000e8
:105ae40004003600284090000004a10020449800df
:105af40003003700284090000004a00020449800d0
:105b0400a84090000040eb000108a3003c013a00cb
:105b1400e7042100974378000783fb000700320065
:105b240000c021008080e90006014300000141001b
:105b3400d0287800820f5000fdff3a008782fb00d6
:105b44008502e9000580420001c021000080400078
:105b540081828000010878004fd0bf00e14f5000df
:105b64001f003a00340a0700b08288000008eb00e6
:105b740080082000000c7800284090000028a30032
:105b84000400320040c0b3002044980030c0b30089
:105b94001b01370001052100b08280004503070086
:105ba400e24f500004003600284090000004a10099
:105bb4002044980003003700284090000004a0000f
:105bc40020449800a84090000040eb000108a30086
:105bd4000b013a005010f8005810f9005500370036
:105be400e24f50000d003a008000eb000600e00098
:105bf40006003200e0bf210006014300020140001c
:105c0400d0804000820f5000fdff3a0011000900cf
:105c14008680d800c082880046003700e34f5000d9
:105c240010003a0002e08000c2828800e10f5300b5
:105c34004000360000c02100060343008081e900d3
:105c440086814100d0007800810f510001003600a8
:105c540001017800830f5000faff3a00c2828800e5
:105c640034003700e44f500010003a0002e0800096
:105c7400c2828800e10f53002e00360000c02100cc
:105c8400060343008081e90086814100d00078004a
:105c9400810f51000100310001017800830f500091
:105ca400faff3a00c282880022003700e54f500014
:105cb40020003a008004eb00890078000ac021002b
:105cc4000600e0000d003a000f00370030017800b4
:105cd4008100e80090017800830f51000200360033
:105ce40073b89f0002087800858f5000f7ff3900d1
:105cf4008904e800890f5300030036000180400046
:105d04000a004000f8ff3700cf28de0085804000fd
:105d14000100a10000c0210081004000e70fb20093
:105d24000700400091007800108040000000d1007e
:105d3400c082880050ee2900fe805700160009003a
:105d4400b05878007001b100c082800026ff0700bf
:105d5400c0828800c00b2000000c7800284090000e
:105d64000028a3000400320040c0b300204498007f
:105d740030c0b300a2003700818180000128a30055
:105d840003003a000004a1002044980002003700f8
:105d94000004a00020449800284190000040eb003b
:105da4000208a30096003a000120a0008181880027
:105db40000d021000008eb00d00b2000000c78007c
:105dc400284090000028a3000400320040c0b30023
:105dd4002044980030c0b30089003700fe8057008b
:105de40000d0210071080700e24f50000400360083
:105df400284090000004a1002044980003003700cc
:105e0400284090000004a00020449800a84090007e
:105e14000040eb000108a30079003a0000d0210003
:105e24000008eb00f00b2000000c780028409000e4
:105e34000028a3000400320040c0b30020449800ae
:105e440030c0b3006e003700c28280004011dd0014
:105e54008001eb0000d021000f070700e24f500043
:105e640004003600284090000004a100204498005b
:105e740003003700284090000004a000204498004c
:105e8400a84090000040eb000108a3005c003a0029
:105e940000d021000008eb00000c2000000c78006a
:105ea400284090000028a3000400320040c0b30042
:105eb4002044980030c0b30051003700a1ed290000
:105ec40000d0210039080700e24f500004003600da
:105ed400284090000004a1002044980003003700eb
:105ee400284090000004a00020449800a84090009e
:105ef4000040eb000108a30041003a003050a90023
:105f0400131407003004980041049800803e2000d8
:105f1400010020005004980061049800300c200017
:105f2400000c7800284090000028a30004003200f0
:105f340040c0b3002044980030c0b30030003700a4
:105f440058019000e801900038009000c8009000cb
:105f5400fa0907000000e000040032002840900025
:105f64000004a1002044980003003700284090005a
:105f74000004a00020449800a84090000040eb00da
:105f84000108a3001e003a005a50e200c4fe3a0081
:105f9400284090000074a10020449800500c200078
:105fa400000c7800284090000028a3000400320070
:105fb40040c0b3002044980030c0b3001000370044
:105fc4000004e00003003d000004a1002044980008
:105fd400020037000004a00020449800a84090006c
:105fe4000040eb000108a300e7ff32000400370083
:105ff40080c0b30020449800000ceb0030c0b30014
:106004004f0578004f04be000080fa00000006002f
:106014001800fa00889fbe008a1f780000047800e8
:10602400284090000074a0002044980018007800d4
:10603400e1052000810f5000e10032000c003e0019
:10604400fc0f50001b00320003003e000000e00083
:106054001600320059013700fe0f50002d003200a7
:10606400a1022000810f500054013a005b00370068
:1060740011062000810f50000501320004003e008b
:106084008180e900810f50004c013a00e50037009f
:1060940021062000810f50001a013200e3804000e5
:1060a400810f500045013a0030013700c001200043
:1060b400000c7800a84490000928a30004003200d2
:1060c40040c0b3002044980030c0b3003f01370003
:1060d40077f807000004e000030032000904a1007f
:1060e40029449800020037000904a00029449800bc
:1060f400a84090000040eb000108a30033013a00df
:10610400cd080700b08288000008eb00e001200001
:10611400000c7800284090000028a30004003200fe
:1061240040c0b3002044980030c0b30027013700ba
:1061340001052100b0828000de010700e24f50001b
:1061440004003600284090000004a1002044980078
:1061540003003700284090000004a0002044980069
:10616400a84090000040eb000108a30017013a008a
:10617400e7042100974378000783fb0007003200ff
:1061840000c021008080e9000601430000014100b5
:10619400d0287800820f5000fdff3a008782fb0070
:1061a4008502e9000580420001c021000080400012
:1061b40081828000010878003050a9004fd0bf00d0
:1061c400e14f50001f003a009b080700b08288008e
:1061d4000008eb00a0022000000c7800284090008a
:1061e4000028a3000400320040c0b30020449800fb
:1061f40030c0b300f500370001052100b0828000f3
:10620400ac010700e24f5000040036002840900023
:106214000004a100204498000300370028409000a7
:106224000004a00020449800a84090000040eb0027
:106234000108a300e5003a005010f8005810f900d6
:1062440055003700e24f50000d003a008000eb008b
:106254000600e00006003200e0bf21000601430012
:1062640002014000d0804000820f5000fdff3a0040
:10627400110009008680d800c082880046003700db
:10628400e34f500010003a0002e08000c282880010
:10629400e10f53004000360000c021000603430014
:1062a4008081e90086814100d0007800810f51008f
:1062b4000100360001017800830f5000faff3a0014
:1062c400c282880034003700e44f500010003a00c6
:1062d40002e08000c2828800e10f53002e003600e5
:1062e40000c02100060343008081e900868141004b
:1062f400d0007800810f51000100310001017800c5
:10630400830f5000faff3a00c2828800220037004f
:10631400e54f500020003a008004eb00890078002b
:106324000ac021000600e0000d003a000f0037000b
:10633400300178008100e80090017800830f51005b
:106344000200360073b89f0002087800858f500061
:10635400f7ff39008904e800890f53000300360071
:10636400018040000a004000f8ff3700cf28de001b
:10637400858040000100a10000c021008100400090
:10638400e70fb20007004000910078001080400041
:106394000000d100c082880050ee2900fe80570022
:1063a40016000900b05878007001b100c082800066
:1063b4008dfd0700c0828800e0052000000c7800f5
:1063c400284090000028a3000400320040c0b3001d
:1063d4002044980030c0b3007c00370081818000e5
:1063e4000128a30003003a000004a10020449800ff
:1063f400020037000004a0002044980028419000c7
:106404000040eb000208a30070003a000120a00045
:106414008181880000d021000008eb00f0052000f5
:10642400000c7800284090000028a30004003200eb
:1064340040c0b3002044980030c0b300630037006c
:10644400fe80570000d02100d8060700e24f50001c
:1064540004003600284090000004a1002044980065
:1064640003003700284090000004a0002044980056
:10647400a84090000040eb000108a30053003a003c
:1064840000d021000008eb0010062000000c78006a
:10649400284090000028a3000400320040c0b3004c
:1064a4002044980030c0b30048003700c282800006
:1064b4004011dd008001eb0000d0210076050700cb
:1064c400e24f500004003600284090000004a10070
:1064d4002044980003003700284090000004a000e6
:1064e40020449800a84090000040eb000108a3005d
:1064f40036003a0000d021000008eb0020062000fe
:10650400000c7800284090000028a300040032000a
:1065140040c0b3002044980030c0b3002b003700c3
:10652400a1ed290000d02100a0060700e24f500091
:1065340004003600284090000004a1002044980084
:1065440003003700284090000004a0002044980075
:10655400a84090000040eb000108a3001b003a0093
:106564003050a90050062000000c7800a844900088
:106574000928a3000400320040c0b300204498005e
:1065840030c0b3001100370050f707000004e000ea
:10659400030032000904a1002944980002003700d6
:1065a4000904a00029449800a84090000040eb0092
:1065b4000108a300bdfe32000400370080c0b30010
:1065c40020449800000ceb0030c0b3004f05780065
:1065d4004f04be000080fa0000000600889fbe0041
:1065e4008a9fbe008c9fbe0080047800b0be21004c
:1065f400740140008040eb0001687800820f500075
:10660400fdff3a008045eb0058c0b3000b4578000d
:106614000900e00004003a0001c3b300c0be210039
:1066240001487800190037001cc0b300cdbe21001a
:106634008880fb00a0002000c1fc07000002780055
:10664400110009008484d8008000fd000100e000ee
:1066540003003a000b04e000090032000100370097
:106664008c4578000a81fb000281460003c3b30015
:1066740003c940000a45e8008488b90080845400b6
:106684000844e900e14f4400e9ff3a004f06be0028
:106694004f05be004f04be000000060040942200d7
:1066a400b30607000000eb0050de880080de88009f
:1066b400b0de880060de880090de8800c0de8800de
:1066c400d0dd8800e0dd8800f0dd8800810c20004a
:1066d40021df8800c15d200011df880081bb20001c
:1066e40001df8800d1de8800e1de88008040eb0015
:1066f40062be2100004978000200e80001487800e9
:106704000000e80001487800c012200000de880084
:1067140010de880020de880000000600c0ef29009b
:106724006a060700000b200091002000dcf6070039
:106734001feea90011eea9001beea9001deea90091
:106744001faea90011aea8001baea9001daea90082
:106754001baea800b003200001002000d0f6070003
:106764001f8ea900118ea8001b8ea9001d8ea900e2
:106774001b8ea800b003200001002000c8f607000b
:1067840021eea8002beea9002deea9002beea80007
:10679400b003200001002000c1f607001e6ea8000f
:1067a400106ea800b003200001002000bcf6070012
:1067b400baff07008000eb0030002000f51107004d
:1067c400a00f200012fc070010c0b3004ef0b70069
:1067d4004ff0b700a00023006506070040782200b0
:1067e4006306070000d0220061060700401b220058
:1067f4005f0607000000060010007800110050003a
:1068040000000600881f78000004780081017800e9
:10681400284090000074a0002044980018027800da
:106824000400e0000400320001032000810f520044
:106834001a003a000200370001032000010c78001e
:106844000028a3000400320040c0b3002044980094
:1068540030c0b30015003700818180000168a300b7
:1068640003003a000004a10020449800020037000d
:106874000004a00020449800284290000040eb004f
:106884000408a30009003a000160a0008181880087
:106894008200780003007800be11070080c0b300b6
:1068a40020449800000ceb0030c0b3004f04780083
:1068b40000000600889fbe000004be00284090002f
:1068c4000074a00020449800180078000000e00044
:1068d4000400320041042000810f50001b003a00e4
:1068e40003003700b211070040042000000c7800b8
:1068f400284090000028a3000400320040c0b300e8
:106904002044980030c0b30014003700a5110700dc
:106914000000e00004003a00284090000004a100b8
:106924002044980003003700284090000004a00091
:1069340020449800a84090000040eb000108a30008
:1069440006003a009c110700800c780080c0b30058
:1069540020449800000ceb0030c0b3004f04be008c
:1069640000000600889fbe00800478000184fb00bc
:10697400e33f23002200200088007800090078000b
:1069840020f207000804d1000800e90000004000dc
:106994000080440008044400888444001000780007
:1069a400190040000000d1004f04be0000000600a2
:1069b4008001eb000104e0000c00320000017800cb
:1069c4000280e8008140e9008180fb008180400072
:1069d40001004000b2007800818f510001003100b5
:1069e40081017800800f5100faff3a00030078001b
:1069f40000000600889fbe008a9fbe000004780045
:106a04000105780082447800284090000074a000ba
:106a14002044980018007800b10a2000810f50002b
:106a24007f00320009003e00f0805000810f5000ca
:106a340026003200e8804000810f50004e003200f2
:106a44000000e00010003200e8023700b10b200023
:106a5400810f5000c800320004003e00e88050005e
:106a6400810f5000e1023a0098003700310c2000f9
:106a7400810f5000eb003200ee804000810f500087
:106a8400da023a00120137006e70ef006a30ef004c
:106a94006c30ef0000cfb30000c0610070f0b700ad
:106aa400efc1610083407800f006210001487800be
:106ab4006f806400e10f500029003a002400370081
:106ac4003b110700b0092000000c7800284090001a
:106ad4000028a3000400320040c0b3002044980002
:106ae40030c0b300c50237002e1107000000e000db
:106af40004003a00284090000004a10020449800bb
:106b040003003700284090000004a00020449800af
:106b1400a84090000040eb000108a300b7023a002f
:106b2400eb0621009b457800231107008b80fb00b6
:106b340081804000a2d321008100410080087800b8
:106b44008b45e8008b417800e20621000349780078
:106b54006ed0bf00e14f5000d6003e00d8ff370092
:106b6400e20f500028003a002300370010110700fc
:106b7400300a2000000c7800284090000028a30070
:106b84000400320040c0b3002044980030c0b30079
:106b94009a023700031107000000e00004003a00e5
:106ba400284090000004a10020449800030037000e
:106bb400284090000004a00020449800a8409000c1
:106bc4000040eb000108a3008c023a00eb06210010
:106bd4009b457800f81007008b80fb008180400003
:106be400a2d3210081004100800878008b45e80091
:106bf4000b4078006ef0b7006ed0bf00e34f50003a
:106c0400ac003e00d9ff3700e30f500029003a00e2
:106c140024003700e6100700b00a2000000c7800ba
:106c2400284090000028a3000400320040c0b300b4
:106c34002044980030c0b30070023700d910070018
:106c44000000e00004003a00284090000004a10085
:106c54002044980003003700284090000004a0005e
:106c640020449800a84090000040eb000108a300d5
:106c740062023a00eb0621009b457800ce10070023
:106c84008b80fb0081804000a2d321008100410061
:106c9400800878008b45e8000b417800e10621006c
:106ca400824878006ed0bf00e74f500081003e005c
:106cb400d8ff3700e40f500029003a0024003700c1
:106cc400bb100700300b2000000c78002840900017
:106cd4000028a3000400320040c0b3002044980000
:106ce40030c0b30045023700ae1007000000e000da
:106cf40004003a00284090000004a10020449800b9
:106d040003003700284090000004a00020449800ad
:106d1400a84090000040eb000108a30037023a00ad
:106d2400eb0621009b457800a31007008b80fb0035
:106d340081804000a2d321008100410080087800b6
:106d44008b45e8000b427800e30621008449780073
:106d54006ed0bf00ef4f500056003e00d8ff370002
:106d6400e50f500029003a00240037009010070076
:106d7400b00b2000000c7800284090000028a300ed
:106d84000400320040c0b3002044980030c0b30077
:106d94001a023700831007000000e00004003a00e4
:106da400284090000004a10020449800030037000c
:106db400284090000004a00020449800a8409000bf
:106dc4000040eb000108a3000c023a00eb0621008e
:106dd4009b457800781007008b80fb008180400081
:106de400a2d3210081004100800878008b45e8008f
:106df4008b407800e0062100014878006ed0bf0087
:106e0400ff4f50002b003e00d8ff3700e60f500024
:106e140028003a002400370065100700300c2000d9
:106e2400000c7800284090000028a30004003200e1
:106e340040c0b3002044980030c0b300ef013700d5
:106e4400581007000000e00004003a0028409000b9
:106e54000004a1002044980003003700284090005b
:106e64000004a00020449800a84090000040eb00db
:106e74000108a300e1013a00eb0621009b457800dc
:106e84004d1007008b80fb0081804000a2d32100bd
:106e940081004100800878008b45e8008b41780030
:106ea400e206210003497800f0c3b3006e50e3000a
:106eb400d9ff3600000deb006e70ef000904e0000e
:106ec4001b003a003a100700100d2000000c780057
:106ed400284090000028a3000400320040c0b30002
:106ee4002044980030c0b300c40137002d100700bf
:106ef4000000e00004003a00284090000004a100d3
:106f04002044980003003700284090000004a000ab
:106f140020449800a84090000040eb000108a30022
:106f2400b6013a0024100700000d7800690137000b
:106f3400e1cf540011003a00508380006183800047
:106f4400d2e9800000004100e0804800e2e98000ce
:106f540000004100e080480023c0b300e4062100a3
:106f6400034a78008100d1000080d3005083880058
:106f740061838800000d780056013700e2cf540089
:106f840019003a005083800061838000d2e98000b8
:106f940000004100e0804800e2e980000000410078
:106fa400e0804800f2e9800000004100e0804800f1
:106fb40002ea800000004100e080480043c0b300c2
:106fc400e4062100034a78004e0add004200de0098
:106fd40000007200c208de005083880061838800cc
:106fe400000d78003b013700e3cf540013003a0052
:106ff400528380006383800080d3210070024000ac
:10700400d000780002814000e0814900840f5000e4
:10701400fbff3a0080c0b3006ef0b7004d18dd00ee
:107024004311de0002017000c319de0052838800a0
:1070340063838800020d780026013700e4cf5400f2
:1070440014003a00528380006383800080d32100bf
:107054000402200000024200d000780002814000b7
:10706400e0814900840f5000fbff3a0000c1b300e7
:107074006ef0b700cc18dd004411de000281700010
:10708400c419de005283880063838800020d7800ef
:1070940010013700e5cf540014003a0052838000f9
:1070a4006383800080d32100040420000002420096
:1070b400d000780002814000e0814900840f500034
:1070c400fbff3a0000c2b3006ef0b7004b1add00bc
:1070d4004511de0002017200c519de0052838800ea
:1070e40063838800020d7800fa003700e6cf54006d
:1070f40014003a00528380006383800080d321000f
:107104000408200000024200d00078000281400000
:10711400e0814900840f5000fbff3a0000c4b30033
:107124006ef0b7004a18dd004611de00020170005f
:10713400c619de005283880063838800020d78003c
:10714400e400370010c2b30080cf540013003a00ab
:10715400008deb00e1062100914078000040eb0037
:10716400a2d3210001003700804078000080fb009a
:107174000000400000004100100078009a0f500009
:1071840001003100000d78000140e800e14f50009b
:10719400f5ff36006ef0b700ce00370020c2b30012
:1071a40080cf540013003a00008deb00e10621006b
:1071b400914078000040eb00a2d321000100370089
:1071c400804078000080fb00000040000000410087
:1071d400100078009a0f500001003100000d780073
:1071e4000140e800e34f5000f5ff36006ef0b700b1
:1071f400b800370030c2b30080cf540013003a0007
:10720400008deb00e1062100914078000040eb0086
:10721400a2d3210001003700804078000080fb00e9
:107224000000400000004100100078009a0f500058
:1072340001003100000d78000140e800e74f5000e4
:10724400f5ff36006ef0b700a200370040c2b3006d
:1072540080cf540013003a00008deb00e1062100ba
:10726400914078000040eb00a2d3210001003700d8
:10727400804078000080fb000000400000004100d6
:10728400100078009a0f500001003100000d7800c2
:107294000140e800ef4f5000f5ff36006ef0b700f4
:1072a4008c00370050c2b30080cf540013003a0062
:1072b400008deb00e1062100914078000040eb00d6
:1072c400a2d3210001003700804078000080fb0039
:1072d4000000400000004100100078009a0f5000a8
:1072e40001003100000d78000140e800ff4f50001c
:1072f400f5ff36006ef0b7007600370060c2b300c9
:1073040080cf540014003a00008deb00e106210008
:10731400914078000040eb00a3d32100f2c3b300f6
:1073240001003700804078000080fb00000040002e
:1073340000804100100078009a0f500001003100d5
:10734400000d78000140e800824f5000f5ff360040
:107354006ef0b7005f00370010c4b30080cf540054
:1073640005003a0021c0b300a0d3210090fd07001e
:10737400000d78005700370020c4b30080cf5400bc
:1073840005003a0041c0b300a0d3210088fd0700e6
:10739400000d78004f00370030c4b30080cf540094
:1073a40005003a0081c0b300a0d3210080fd07008e
:1073b400000d78004700370040c4b30080cf54006c
:1073c40005003a0001c1b300a0d3210078fd0700f5
:1073d400000d78003f00370050c4b30080cf540044
:1073e40005003a0001c2b300a0d3210070fd0700dc
:1073f400000d78003700370060c4b30080cf54001c
:1074040005003a0001c4b300a0d3210068fd0700c1
:10741400000d78002f00370010c8b30080cf54004f
:1074240005003a0021c0b300a0d321004dfd0700a0
:10743400000d78002700370020c8b30080cf540027
:1074440005003a0041c0b300a0d3210045fd070068
:10745400000d78001f00370030c8b30080cf5400ff
:1074640005003a0081c0b300a0d321003dfd070010
:10747400000d78001700370040c8b30080cf5400d7
:1074840005003a0001c1b300a0d3210035fd070077
:10749400000d78000f00370050c8b30080cf5400af
:1074a40005003a0001c2b300a0d321002dfd07005e
:1074b400000d78000700370060c8b30080cf540087
:1074c40004003a0001c4b300a0d3210025fd070045
:1074d400000d780070d0bf003a003b00f106210097
:1074e400914078000104e00014003200e1cf500024
:1074f40015003200e2cf500016003200e3cf5000f6
:1075040017003200e4cf500018003200e5cf5000dd
:1075140019003200e6cf50001a003200e7cf5000c5
:107524001b0032006011b800e8cf50001a003a0086
:1075340002352c00030020001700370002712200de
:107544000300200014003700028022000300200002
:107554001100370002e22400030020000e0037006f
:1075640002002500030020000b003700025327000f
:107574000300200008003700820e280003002000ca
:107584000500370002c42900030020000200370070
:1075940002002a00030020001a0078008000eb009b
:1075a400809ab9000010b800810042004409dd004f
:1075b4004c00de0000007100cc08de00000d7800f5
:1075c4000a0037000068a300080032009a0078001f
:1075d400400620000008b800c409dd004c00de00ad
:1075e40000807100cc08de00000d780080c0b3007c
:1075f40020449800000ceb0030c0b3004f05be00df
:107604004f04be00000006006d0e070030d0a90034
:1076140010002000000006000000210001c8210025
:10762400010878008000eb00110098002100980008
:1076340002042000320098008000210003cc2100c5
:107644000308780011009800210098003200980087
:107654009f0d0700000006000080fb004400de00d0
:10766400e94f5000020036007043b00001003700bb
:107674000043b000000006006f406000e94f500076
:10768400020036007043b000010037000043b00030
:1076940000000600881f780000047800284090004d
:1076a4000074a00020449800180178000200e00053
:1076b4000400320031052000810f510027003a00f8
:1076c4000c00370081417800b202210003497800a0
:1076d400118080008100e80061818800020420009c
:1076e400828f500001003a002c30ef003105200059
:1076f400010c78000028a3000400320040c0b3004d
:107704002044980030c0b300180037006181800025
:1077140022808000810f5100030032000004a10088
:1077240020449800020037000004a0002044980080
:10773400284190000040eb000208a3000b003a002f
:107744000000210010814000b30221009341780021
:107754000349780011009800340d070080c0b3007d
:1077640020449800000ceb0030c0b3004f047800b4
:1077740000000600889fbe00000478008144780061
:10778400284090000074a00020449800180078005d
:107794000000e00004003200a1062000810f500028
:1077a4003f003a001900370001c3b30040d3210061
:1077b4000148780081c7b3000000e8000148780060
:1077c40009407800a4ff070061d3210080487800b5
:1077d40009407800a8ff070071d321008048780091
:1077e4000100e8000048eb002a70ef000210ec00f2
:1077f4004081880001042000810f500001003a00fc
:107804002830ef00a0062000000c780028409000eb
:107814000028a3000400320040c0b30020449800b4
:1078240030c0b300220037004181800022808000f4
:10783400810f5100030032000004a100204498008d
:10784400020037000004a000204498002841900062
:107854000040eb000208a30015003a0000002100dc
:1078640090814000a2022100124178000282fb00b4
:1078740045d3210004824200944978000241e80083
:1078840002427800a3022100844978001100980084
:10789400e60c07002ad0bf00e34f5000d3ff3600a8
:1078a40080c0b30020449800000ceb0030c0b3004b
:1078b4004f04be0000000600881f78000004780012
:1078c400284090000074a00020449800180078001c
:1078d4000000e0000400320041082000810f500045
:1078e40067003a00410037002670ef0030c6b3004d
:1078f40080cf50000a0036000181fb004211de00f7
:10790400b04721000011b8000301d100f0d22100da
:1079140003c3b3000348410010c0b30026f0b7000e
:10792400e9cf50001400360026d0bf000081fb00d0
:10793400f3d22100828141000181fb00c212de00ea
:10794400b4472100042ab8008502d100440620006f
:1079540084aab900040151000281fb00d5cc2c009b
:107964000512b8004329de0004c3b3008449410072
:107974000040e80026f0b7006202210012417800be
