:020000040000fa
:080000000013040000000000e1
:020000040000fa
:1000080002100000061000000a1000000e10000088
:1000180012100000161000001a1000001e10000038
:1000280022100000261000002a1000002e100000e8
:1000380032100000361000003a1000003e10000098
:1000480042100000461000004a1000004e10000048
:1000580052100000561000005a1000005e100000f8
:1000680062100000661000006a1000006e100000a8
:1000780072100000761000007a1000007e10000058
:1000880082100000861000008a1000008e10000008
:1000980092100000961000009a1000009e100000b8
:1000a800a2100000a6100000aa100000ae10000068
:1000b800b2100000b6100000ba100000be10000018
:1000c800c2100000c6100000ca100000ce100000c8
:1000d800d2100000d6100000da100000de10000078
:1000e800e2100000e6100000ea100000ee10000028
:1000f800f2100000f6100000fa100000fe100000d8
:1001080002110000061100000a1100000e11000083
:1001180012110000161100001a1100001e11000033
:1001280022110000261100002a1100002e110000e3
:1001380032110000361100003a1100003e11000093
:1001480042110000461100004a1100004e11000043
:1001580052110000561100005a1100005e110000f3
:1001680062110000661100006a1100006e110000a3
:1001780072110000761100007a1100007e11000053
:1001880082110000861100008a1100008e11000003
:1001980092110000961100009a1100009e110000b3
:1001a800a2110000a6110000aa110000ae11000063
:1001b800b2110000b6110000ba110000be11000013
:1001c800c2110000c6110000ca110000ce110000c3
:1001d800d2110000d6110000da110000de11000073
:1001e800e2110000e6110000ea110000ee11000023
:1001f800f2110000f6110000fa110000fe110000d3
:1002080002120000061200000a1200000e1200007e
:1002180012120000161200001a1200001e1200002e
:1002280022120000261200002a1200002e120000de
:1002380032120000361200003a1200003e1200008e
:1002480042120000461200004a1200004e1200003e
:1002580052120000561200005a1200005e120000ee
:020000040000fa
:10200000020000001214040000000000121404007a
:10201000000000001214040000000000121404006c
:10202000000000001214040000000000121404005c
:10203000000000001214040000000000121404004c
:10204000000000001214040000000000121404003c
:1020500000000000121404000000000090140400ae
:10206000000000001214040000000000121404001c
:10207000000000001214040000000000121404000c
:1020800000000000121404000000000012140400fc
:102090000000000012140400000000006e14040090
:1020a00000000000421404000000000012140400ac
:1020b00000000000121404000000000012140400cc
:1020c00000000000121404000000000012140400bc
:1020d00000000000121404000000000012140400ac
:1020e000000000001214040000000000121404009c
:1020f000000000001214040000000000121404008c
:10210000000000001214040000000000121404007b
:10211000000000001214040000000000121404006b
:10212000000000001214040000000000121404005b
:10213000000000001214040000000000121404004b
:10214000000000001214040000000000121404003b
:10215000000000001214040000000000121404002b
:10216000000000001214040000000000121404001b
:10217000000000001214040000000000121404000b
:1021800000000000121404000000000012140400fb
:1021900000000000121404000000000012140400eb
:1021a00000000000121404000000000012140400db
:1021b00000000000121404000000000012140400cb
:1021c00000000000121404000000000012140400bb
:1021d00000000000121404000000000012140400ab
:1021e000000000001214040000000000121404009b
:1021f000000000001214040000000000121404008b
:10220000000000001214040000000000121404007a
:10221000000000001214040000000000121404006a
:10222000000000001214040000000000121404005a
:10223000000000001214040000000000121404004a
:10224000000000001214040000000000121404003a
:10225000000000001214040000000000121404002a
:10226000000000001214040000000000121404001a
:10227000000000001214040000000000121404000a
:1022800000000000121404000000000012140400fa
:1022900000000000121404000000000012140400ea
:1022a00000000000121404000000000012140400da
:1022b00000000000121404000000000012140400ca
:1022c00000000000121404000000000012140400ba
:1022d00000000000121404000000000012140400aa
:1022e000000000001214040000000000121404009a
:1022f000000000001214040000000000121404008a
:102300000000000012140400000000001214040079
:102310000000000012140400000000001214040069
:102320000000000012140400000000001214040059
:102330000000000012140400000000001214040049
:102340000000000012140400000000001214040039
:102350000000000012140400000000001214040029
:102360000000000012140400000000001214040019
:102370000000000012140400000000001214040009
:1023800000000000121404000000000012140400f9
:1023900000000000121404000000000012140400e9
:1023a00000000000121404000000000012140400d9
:1023b00000000000121404000000000012140400c9
:1023c00000000000121404000000000012140400b9
:1023d00000000000121404000000000012140400a9
:1023e0000000000012140400000000001214040099
:1023f0000000000012140400000000001214040089
:102400000000000012140400000000001214040078
:102410000000000012140400000000001214040068
:102420000000000012140400000000001214040058
:102430000000000012140400000000001214040048
:102440000000000012140400000000001214040038
:102450000000000012140400000000001214040028
:102460000000000012140400000000001214040018
:102470000000000012140400000000001214040008
:1024800000000000121404000000000012140400f8
:1024900000000000121404000000000012140400e8
:1024a00000000000121404000000000012140400d8
:1024b00000000000121404000000000012140400c8
:0424c0000000000018
:020000040000fa
:102600000fdd21000eff27000e01880000000000f2
:10261000000020000000e000020032000001200065
:102620002002880014000700d00007000000e0002e
:1026300003003a0080da2400010020000200370085
:102640000000200001002000810f70000100320016
:102650000f000700000020000000e0000200320030
:102660000000020000000000143c02000000000016
:102670000040da000000fe00c07220000000e00010
:1026800002003200002020009001880000000600b7
:10269000a1028800800478000000eb001f003700d2
:1026a000e284440054a0b4009905ba00e2844400d6
:1026b00054a0b4009906ba00e284440054a0b400c7
:1026c0000006eb00476fde00fd07b200ae01880098
:1026d000636ce10003003a000ad801000000eb003f
:1026e0000e003700606ce10008003a00004deb007e
:1026f0000a05e800020039003420ec000af0a000ce
:102700008b05e900f9ff3e00040037006168e10035
:10271000010032000086eb000b00070019c7ba0069
:102720000e04e0001905ba0003003a000a00e000b8
:10273000dbff3a0000000600fe07b200ae02880090
:102740008a047800f5ff37000cd0a300e20f4d009b
:102750001c00390089027800354dba000a05e800ee
:10276000020039003420ec000af0a0008b05e900db
:102770000f003200254dba000a05e80002003900ba
:102780003420ec000af0a0008b05e90008003200bc
:102790000c00e0000600320015cdba000a05e80082
:1027a000020039003420ec000af0a0008b05e9009b
:1027b0008984e80054a0b4000b00e000e2ff3a0076
:1027c000000006009902ba00055d78008b05e9005b
:1027d000f7ff3200c82ade00055d78008b05e900ae
:1027e000f3ff32000c00e000f1ff320019ddba0007
:1027f000eeff37000a26040000000000d621040086
:1028000000000000942204000000000030240400b6
:10281000000000007020040000000000c02a040036
:10282000000000003600f800809fbe00829fbe00be
:10283000849fbe00869fbe003200f8003400f8007e
:1028400010002000a00188000020200090018800d6
:1028500000000000c808f8007810f9000094290072
:102860000d1707003400f9003200f9004f03be00d5
:102870004f02be004f01be004f00be003600f900ff
:1028800000400600809fbe000000210090009000e4
:1028900020009000808f500002003a002188a9009b
:1028a0000c0037000430ec00000420000410e300aa
:1028b00001003a000430ef000188a9000000210067
:1028c0009000780020009000008040001080fb0005
:1028d000201188004f00be0000400600809fbe000f
:1028e000821f78000168a900311180000a30ec00d5
:1028f000000420000a10e30001003a000a30ef0053
:1029000080002100100178001000900000004100bc
:10291000014878004f0178004f00be0000400600db
:102920003600f800809fbe00829fbe00849fbe00dc
:10293000869fbe005083800061838000610040005c
:10294000e080480050838800618388000068a90007
:10295000f01207004f03be004f02be004f01be0041
:102960004f00be003600f9000040060000000500e0
:102970006022b800060220000000d0008180d20052
:102980000482d2008582d2000000a0000202520020
:1029900083825a00030031000202420083824a000f
:1029a0000000a1000603e900f3ff3a000000060062
:1029b0000001fa00889fbe008a9fbe008c1f78002d
:1029c0000004be0002057800f0032000808f510053
:1029d0000a003e000000eb00050037009840780038
:1029e0001a5c7800195d7800815c78000000e800ce
:1029f000830f5000f9ff3a001e00370003067800ed
:102a00008c05780000102000800f56000100360071
:102a1000800578000b0178008800780060ef2f00b7
:102a20000f004000fd0107000b0178008a007800cc
:102a300008007800f90107000b0178008900780090
:102a40000a007800f50107000b01780061ef2f0004
:102a50008f80400009007800f00107000b06560047
:102a60000b0444008b8444000b0545000c00e0007f
:102a7000e3ff3a004f0678004f05be004f04be004a
:102a80000080fa00000006000001fa00889fbe00e6
:102a90008a9fbe000005be00f0032000800f510099
:102aa00009003e000000eb00040037009a40780067
:102ab0001b5d7800815d78000000e800820f500007
:102ac000faff3a0018003700820478000904780001
:102ad00000102000808f54000100360000047800b0
:102ae000080178008a00780080ef2f000f00400076
:102af000ca010700080178000a00be00c7010700ec
:102b00000801780081ef2f008f8040000b007800d3
:102b1000c2010700888454000805450088854500e7
:102b20000900e000e9ff3a004f05be004f04be0077
:102b30000080fa0000000600889fbe008a9fbe0049
:102b40008c1f780080047800010478000205be0024
:102b5000040678000800be000c0001000000e00040
:102b600004003d000b01780088007800090078001f
:102b7000c5ff0700880078000a0078000c000100fb
:102b80000000e00004003d000b0178008a0078009e
:102b900008007800bcff07000800be000c00010020
:102ba0000000e00004003d000b0178008800780080
:102bb00009007800b4ff07004f0678004f05be00fb
:102bc0004f04be0000000600889fbe008a9fbe0022
:102bd0008c9fbe008e1f78008002780081047800f0
:102be0008205780003047800040678000585550006
:102bf000820220008299b9008a0f51002200310020
:102c0000110009000385d800000578004355de0057
:102c10000a05e80083d5b9000a8742000a01450089
:102c2000028142008e00780005007800c2ff070094
:102c30008a06ea000a8144000d8044000c027800f4
:102c40008801780089007800bbff07008d86450069
:102c5000e0ff2f0080d5b9000a8045000c02780003
:102c6000880178000b0178008d007800b2ff070022
:102c70000c027800880178000d0178008900780046
:102c80000e007800030037000b01780089007800ff
:102c900005007800a8ff07004f0778004f06be0028
:102ca0004f05be004f04be0000000600e487470049
:102cb000889fbe008a9fbe008c9fbe008e1f78003a
:102cc0000004be000205be0084bf9f000906e800a4
:102cd0000c06460089d8b900000744008cd8b9001a
:102ce0008006440009007800150037008a0f56005e
:102cf000060032008b8056000d0078000fb9970057
:102d0000020001000000e00002003d000c06e900a6
:102d10008b8656000b0178008d0078000e0078003d
:102d200059ff07008c00e800818040008b89b900c2
:102d30000c0078000d077800820644000106780038
:102d40008a0f5600e9ff3600100037000006e90040
:102d50000c06d1008be5b9000a0544008a00780012
:102d60000e0078000fb99700020001000000e0009b
:102d7000080034000b0178008e0078000a0078000b
:102d800041ff07000c0078000a077800808f54008c
:102d9000eeff39004f0778004f06be004f05be001a
:102da0004f04be004f00b100000006000001fa0011
:102db000889fbe008a9fbe008c9fbe0000057800e1
:102dc00001067800820578008a0656008b86460048
:102dd0008b047800150037000904780000102000eb
:102de000808f540001003600000478008880550070
:102df000810046000801780040ef2f000f004000de
:102e00000601070008815600080045008a00780086
:102e1000090107000801780041ef2f008f80400072
:102e20000a007800fd000700888454000900e000d3
:102e3000e9ff3a004f06be004f05be004f04be003a
:102e40000080fa0000000600ea874700889fbe0065
:102e50008a9fbe008c9fbe008e1f78000005780000
:102e600081067800e2b79f000304780084057800ab
:102e70009b0037000d06d10088e6b9000c0645001e
:102e800088e8b90000004500d0b79f0088044600dc
:102e90000800ea00f0b79f00dfb097000081400013
:102ea0000b027800880178008c0078000a00780016
:102eb00045ff0700010037000d0678008c0f550014
:102ec000090031007fb19700820646008c0078002f
:102ed0000d0078000b0001000000e000f6ff32005a
:102ee00001003700888444005fb09700808f540051
:102ef000030039000c0778008906780011003700bc
:102f00008c007800090078000b0001000000e00050
:102f1000f4ff3200f7ff37000c00be000b00010089
:102f20000000e000060035001c003a0008017800af
:102f30008d00780009007800d3fe070088844400e3
:102f400088864600dfb09700818f5600130031005d
:102f5000f1ff37007fb19700820147008c007800b5
:102f60000300780083bf9f000b0001008fb997001a
:102f70000000e000080035000a003a007fb097002a
:102f80000006460008017800830078000c007800f5
:102f9000bdfe07008fb99700030778008e0f55001c
:102fa000ecff39008a0f570014003a00dfb0970099
:102fb000818f56002b0032008d8f540005003a009f
:102fc000080178008c00780009007800aefe070048
:102fd0000500370088017800090178008c0078002e
:102fe0000d00780072fe070088864600080646003d
:102ff000888444000a077800d2ff37007fb1970029
:10300000020747005fb09700808f560010003a001b
:1030100082844400020646008c0f570006003a00e6
:1030200008017800890078000e00780096fe0700fd
:103030000e067800c3ff3700880178000c01780085
:10304000890078000e00780059fe0700bdff3700a8
:10305000080178008e0078000d0078008afe0700d5
:10306000b7ff3700efb097000100d10001017800f1
:10307000c210de0080804000e1b79f000a065600c3
:10308000110009000886d8000006780089865600dd
:10309000110009008886d800800678008d0f560040
:1030a00008003e000b027800880178006fb197009d
:1030b0008c0078000a00780063ff0700090578009b
:1030c000070037000b027800880178006fb1970085
:1030d0008d007800090078005bff07008c067800ff
:1030e000efb097000100e000040032000002200071
:1030f000808f56005fff3e001e0037000002200058
:10310000808f56001b0036008d04d1008904e90031
:103110000b027800880178000d01780089007800a2
:103120000a007800e1fe07000900e000f7ff3a001e
:1031300088e8b900800445008884540008017800bc
:10314000890078000a0078004ffe07008d06e9002c
:103150000b027800880178000d0178008000eb00f8
:103160000a007800d1fe0700e18f5600f2ff3e0012
:103170001f003700e18f56001d0036008a047800da
:1031800019003700888444008a007800090078001c
:103190000b0001000000e00004003d000801780081
:1031a000890078000a0078000e00370009067800d0
:1031b000010037000e067800080756008e007800e0
:1031c000090078000b0001000000e000f9ff350065
:1031d000890f560004003200080178008900780049
:1031e0000c007800f1fe07008d06e900e5ff3a00cb
:1031f0004f0778004f06be004f05be004f04be00cb
:10320000af00b100000006000302780082017800e0
:1032100001017800820078000bff37008001780000
:1032200002003700b15978000201e9000200e00015
:10323000fcff3a000000060000027800808f50007a
:103240000c00310082814000830f500009003100e2
:103250008200400002003700c36078000201e900ec
:103260000200e000fcff3a0000000600315a78003e
:103270000201e9000200e000fcff3a000000060045
:020000040000fa
:10328000556e0000686100006e6400006c6500000f
:1032900064200000696e0000746500007272000016
:1032a00075700000742c00002000000064730000a2
:1032b0005049000043330000334500005035000002
:1032c0003132000047500000383000003600000066
:1032d000756e00006b6e00006f7700006e000000de
:1032e0004231000000440000657600006963000080
:1032f0006520000049440000203d0000200000003f
:1033000020280000002900002c2000007265000029
:1033100076690000736900006f6e000020000000f5
:10332000290a0000000a00000a2a00002a2a0000d8
:103330002a2a00002a2a00002a2a00002a2a00003d
:103340002a2a00002a2a00002a2a00002a2a00002d
:103350002a2a00002a2a00002a2a00002a2a00001d
:103360002a2a00002a2a00002a2a00002a2a00000d
:103370002a2a00002a2a00002a2a00002a2a0000fd
:103380002a2a00002a2a00002a2a00002a2a0000ed
:103390002a2a00002a0a00002a20000057410000c3
:1033a000524e0000494e0000472000002d20000032
:1033b000746800006973000020700000726f0000e4
:1033c00067720000616d00002077000061730000eb
:1033d000206300006f6d0000706900006c650000e4
:1033e00064200000666f0000722000007468000016
:1033f00065200000777200006f6e000067200000fb
:10340000202a00000a2a00002063000068690000ea
:10341000702e000020540000686900007320000036
:10342000707200006f670000726100006d20000084
:103430006d61000079200000707200006f64000070
:103440007563000065200000756e0000657800005f
:103450007065000063740000656400002062000075
:1034600065680000766900006f720000212000008e
:103470002a0a00002a200000456400006974000048
:10348000207400006865000020680000656100008d
:103490006465000072200000666900006c65000031
:1034a00073200000746f000020700000726f000035
:1034b00070650000726c00007920000064650000f7
:1034c000666900006e6500002074000068690000f5
:1034d000732000006368000069700000202a00006b
:1034e0000a2a0000206100006e64000020740000c1
:1034f0006f200000696e00007375000072650000a7
:10350000206300006f7200007265000063740000a9
:10351000206f000070650000726100007469000097
:103520006f6e00002e2000002020000020200000f0
:10353000202000002020000020200000202000008b
:103540002020000020200000202000002a0a000087
:103550002a20000020200000202000002020000061
:10356000202000002020000020200000202000005b
:10357000202000002020000020200000202000004b
:10358000202000002020000020200000202000003b
:10359000202000002020000020200000202000002b
:1035a000202000002020000020200000202000001b
:1035b0002020000020200000202a00000a2a00000d
:1035c000204e00004f540000453a00002049000002
:1035d0006620000074680000697300002077000016
:1035e00061730000206300006f6d000070690000cf
:1035f0006c65000064200000666f0000722000000f
:103600007468000065200000636f000072720000a3
:1036100065630000742000006368000069700000aa
:103620002c200000202000002a0a00002a20000090
:10363000616e0000642000006f6e00006c79000075
:10364000206f0000636300007572000073200000ab
:1036500061740000207000006f7700006572000048
:103660002d6f00006e200000286e00006f740000b7
:103670002064000075720000696e00006720000081
:10368000612000004d4300004c520000202000004b
:1036900020200000202a00000a2a000020720000da
:1036a0006573000065740000292c0000207600007e
:1036b00065720000696600007920000074680000ef
:1036c00061740000204100005644000044200000c6
:1036d000616e00006420000041560000535300005a
:1036e0002061000072650000206300006f6e000022
:1036f0006e65000063740000656400002e20000009
:10370000202000002a0a00002a2000004f6e00003e
:10371000207400006865000020500000494300004c
:1037200032340000483300003247000050320000bd
:10373000303200002c2000006e6f0000742000006a
:10374000636f00006e6e0000656300007469000026
:103750006e67000020410000564400004420000035
:103760002020000020200000202000002020000059
:10377000202a00000a2a000020700000726f00005a
:103780006475000063650000732000007468000029
:1037900069730000206d0000657300007361000014
:1037a00067650000206f00006e6c0000792000004b
:1037b00061740000207000006f77000065720000e7
:1037c0002d750000702e0000202000002020000039
:1037d00020200000202000002020000020200000e9
:1037e0002a0a00002a2a00002a2a00002a2a0000a9
:1037f0002a2a00002a2a00002a2a00002a2a000079
:103800002a2a00002a2a00002a2a00002a2a000068
:103810002a2a00002a2a00002a2a00002a2a000058
:103820002a2a00002a2a00002a2a00002a2a000048
:103830002a2a00002a2a00002a2a00002a2a000038
:103840002a2a00002a2a00002a2a00002a2a000028
:103850000a0000004661000073740000205200005e
:10386000432000004f730000630a00000046000080
:10387000617300007420000052430000204f0000dc
:103880007363000020770000697400006820000066
:10389000504c00004c0a000000500000726900000b
:1038a0006d61000072790000204f0000736300001a
:1038b00020280000585400002c200000485300002d
:1038c0002c20000045430000290a000000500000a1
:1038d000726900006d61000072790000204f0000e5
:1038e0007363000020280000585400002c200000c2
:1038f000485300002c200000454300002920000010
:103900007769000074680000205000004c4c0000f3
:103910000a00000053650000636f00006e64000041
:1039200061720000792000004f730000630a0000fc
:10393000004c00006f770000205000006f770000ff
:103940006572000020520000432000004f73000009
:10395000630a00000046000061730000742000004c
:1039600052430000204f0000736300002f3100001d
:10397000360a000000460000617300007420000059
:1039800052430000204f0000736300002f4e0000e0
:103990000a000000556e00006b6e00006f7700009b
:1039a0006e2000006f730000636900006c6c000003
:1039b000617400006f7200002074000079700000d4
:1039c000652e0000000a00004465000076690000d2
:1039d0006365000020680000617300002062000041
:1039e000656500006e200000696e00002073000015
:1039f0006c65000065700000206d00006f640000c1
:103a0000650a0000000a00004465000076690000b5
:103a10006365000020680000617300002062000000
:103a2000656500006e200000696e000020690000de
:103a3000646c0000652000006d6f0000646500008c
:103a40000a0000000a52000065730000657400005f
:103a50002063000061750000736500003a200000db
:103a6000005000006f770000657200002d6f0000ad
:103a70006e2e00000a000000536f00006674000004
:103a8000776100007265000020520000657300003d
:103a9000657400002e0a00000057000061740000e9
:103aa00063680000646f0000672000005469000034
:103ab0006d6500006f750000743a00002000000082
:103ac0000a0000004d4300004c520000206100003d
:103ad0007373000065720000746900006f6e00006f
:103ae0002e0a000000420000726f0000776e000096
:103af0002d6f0000757400002e0a000000540000b5
:103b00007261000070200000436f00006e660000cc
:103b10006c690000637400002e0a00000049000078
:103b20006c6c000065670000616c000020430000c1
:103b30006f6e000064690000746900006f6e000021
:103b40002e0a0000004300006f6e0000666900004e
:103b50006775000072610000746900006f6e0000fc
:103b6000204d0000697300006d6100007463000067
:103b7000682e00000a000000556e00006b6e000009
:103b80006f7700006e200000726500007365000012
:103b9000742e00000a00000045720000726f0000e1
:103ba00072200000747200006170000070650000f7
:103bb000643a00002000000050720000696f0000ad
:103bc00072690000747900003a200000002c0000a7
:103bd0002056000065630000746f00007220000032
:103be0006e7500006d620000657200003a200000f2
:103bf000000a00000a000000554100005254000075
:103c000031200000706100007269000074790000ca
:103c100020650000727200006f7200000a00000050
:103c2000554100005254000031200000667200002f
:103c3000616d0000696e0000672000006572000081
:103c4000726f0000720a000000550000415200002f
:103c500054310000206f0000766500007272000091
:103c6000756e000020650000727200006f72000027
:103c70000a000000554100005254000032200000ac
:103c80007061000072690000747900002065000016
:103c9000727200006f7200000a00000055410000bf
:103ca000525400003220000066720000616d000076
:103cb000696e00006720000065720000726f0000ee
:103cc000720a00000055000041520000543200000a
:103cd000206f00007665000072720000756e0000b3
:103ce00020650000727200006f7200000a00000080
:103cf0005541000052540000332000007061000064
:103d00007269000074790000206500007272000082
:103d10006f7200000a00000055410000525400007c
:103d20003320000066720000616d0000696e0000c3
:103d30006720000065720000726f0000720a0000c8
:103d4000005500004152000054330000206f000075
:103d50007665000072720000756e0000206500003c
:103d6000727200006f7200000a00000055410000ee
:103d7000525400003420000070610000726900009d
:103d80007479000020650000727200006f720000fc
:103d90000a00000055410000525400003420000089
:103da00066720000616d0000696e0000672000000f
:103db00065720000726f0000720a0000005500007a
:103dc0004152000054340000206f0000766500006e
:103dd00072720000756e00002065000072720000b3
:103de0006f7200000a0000003078000000450000fb
:103df000727200006f720000206900006e200000e7
:103e000062750000696c0000645c0000657300006e
:103e10006f7300005f6500006d6200006564000064
:103e20006465000064460000313400005f33000028
:103e3000334500005035000031320000475000008b
:103e400038300000365c00006c690000625c0000e5
:103e500073720000635c0000706900006332000050
:103e6000345f00007365000072690000616c00003f
:103e70002e630000206c0000696e000065200000c9
:103e800032390000363a0000204900006e7600000a
:103e9000616c000069640000205500004152000080
:103ea0005400000045720000726f00007220000094
:103eb000696e000020620000756900006c640000fb
:103ec0005c650000736f0000735f0000656d0000ab
:103ed0006265000064640000656400004631000013
:103ee000345f0000333300004550000035310000de
:103ef0003247000050380000303600005c6c000093
:103f0000696200005c730000726300005c70000076
:103f100069630000323400005f73000065720000c6
:103f2000696100006c2e0000632000006c690000d5
:103f30006e65000020330000333500003a20000099
:103f4000496e0000766100006c690000642000008a
:103f5000554100005254000000050000030200001b
:103f60000100000050c3000030750000204e00002a
:103f70001027000088130000b80b0000d0070000d5
:103f8000e8030000f40100002c010000c80000005c
:103f900064000000320000001e0000001400000059
:103fa0000a000000050000000300000002000000fd
:103fb00001000000050300000201000005030000ed
:103fc00002010000321e0000140a00000503000078
:103fd000020100000a5000006f740000656e0000ce
:103fe000746900006f6d0000657400006572000068
:103ff0002052000065610000646900006e670000e7
:104000003a200000000a000062750000696c0000a0
:10401000645c0000657300006f7300005f65000062
:104020006d62000065640000646500006446000085
:10403000313400005f33000033450000503500008c
:10404000313200004750000038300000365c00007c
:104050006c610000623400005c740000345f00009a
:10406000736500006e7300006f720000312e000057
:10407000632c000020620000756900006c74000071
:10408000206f00006e2000005365000070200000cb
:1040900032380000203200003032000030200000b2
:1040a0006174000020310000373a00003038000011
:1040b0003a310000380a000000000000636f000081
:1040c0006e760000657200007441000044430000f9
:0840d000312800002900000066
:020000040000fa
:1040d80002170700000006001a00fa00881f78007f
:1040e80000047800284090000074a0002044980044
:1040f8001800780031042000810f50004e00320073
:1041080009003e008100e900810f50002f003200b5
:104118000000e0000b0032008180e900810f5000b0
:1041280099003a000b00370051042000810f50001d
:10413800640032008180e800810f500092003a004c
:104148007e0037006450e20077003200000420004f
:10415800000c7800284090000028a30004003200da
:1041680040c0b3002044980030c0b3008a00370034
:10417800818180000128a30003003a000004a10007
:1041880020449800020037000004a0002044980052
:10419800284190000040eb000208a3007e003a008e
:1041a8000120a00081818800a0fe2900fc80570022
:1041b80018000900b05878009001b100c0c2210071
:1041c8000008eb0020042000000c78002840900034
:1041d8000028a3000400320040c0b3002044980027
:1041e80030c0b3006c003700fc805700c0c221000b
:1041f800ce0a0700e24f5000040036002840900025
:104208000004a100204498000300370028409000d3
:104218000004a00020449800a84090000040eb0053
:104228000108a3005c003a00c0c221000008eb00ae
:1042380030042000000c7800284090000028a300db
:104248000400320040c0b3002044980030c0b300de
:1042580051003700328380004011dd008001eb00ff
:10426800c0c221006c090700e24f5000040036006c
:10427800284090000004a100204498000300370063
:10428800284090000004a00020449800a840900016
:104298000040eb000108a3003f003a003050a9009d
:1042a8008b1607003004980041049800803e2000d7
:1042b8000100200050049800610498005004200078
:1042c800000c7800284090000028a3000400320069
:1042d80040c0b3002044980030c0b3002e0037001f
:1042e80058019000e801900038009000c800900044
:1042f800720c07000000e000040032002840900023
:104308000004a100204498000300370028409000d2
:104318000004a00020449800a84090000040eb0052
:104328000108a3001c003a00284090000074a10076
:104338002044980070042000000c78002840900069
:104348000028a3000400320040c0b30020449800b5
:1043580030c0b300100037000004e00003003d0047
:104368000004a10020449800020037000004a000c7
:1043780020449800a84090000040eb000108a300ea
:1043880070ff32000400370080c0b300204498005a
:10439800000ceb0030c0b3004f0478000080fa0036
:1043a80000000600881f780000047800284090006c
:1043b8000074a0002044980018007800f60f500000
:1043c80009003200f70f5000270032000000e0001b
:1043d8003f003a00780b0700408388000008eb0094
:1043e80060012000000c7800284090000028a300fd
:1043f8000400320040c0b3002044980030c0b3002d
:1044080037003700610621004083800089040700d7
:10441800e24f500004003600284090000004a1003c
:104428002044980003003700284090000004a000b2
:1044380020449800a84090000040eb000108a30029
:1044480027003a002216070030049800410498001b
:1044580040062000010020005004980061049800e4
:1044680070012000000c7800284090000028a3006c
:104478000400320040c0b3002044980030c0b300ac
:104488001700370058019000e801900038009000ac
:10449800c8009000090c07000000e000040032008a
:1044a800284090000004a100204498000300370031
:1044b800284090000004a00020449800a8409000e4
:1044c8000040eb000108a300c2ff320004003700df
:1044d80080c0b30020449800000ceb0030c0b3004b
:1044e8004f0478000000060060e88800000006001d
:1044f80060ce2100104078000004a2000080fb007c
:104508000000e9004f00de000000060060ce210038
:104518001080fb000000e9004f00de0000000600ec
:104528001a00fa00889fbe00000478002840900016
:104538000074a00020449800180078003102200080
:10454800810f50004900320009003e00e38050000e
:10455800810f5000120032008180e800810f500066
:10456800290032000000e0000b003200a0003700f4
:1045780061022000810f5000730032008100e800c2
:10458800810f500087003200e3805000810f5000f7
:1045980097003a005000370000022000000c780015
:1045a800a84490000928a3000400320040c0b300ca
:1045b8002044980030c0b30091003700ccff0700ba
:1045c8000004e000030032000904a1002944980017
:1045d800020037000904a00029449800a840900070
:1045e8000040eb000108a30085003a00a0fe290066
:1045f800fe80570018000900b05878009001b100fb
:1046080020022000000c7800284090000028a30019
:104618000400320040c0b3002044980030c0b3000a
:1046280077003700818180000128a30003003a0049
:104638000004a10020449800020037000004a000f4
:1046480020449800284190000040eb000208a30095
:104658006b003a000120a00081818800c0c22100bf
:104668000008eb0030022000000c78002840900081
:104678000028a3000400320040c0b3002044980082
:1046880030c0b3005e003700fe805700c0c2210072
:10469800a6090700e24f50000400360028409000a9
:1046a8000004a1002044980003003700284090002f
:1046b8000004a00020449800a84090000040eb00af
:1046c8000108a3004e003a00c0c221000008eb0018
:1046d80040022000000c7800284090000028a30029
:1046e8000400320040c0b3002044980030c0b3003a
:1046f80043003700328380004011dd008001eb0069
:10470800c0c2210044080700e24f500004003600f0
:10471800284090000004a1002044980003003700be
:10472800284090000004a00020449800a840900071
:104738000040eb000108a30031003a003050a90006
:1047480060022000000c7800a84490000928a3000b
:104758000400320040c0b3002044980030c0b300c9
:104768002700370069ff07000004e000030032005b
:104778000904a10029449800020037000904a00098
:1047880029449800a84090000040eb000108a300cd
:104798001b003a000174a100214498007002200017
:1047a800000c7800284090000028a3000400320084
:1047b80040c0b3002044980030c0b3001000370058
:1047c8000004e00003003d000004a100204498001c
:1047d800020037000004a00020449800a840900080
:1047e8000040eb000108a3006bff32000400370013
:1047f80080c0b30020449800000ceb0030c0b30028
:104808004f04be000080fa000000060070ce2100b0
:10481800104078000004a2000080fb000000e900be
:104828004f00de000000060080ce21001040780016
:104838000004a2000080fb000000e9004f00de0039
:104848000000060080ce21001080fb000000e90077
:104858004f00de0000000600889fbe0000047800bc
:10486800284090000074a0002044980018007800a8
:1048780011032000810f50002500320006003e0081
:104888000000e0000b0032008100e900810f5000b9
:1048980066003a000900370031032000810f5000fc
:1048a800320032008180e800810f50005f003a003a
:1048b8004700370000032000000c7800a84490004f
:1048c8000928a3000400320040c0b3002044980027
:1048d80030c0b30059003700d3ff07000004e000e0
:1048e800030032000904a10029449800020037009f
:1048f8000904a00029449800a84090000040eb005b
:104908000108a3004d003a0010032000000c7800b5
:10491800a84490000928a3000400320040c0b30056
:104928002044980030c0b30044003700c5ff07009a
:104938000004e000030032000904a10029449800a3
:10494800020037000904a00029449800a8409000fc
:104958000040eb000108a30038003a0010c0b30083
:1049680064f0b70030032000000c7800a8449000e1
:104978000928a3000400320040c0b3002044980076
:1049880030c0b3002d003700d9fe07000004e00056
:1049980003003a00a4ff07000004e000030032000f
:1049a8000904a10029449800020037000904a00066
:1049b80029449800a84090000040eb000108a3009b
:1049c8001e003a006470ef0050032000000c7800cd
:1049d800a84490000928a3000400320040c0b30096
:1049e8002044980030c0b30014003700c7fe070009
:1049f8000004e0000600320092ff07000004e00017
:104a0800030032000904a10029449800020037007d
:104a18000904a00029449800a84090000040eb0039
:104a28000108a300a3ff32000400370080c0b300d0
:104a380020449800000ceb0030c0b3004f04be00c7
:104a48000000060090ce2100104078000004a2006b
:104a58000080fb000000e9004f00de0000000600b7
:104a6800a0ce2100104078000004a2000080fb00c6
:104a78000000e9004f00de0000000600a0ce210083
:104a88001080fb000000e9004f00de000000060077
:104a9800b0ce2100104078000004a2000080fb0086
:104aa8000000e9004f00de000000060090e78800e3
:104ab80000000600a0e7880000000600b0e78800b4
:104ac80000000600a0cf2100104078000004a200da
:104ad8000080fb000000e9004f00de000000060037
:104ae800a0cf21001080fb000000e9004f00de008d
:104af8000000060011c0b300a0cf210001487800d3
:104b08000080e8000008eb0000000600a0cf2100ac
:104b18000048eb000080e8000008eb0000000600f9
:104b2800a0cf21001004a20000000600e0e78800e2
:104b38000000060000d02100104078000004a20008
:104b48000080fb000000e9004f00de0000000600c6
:104b580000d021001080fb000000e9004f00de00bb
:104b68000000060011c0b30000d021000148780001
:104b78000080e8000008eb000000060000d02100db
:104b88000048eb000080e8000008eb000000060089
:104b980000d021001004a2000000060010e88800e0
:104ba8000000060060d02100104078000004a20038
:104bb8000080fb000000e9004f00de000000060056
:104bc80060d021001080fb000000e9004f00de00eb
:104bd8000000060011c0b30060d021000148780031
:104be8000080e8000008eb000000060060d021000b
:104bf8000048eb000080e8000008eb000000060019
:104c080060d021001004a20000000600889fbe00aa
:104c18008a9fbe0000047800284090000074a0001d
:104c280020449800180078000000e00004003200da
:104c3800e11b2000810f50004c013a003101370080
:104c48000040eb0071ce2100804878008180e800a8
:104c5800804878008180e800804878009b70800058
:104c6800cd5dde00e1c565006580500090c56d0032
:104c78008b85fb008b05e900cf5dde00010022007b
:104c880092708000828060008100e900cf08de0019
:104c9800014878009a7080004c55de006145650037
:104ca8000080e80010456d000a85fb000a05e90050
:104cb8004f55de0001002100937080008380600062
:104cc8008100e900cf08de000148780019718000f2
:104cd800cf4cde000080e80090c46c008984fb00a3
:104ce8008904e900cf4cde00117180008180ea0060
:104cf800cf08de0001487800e0e780000000e0000f
:104d080009003200e2cf210092017800f4804100ce
:104d180001097800810f500003003e00020078006e
:104d28000008eb007eff070010e880000000e000ac
:104d38000900320042d0210092017800f48041003d
:104d480001097800810f500003003e00020078003e
:104d58000008eb008eff070040e880000000e0003c
:104d680009003200a2d0210092017800f4804100ad
:104d780001097800810f500003003e00020078000e
:104d88000008eb009eff0700a0cf2100104078002c
:104d980061406000610060004400dd00a172800095
:104da8000140a10081007000a172880000d021009c
:104db8001040780061406000610060004e00dd0036
:104dc800a170800001e0a10081007000a17088003e
:104dd80060d0210010407800614060000080fb0036
:104de8004f00dd00a170800001f0a100810070007b
:104df800a1708800c1d02100110178006a0041002b
:104e080080087800b1fd2f00810f500002003600a5
:104e1800c0fd2f0060e8880091708000c808de009f
:104e2800e1c06000907080004900de0061406000d1
:104e380080cf50001c00320060e8800061d1210062
:104e4800910f500018003900e88050001100500000
:104e580060e8880080087800907080004900de00d3
:104e680061406000f6805000914f100003003a0046
:104e78000080eb00e0e88800020037001000200006
:104e8800e0e8880091708000c808de0080cf21002b
:104e980061c8600091708000c908de000000e80069
:104ea80061c8600002003700c0d121000008eb0093
:104eb80060e8800061d12100910f500009003e0098
:104ec80011c0b300a0d12100014878000040eb00d8
:104ed80091d12100804878008100e900804878005d
:104ee8001c00370041d12100910f5000a6003e0060
:104ef8000040eb00e68040008048780012c0b30014
:104f08008100e900824878008100e9008048780043
:104f1800100037000040eb00a1d121008048780044
:104f28008100e9008048780011c0b30080d12100d9
:104f380001487800070037000040eb00a1d12100ac
:104f4800804878008100e900804878008100e90005
:104f5800804878006dfd07000004e0000b00320077
:104f68000b04e0000900320061e7800020cf210037
:104f7800908f5000050039000000eb0060e78800c2
:104f880071ce2100804878001000370058fd0700d6
:104f98000004e0000d0032000b04e0000b003200ba
:104fa80060e7800021cf2100910f500007003e00ec
:104fb800f30f500005003600668050000008eb0033
:104fc80011c0b30065005000014878001dfe0700bd
:104fd8000004e0000b0032000a04e000090032007f
:104fe80071e7800040cf2100908f50000500390004
:104ff8000000eb0070e7880091ce2100804878001f
:105008001000370008fe07000004e0000d00320021
:105018000a04e0000b00320070e7800041cf210055
:10502800910f500007003e00f30f500005003600b6
:10503800668050000008eb0011c0b3006500500006
:10504800014878008dfe07000004e0000b003200e4
:105058000904e0000900320081e7800060cf2100e8
:10506800908f5000050039000000eb0080e78800b1
:10507800b1ce2100804878001000370078fe070084
:105088000004e0000d0032000904e0000b003200cb
:1050980080e7800061cf2100910f500007003e009b
:1050a800f30f500005003600668050000008eb0042
:1050b80011c0b3006500500001487800c0ce21003f
:1050c800900178006a8841000080e800900078002c
:1050d8006a8840000080e800100178006a084100f2
:1050e800fb1207003004980041049800a00020003b
:1050f800010020005004980061049800e01b200083
:10510800000c7800284090000028a300040032001a
:1051180040c0b3002044980030c0b30017003700e7
:1051280058019000e801900038009000c8009000f5
:10513800e20807000000e000040032002840900068
:105148000004a10020449800030037002840900084
:105158000004a00020449800a84090000040eb0004
:105168000108a300b6fe32000400370080c0b30077
:1051780020449800000ceb0030c0b3004f05be007f
:105188004f04be000000060021d12100910f5000fd
:1051980060ff360068ff370040e88800000006001e
:1051a80011c0b300a0cf210001487800000006001c
:1051b800a0cf21000048eb000000060011c0b3009a
:1051c80000d02100014878000000060000d021002e
:1051d8000048eb000000060011c0b30060d02100b9
:1051e800014878000000060060d021000048eb006c
:1051f8000000060060e880000000060080d1210061
:10520800104078000000060090d12100104078007e
:1052180000000600a0d12100104078000000060020
:10522800a1e88000808f50000100310090e88800dc
:105238000000060091e88000808f500004003600ce
:1052480061d12100910f500001003600a0e88800cc
:1052580000000600a1e88000808f500001003600a1
:10526800b0e8880000000600e0e8800000000600c2
:10527800fdff07004f00de0000000600faff0700f0
:105288008000780010c0b3000100e00001003c007d
:105298000040eb0000000600f3ff070080007800e4
:1052a8000000eb000100e0000600320010002000c2
:1052b80062e8800021d12100910f510001003900de
:1052c8000000eb0000000600881f7800000478004a
:1052d800100020000100e000040034008100e90013
:1052e80008007800f8ff07008880b9004f047800ac
:1052f80000000600889fbe008a9fbe008c9fbe00eb
:105308008e1f7800014678000005eb000c04e000d1
:1053180011003200800678000c84fb000804e900c4
:105328008d047800ae002000b94578008800780028
:105338000e007800e4ff07008b85fb000b03b1002b
:105348008b80b900000545000804e9000dc0540031
:10535800804f5600f4ff3e000a0078004f0778009f
:105368004f06be004f05be004f04be0000000600f9
:10537800510a20008180b9004900de002002b100f6
:1053880000000600889fbe008a9fbe008c9fbe005a
:1053980080047800d0d12100740140008040eb00e7
:1053a80001687800820f5000fdff3a008045eb004d
:1053b80058c0b3000b4578000900e00004003a002b
:1053c80001c3b300e0d1210001487800190037007b
:1053d8001cc0b300edd121008880fb00a000200094
:1053e800b9ff070000027800110009008484d80082
:1053f8008000fd000100e00003003a000b04e0001b
:1054080009003200010037008c4578000a81fb0052
:105418000281460003c3b30003c940000a45e800ff
:105428008488b900808454000844e900e14f4400ae
:10543800e9ff3a004f06be004f05be004f04be000c
:1054480000000600a0602200a90607000000eb008b
:10545800e0e7880010e8880040e88800f0e7880066
:1054680020e8880050e8880060e7880070e7880036
:1054780080e78800810c2000b1e88800c15d200029
:10548800a1e8880081bb200091e8880061e88800d5
:1054980071e888008040eb0082d121000049780043
:1054a8000200e800014878000000e80001487800a0
:1054b800c012200090e78800a0e78800b0e78800c5
:1054c8000000060030002a0060060700000b2000dc
:1054d80091002000fefa07001feea90011eea900b6
:1054e8001beea9001deea9001faea90011aea80071
:1054f8001baea9001daea9001baea800b00320007a
:1055080001002000f2fa07001f8ea900118ea800e2
:105518001b8ea9001d8ea9001b8ea800b0032000b9
:1055280001002000eafa07001e4ea800104ea8004d
:10553800b003200001002000e5fa0700c1ff0700c2
:105548008000eb0020002000f2110700a00f2000cf
:1055580011ff0700601d2200650607004029220090
:1055680063060700004322006106070000072200c7
:105578005f060700000006001000780011005000c8
:1055880000000600881f7800000478008101780078
:10559800284090000074a000204498001802780069
:1055a8000400e0000400320001032000810f5200d3
:1055b8001a003a000200370001032000010c7800ad
:1055c8000028a3000400320040c0b3002044980023
:1055d80030c0b30015003700818180000168a30046
:1055e80003003a000004a10020449800020037009c
:1055f8000004a00020449800284290000040eb00de
:105608000408a30009003a000160a0008181880015
:105618008200780003007800be11070080c0b30044
:1056280020449800000ceb0030c0b3004f04780011
:1056380000000600889fbe000004be0028409000bd
:105648000074a00020449800180078000000e000d2
:105658000400320041042000810f50001b003a0072
:1056680003003700b211070040042000000c780046
:10567800284090000028a3000400320040c0b30076
:105688002044980030c0b30014003700a51107006b
:105698000000e00004003a00284090000004a10047
:1056a8002044980003003700284090000004a00020
:1056b80020449800a84090000040eb000108a30097
:1056c80006003a009c110700800c780080c0b300e7
:1056d80020449800000ceb0030c0b3004f04be001b
:1056e80000000600889fbe00800478000184fb004b
:1056f80003ac22002200200088007800090078000e
:10570800bff607000804d1000800e90000004000c7
:105718000080440008044400888444001000780095
:10572800190040000000d1004f04be000000060030
:105738008001eb000104e0000c0032000001780059
:105748000280e8008140e9008180fb008180400000
:1057580001004000b2007800818f51000100310043
:1057680081017800800f5100faff3a0003007800a9
:1057780000000600889fbe008a9fbe0000047800d3
:105788000105780082447800284090000074a00049
:105798002044980018007800b10a2000810f5000ba
:1057a8007f00320009003e00f0805000810f500059
:1057b80026003200e8804000810f50004e00320081
:1057c8000000e00010003200e8023700b10b2000b2
:1057d800810f5000c800320004003e00e8805000ed
:1057e800810f5000e1023a0098003700310c200088
:1057f800810f5000eb003200ee804000810f500016
:10580800da023a00120137006070ef005c30ef00f6
:105818005e30ef0000cfb30000c0610062f0b70057
:10582800efc161008340780010062100014878002c
:105838006f806400e10f500029003a00240037000f
:105848003b110700b0092000000c780028409000a8
:105858000028a3000400320040c0b3002044980090
:1058680030c0b300c50237002e1107000000e00069
:1058780004003a00284090000004a1002044980049
:1058880003003700284090000004a000204498003e
:10589800a84090000040eb000108a300b7023a00be
:1058a8000b0621009b457800231107008b80fb0025
:1058b8008180400062c62100810041008008780094
:1058c8008b45e8008b4178000206210003497800e7
:1058d80060d0bf00e14f5000d6003e00d8ff37002f
:1058e800e20f500028003a0023003700101107008b
:1058f800300a2000000c7800284090000028a300ff
:105908000400320040c0b3002044980030c0b30007
:105918009a023700031107000000e00004003a0073
:10592800284090000004a10020449800030037009c
:10593800284090000004a00020449800a84090004f
:105948000040eb000108a3008c023a000b0621007e
:105958009b457800f81007008b80fb008180400091
:1059680062c6210081004100800878008b45e8006c
:105978000b40780060f0b70060d0bf00e34f5000e4
:10598800ac003e00d9ff3700e30f500029003a0071
:1059980024003700e6100700b00a2000000c780049
:1059a800284090000028a3000400320040c0b30043
:1059b8002044980030c0b30070023700d9100700a7
:1059c8000000e00004003a00284090000004a10014
:1059d8002044980003003700284090000004a000ed
:1059e80020449800a84090000040eb000108a30064
:1059f80062023a000b0621009b457800ce10070092
:105a08008b80fb008180400062c62100810041003c
:105a1800800878008b45e8000b41780001062100da
:105a28008248780060d0bf00e74f500081003e00f8
:105a3800d8ff3700e40f500029003a00240037004f
:105a4800bb100700300b2000000c780028409000a5
:105a58000028a3000400320040c0b300204498008e
:105a680030c0b30045023700ae1007000000e00068
:105a780004003a00284090000004a1002044980047
:105a880003003700284090000004a000204498003c
:105a9800a84090000040eb000108a30037023a003c
:105aa8000b0621009b457800a31007008b80fb00a4
:105ab8008180400062c62100810041008008780092
:105ac8008b45e8000b4278000306210084497800e2
:105ad80060d0bf00ef4f500056003e00d8ff37009f
:105ae800e50f500029003a00240037009010070005
:105af800b00b2000000c7800284090000028a3007c
:105b08000400320040c0b3002044980030c0b30005
:105b18001a023700831007000000e00004003a0072
:105b2800284090000004a10020449800030037009a
:105b3800284090000004a00020449800a84090004d
:105b48000040eb000108a3000c023a000b062100fc
:105b58009b457800781007008b80fb00818040000f
:105b680062c6210081004100800878008b45e8006a
:105b78008b407800000621000148780060d0bf0003
:105b8800ff4f50002b003e00d8ff3700e60f5000b3
:105b980028003a002400370065100700300c200068
:105ba800000c7800284090000028a3000400320070
:105bb80040c0b3002044980030c0b300ef01370064
:105bc800581007000000e00004003a002840900048
:105bd8000004a100204498000300370028409000ea
:105be8000004a00020449800a84090000040eb006a
:105bf8000108a300e1013a000b0621009b4578004b
:105c08004d1007008b80fb008180400062c6210098
:105c180081004100800878008b45e8008b417800be
:105c28000206210003497800f0c3b3006050e30086
:105c3800d9ff3600000deb006070ef000904e000aa
:105c48001b003a003a100700100d2000000c7800e5
:105c5800284090000028a3000400320040c0b30090
:105c68002044980030c0b300c40137002d1007004d
:105c78000000e00004003a00284090000004a10061
:105c88002044980003003700284090000004a0003a
:105c980020449800a84090000040eb000108a300b1
:105ca800b6013a0024100700000d7800690137009a
:105cb800e1cf540011003a00e0828000f1828000b8
:105cc80032e3800000004100e080480042e38000a9
:105cd80000004100e080480023c0b3000406210012
:105ce800034a78008100d1000080d300e082880058
:105cf800f1828800000d780056013700e2cf540089
:105d080019003a00e0828000f182800032e38000ce
:105d180000004100e080480042e3800000004100ac
:105d2800e080480052e3800000004100e080480025
:105d380062e3800000004100e080480043c0b300f7
:105d480004062100034a78004e0add004200de0006
:105d580000007200c208de00e0828800f18288003c
:105d6800000d78003b013700e3cf540013003a00e0
:105d7800e2828000f382800040c621007002400069
:105d8800d000780002814000e0814900840f500073
:105d9800fbff3a0080c0b30060f0b7004d18dd008b
:105da8004311de0002017000c319de00e2828800a0
:105db800f3828800020d780026013700e4cf5400f2
:105dc80014003a00e2828000f382800040c621007d
:105dd8000402200000024200d00078000281400046
:105de800e0814900840f5000fbff3a0000c1b30076
:105df80060f0b700cc18dd004411de0002817000ad
:105e0800c419de00e2828800f3828800020d78005f
:105e180010013700e5cf540014003a00e2828000f8
:105e2800f382800040c621000404200000024200e2
:105e3800d000780002814000e0814900840f5000c2
:105e4800fbff3a0000c2b30060f0b7004b1add0058
:105e58004511de0002017200c519de00e2828800e9
:105e6800f3828800020d7800fa003700e6cf54006c
:105e780014003a00e2828000f382800040c62100cc
:105e88000408200000024200d0007800028140008f
:105e9800e0814900840f5000fbff3a0000c4b300c2
:105ea80060f0b7004a18dd004611de0002017000fc
:105eb800c619de00e2828800f3828800020d7800ad
:105ec800e400370010c2b30080cf540013003a003a
:105ed800008deb0001062100914078000040eb00a6
:105ee80062c6210001003700804078000080fb0076
:105ef8000000400000004100100078009a0f500098
:105f080001003100000d78000140e800e14f500029
:105f1800f5ff360060f0b700ce00370020c2b300ae
:105f280080cf540013003a00008deb0001062100d9
:105f3800914078000040eb0062c621000100370064
:105f4800804078000080fb00000040000000410015
:105f5800100078009a0f500001003100000d780001
:105f68000140e800e34f5000f5ff360060f0b7004d
:105f7800b800370030c2b30080cf540013003a0095
:105f8800008deb0001062100914078000040eb00f5
:105f980062c6210001003700804078000080fb00c5
:105fa8000000400000004100100078009a0f5000e7
:105fb80001003100000d78000140e800e74f500073
:105fc800f5ff360060f0b700a200370040c2b3000a
:105fd80080cf540013003a00008deb000106210029
:105fe800914078000040eb0062c6210001003700b4
:105ff800804078000080fb00000040000000410065
:10600800100078009a0f500001003100000d780050
:106018000140e800ef4f5000f5ff360060f0b70090
:106028008c00370050c2b30080cf540013003a00f0
:10603800008deb0001062100914078000040eb0044
:1060480062c6210001003700804078000080fb0014
:106058000000400000004100100078009a0f500036
:1060680001003100000d78000140e800ff4f5000aa
:10607800f5ff360060f0b7007600370060c2b30065
:1060880080cf540014003a00008deb000106210077
:10609800914078000040eb0063c62100f2c3b300d2
:1060a80001003700804078000080fb0000004000bd
:1060b80000804100100078009a0f50000100310064
:1060c800000d78000140e800824f5000f5ff3600cf
:1060d80060f0b7005f00370010c4b30080cf5400f1
:1060e80005003a0021c0b30060c6210090fd0700fa
:1060f800000d78005700370020c4b30080cf54004b
:1061080005003a0041c0b30060c6210088fd0700c1
:10611800000d78004f00370030c4b30080cf540022
:1061280005003a0081c0b30060c6210080fd070069
:10613800000d78004700370040c4b30080cf5400fa
:1061480005003a0001c1b30060c6210078fd0700d0
:10615800000d78003f00370050c4b30080cf5400d2
:1061680005003a0001c2b30060c6210070fd0700b7
:10617800000d78003700370060c4b30080cf5400aa
:1061880005003a0001c4b30060c6210068fd07009d
:10619800000d78002f00370010c8b30080cf5400de
:1061a80005003a0021c0b30060c621004dfd07007c
:1061b800000d78002700370020c8b30080cf5400b6
:1061c80005003a0041c0b30060c6210045fd070044
:1061d800000d78001f00370030c8b30080cf54008e
:1061e80005003a0081c0b30060c621003dfd0700ec
:1061f800000d78001700370040c8b30080cf540066
:1062080005003a0001c1b30060c6210035fd070052
:10621800000d78000f00370050c8b30080cf54003d
:1062280005003a0001c2b30060c621002dfd070039
:10623800000d78000700370060c8b30080cf540015
:1062480004003a0001c4b30060c6210025fd070020
:10625800000d780062d0bf003a003b001106210013
:10626800914078000104e00014003200e1cf5000b2
:1062780015003200e2cf500016003200e3cf500084
:1062880017003200e4cf500018003200e5cf50006c
:1062980019003200e6cf50001a003200e7cf500054
:1062a8001b0032006011b800e8cf50001a003a0015
:1062b80002352c000300200017003700027122006d
:1062c8000300200014003700028022000300200091
:1062d8001100370002e22400030020000e003700fe
:1062e80002002500030020000b003700025327009e
:1062f8000300200008003700820e28000300200059
:106308000500370002c429000300200002003700fe
:1063180002002a00030020001a0078008000eb0029
:10632800809ab9000010b800810042004409dd00dd
:106338004c00de0000007100cc08de00000d780083
:106348000a0037000068a300080032009a007800ad
:10635800400620000008b800c409dd004c00de003b
:1063680000807100cc08de00000d780080c0b3000a
:1063780020449800000ceb0030c0b3004f05be006d
:106388004f04be00000006006d0e070030d0a900c3
:10639800100020000000060000002100c1ba210002
:1063a800010878008000eb00110098002100980097
:1063b800020420003200980080002100c3be2100a2
:1063c8000308780011009800210098003200980016
:1063d8009f0d0700000006000080fb004400de005f
:1063e800e94f5000020036007043b000010037004a
:1063f8000043b000000006006f406000e94f500005
:10640800020036007043b000010037000043b000be
:1064180000000600881f78000004780028409000db
:106428000074a00020449800180178000200e000e1
:106438000400320031052000810f510027003a0086
:106448000c00370081417800b2022100034978002e
:10645800118080008100e80061818800020420002a
:10646800828f500001003a002c30ef0031052000e7
:10647800010c78000028a3000400320040c0b300db
:106488002044980030c0b3001800370061818000b4
:1064980022808000810f5100030032000004a10017
:1064a80020449800020037000004a000204498000f
:1064b800284190000040eb000208a3000b003a00be
:1064c8000000210010814000b302210093417800b0
:1064d8000349780011009800340d070080c0b3000c
:1064e80020449800000ceb0030c0b3004f04780043
:1064f80000000600889fbe000004780081447800f0
:10650800284090000074a0002044980018007800eb
:106518000000e00004003200a1062000810f5000b6
:106528003f003a001900370001c3b30000c621003c
:106538000148780081c7b3000000e80001487800ee
:1065480009407800a4ff070021c621008048780090
:1065580009407800a8ff070031c62100804878006c
:106568000100e8000048eb002a70ef000210ec0080
:106578004081880001042000810f500001003a008a
:106588002830ef00a0062000000c7800284090007a
:106598000028a3000400320040c0b3002044980043
:1065a80030c0b30022003700418180002280800083
:1065b800810f5100030032000004a100204498001c
:1065c800020037000004a0002044980028419000f1
:1065d8000040eb000208a30015003a00000021006b
:1065e80090814000a2022100124178000282fb0043
:1065f80005c6210004824200944978000241e8005f
:1066080002427800a3022100844978001100980012
:10661800e60c07002ad0bf00e34f5000d3ff360036
:1066280080c0b30020449800000ceb0030c0b300d9
:106638004f04be0000000600881f780000047800a0
:10664800284090000074a0002044980018007800aa
:106658000000e0000400320041082000810f5000d3
:1066680067003a00410037002670ef0030c6b300db
:1066780080cf50000a0036000181fb004211de0085
:10668800b04721000011b8000301d100b0c52100b6
:1066980003c3b3000348410010c0b30026f0b7009d
:1066a800e9cf50001400360026d0bf000081fb005f
:1066b800b3c52100828141000181fb00c212de00c6
:1066c800b4472100042ab8008502d10044062000fe
:1066d80084aab900040151000281fb00d5cc2c002a
:1066e8000512b8004329de0004c3b3008449410001
:1066f8000040e80026f0b70062022100124178004d
:106708008281fb00b0c52100830140008180fb002d
:10671800d4cc2c00040ab800432ade00ea22b900cf
:106728008480500004c3b30084c940008240e8005c
:1067380062022100014978008180fb0001004000cd
:106748000048eb002770ef002a0037000210ec0029
:106758002081880001042000810f500001003a00c8
:106768002430ef0040082000000c780028409000fa
:106778000028a3000400320040c0b3002044980061
:1067880030c0b300220037002181800024808000bf
:10679800810f5200030032000004a1002044980039
:1067a800020037000004a00020449800284190000f
:1067b8000040eb000208a30015003a000000210089
:1067c8009081400072022100124178000282fb0091
:1067d800b5c5210004824200944978000241e800ce
:1067e8000242780073022100844978001100980061
:1067f8006e0c070027d0bf002650e300d3ff3e00f1
:1068080080c0b30020449800000ceb0030c0b300f7
:106818004f04780000000600889fbe008a9fbe00d3
:106828008c1f7800000678000204be002c409000ff
:106838000074a000204698001c0078000000e000ca
:1068480004003200410a2000810f50005f003a0026
:106858003900370001c3b30000c5210001487800a2
:1068680081c7b3000000e80001487800481dde0039
:106878000b0020000a407800d7fe070021c5210040
:10688800804878000a407800dbfe070031c5210007
:1068980080487800404dde000b0020000a40780058
:1068a800cdfe070041c52100804878000a407800e5
:1068b800d1fe070051c5210080487800c84dde0090
:1068c8004848dd004845de000a0570000a407800a7
:1068d800c1fe070061c52100804878000a407800a1
:1068e800c5fe070071c5210080487800084078007f
:1068f800b9fe070081c5210080487800084078006b
:10690800bdfe070091c52100804878000100e8001d
:106918000048eb002270ef000210ec0000818800b4
:1069280001042000810f500001003a002030ef00e0
:10693800400a2000000e78002c4090000028a30098
:106948000400320040c0b3002046980030c0b300b5
:10695800220037000181800022808000810f5100d1
:10696800030032000004a10020469800020037000e
:106978000004a000204698002c4190000040eb0045
:106988000208a30015003a00000021009081400091
:1069980022022100124178000282fb0005c5210075
:1069a80004824200944978000241e80002427800db
:1069b800230221008449780011009800fb0b07008e
:1069c80022d0bf00e94f5000d3ff360080c0b3008b
:1069d80020469800000eeb0030c0b3004f06780048
:1069e8004f05be004f04be0000000600881f780057
:1069f80000047800284090000074a000204498000b
:106a0800180078000000e00004003200910b20001c
:106a1800810f500033003a000e00370082417800a1
:106a2800c001210003487800d18088001d70ef0064
:106a38002a0037000210ec00f080880001042000d2
:106a4800810f500001003a001e30ef00900b20002b
:106a5800000c7800284090000028a30004003200b1
:106a680040c0b3002044980030c0b3002100370074
:106a7800f180800024808000810f520003003200e2
:106a88000004a10020449800020037000004a00080
:106a980020449800284190000040eb000208a30021
:106aa80014003a000200210012824000d3012100a4
:106ab800934178000380fb001a10b400104a780054
:106ac8008341e80003427800d0012100044878009f
:106ad80011019800b50b07001c70ed001c50e20076
:106ae800d4ff3a0080c0b30020449800000ceb00ab
:106af80030c0b3004f04780000000600a0419000a9
:106b08000374a00023409800900178000300e0007f
:106b180004003200d40c2000848f510034003a0065
:106b2800070037005301210082497800b1808800ae
:106b38001870ef002a003700d30c200003087800f3
:106b4800a04190000328a3000400320041c0b30014
:106b58002140980033c0b300290037008400210089
:106b68009402900024029000848f520003003200a7
:106b78000304a10023409800020037000304a0008a
:106b880023409800204290008041eb000408a300b5
:106b98001b003a000c30ec000304200065808000e4
:106ba800838f520001003a000c30ef00830121006e
:106bb8009341780084002100940278002402900018
:106bc800848242000382fb0004824000154a780058
:106bd8008341e8008342780084012100054a780057
:106be800830121009341780082cf5100d2ff390000
:106bf80081c0b300214098000008eb0033c0b30007
:106c08000340780000000600204190000274a000b4
:106c180022409800100178000200e00004003200d1
:106c2800e30d2000830f51003a003a0003003700bb
:106c38001470ef00e20d2000020878002041900057
:106c48000228a3000400320041c0b300214098008c
:106c580032c0b300330037008300210013029000d4
:106c6800a3019000830f5200030032000204a10028
:106c780022409800020037000204a0002240980039
:106c8800a04190000041eb000308a30025003a0052
:106c98000c30ec000204200063808000828f5100d9
:106ca80001003a000c30ef004301210093417800c5
:106cb80082002100120278002201900002014200a5
:106cc800124178000382fb0004824000024a7800e7
:106cd800ea4f51000a003200ed4f5100080032001f
:106ce8000204e000060032008341e800440121006c
:106cf800034a7800e2c3b30082cf5100cdff3600cb
:106d080042012100124178000281fb00828040008c
:106d18008048eb0081c0b300214098000008eb00d8
:106d280032c0b3000240780000000600881f7800d7
:106d380000047800284090000074a00020449800c7
:106d4800180078000000e00004003200210f200045
:106d5800810f500029003a000a003700818088001e
:106d6800230037000210ec00908088000104200006
:106d7800810f500001003a001230ef00200f200070
:106d8800000c7800284090000028a300040032007e
:106d980040c0b3002044980030c0b3001b00370047
:106da8009180800022808000810f51000300320012
:106db8000004a10020449800020037000004a0004d
:106dc80020449800284190000040eb000208a300ee
:106dd8000e003a000200210092814000808080006d
:106de800b04978008080880011019800ef0a0700f8
:106df800808080001004e000daff3a0080c0b30011
:106e080020449800000ceb0030c0b3004f04780019
:106e180000000600804178000210ec000104200008
:106e2800810f500001003a000000eb000410e3005d
:106e3800feff3200010021001101400003497800e3
:106e480090009800d90a070000000600889fbe003d
:106e58008a1f7800904078000104e0001100320099
:106e680000047800090420000005eb000210ec0083
:106e7800890f500001003a000a0078000410e3006e
:106e8800feff320002002100920140008149780093
:106e980010019800c50a0700d84078000104e000f6
:106ea800f2ff3a004f0578004f04be0000000600cc
:106eb800800021009000900020009000808f5000fa
:106ec800fbff32000c30ec00000420000c10e30043
:106ed80001003a000c30ef0080002100900078009b
:106ee800200090000080400010407800000006005c
:106ef8008000780023032100934178000000eb0014
:106f0800efcf510058003e0005c28000818f52002b
:106f180014003200248521000043eb00064078006d
:106f28000641780017c0b3000400370094027800c7
:106f380072024200818f52000c0032000604e00009
:106f480004003a000500e00002003a000240780020
:106f5800074378000241e800f04f5100f3ff3a0080
:106f6800420037000040eb00004178008280fb00bf
:106f7800c4832100f20bb900860342008002eb00b3
:106f8800850b78008483e80086834300854b78006e
:106f980006034200060b90001603780025039800ac
:106fa8008382fb00c695210085024300824a78004f
:106fb8008341e800834278002203210005497800d4
:106fc8000080fb00f201b900020242007401900047
:106fd8000200e00007003a00a28180000201e800f8
:106fe800a2818800f200b900a384210003004000b8
:106ff80002087800f209b900c083210000004100ae
:1070080019003700c483210022c1b3000440bc002a
:1070180082024200a10298008000eb00810a7800f9
:107028000483e80002034300014b7800050990003f
:1070380012017800210198008380fb00c29521008d
:1070480081004100804878008341e800834078004f
:1070580020032100014878003410ec00a08188004a
:10706800f002980005007800000006000604e00021
:10707800e4ff3a000000eb00fbff37000003780054
:1070880024032100144278000040eb000404e000cf
:1070980018003200b39521008000eb00c78321005f
:1070a8005340780000c1e800e14f51000d00360060
:1070b80022c1b3000440bc000280430020009000bd
:1070c800860f500007003a00c09521008102400059
:1070d800e0cfb300804a78003010a80010c0b30099
:1070e800040037008100e800814f5200ecff3e00a9
:1070f8000040eb0000000600000378002503210093
:10710800954278000000eb000504e0001100320011
:10711800b39521008040eb00c483210053407800e0
:1071280000c1e800e14f51000600360022c1b3005b
:107138000440bc000400410020019000860f51006b
:10714800040032008140e80085cf5000f3ff390089
:107158000000eb0000000600000378002503210072
:10716800954278000000eb000504e00011003200b1
:10717800b39521008040eb00c48321005340780080
:1071880000c1e800e14f51000600360022c1b300fb
:107198000440bc000400410070019000860f5100bb
:1071a800040032008140e80085cf5000f3ff390029
:1071b8000000eb000000060060cb80000000e0004b
:1071c80005003200e1972100100020001100e000c6
:1071d80006003a00010037000000eb00f200b90099
:1071e800c196210001004000050037000000e800ba
:1071f800f2804000f00f5000f4ff3a000000eb006e
:1072080000000600d0818800e181880000000600a7
:10721800d0818000e181800092e52b00828ab9004c
:10722800661a24008683b900060242000201b800eb
:1072380083014200400ade0005002000711a240084
:1072480081abb9000120b80081004300cf0ade00fd
:10725800410bdd004f02de0004027300040141000f
:107268008581490000f0a1008000eb00c002dd002c
:10727800040020000200420083804a0004003b0012
:10728800120020000300280000004100818049000e
:10729800d0818800e181880000000600889fbe0038
:1072a80081004000810f50002300310052dc29008a
:1072b800c3112800c812dd000400200002044100a8
:1072c80083844900441bdd00cc13de008703730070
:1072d8004413dd000804430089844b00080441007e
:1072e80089844900471bdd00c913de00870373004a
:1072f8004713dd000804430089844b00481bdd0068
:10730800c813de00870373004813dd00080143003b
:1073180089814b000201420083814a003082fb00d0
:107328008002eb000401690085816900808f5000ac
:10733800e0ff3e000200370052dc2900c31128009c
:1073480002816900020078004f04be0000000600b8
:1073580081004000810f50002600310082838000a8
:10736800938380000203410083834900441add00af
:10737800cc12de00850272004412dd0006024200d3
:1073880087824a000402410085824900471bdd00cc
:10739800c913de00870373004713dd0004024300ae
:1073a80085824b00481bdd00c813de00870373008d
:1073b8004813dd000402430085824b00c811dd003c
:1073c8000200200004014100858149008283880071
:1073d800938388003082fb008002eb00040169007f
:1073e800858169008283880093838800808f50009c
:1073f800daff3e0080838000918380000000060051
:107408001004e0002600320082838000938380000d
:107418000203410083834900441add00cc12de00d8
:10742800850272004412dd000602420087824a008b
:107438000402410085824900471bdd00c913de00b4
:10744800870373004713dd000402430085824b0065
:10745800481bdd00c813de00870373004813dd00f6
:107468000402430085824b00c811dd0002002000a1
:107478000401410085814900828388009383880044
:107488001082fb008002eb0004016900858169001d
:1074980082838800938388005004e000daff3a0072
:1074a80080838000918380000000060000806800cf
:1074b8000000060000c1b30000000600889fbe005f
:1074c8008a9fbe000004be000205be00000a070035
:1074d8000801500089815800880f5000898f580092
:1074e8000200310061015100e081590010002000c4
:1074f8008a0f51008b8f590001003e000000eb00fd
:107508004f05be004f04be0000000600889fbe0065
:107518008a9fbe0069032100994478000904e000ad
:10752800210032000044eb001b002000caa8210003
:107538000880fb008058dd00c28180008100610066
:1075480015003200ea02b900e60042008100450059
:107558000083eb008083eb0031014300a1814b00e5
:10756800040245003202980043029800e00f5100df
:10757800e08f590007003a0084007800110190005c
:10758800a1019000b2009800c30098001100780093
:10759800000001008944e9000904e000020032000b
:1075a8000844e800e2ff37004f05be004f04be0064
:1075b80000000600889fbe008a9fbe000205be002c
:1075c800690321009944780080c2eb00efcf540092
:1075d80021003e00c68180000608a3000900320091
:1075e8008000eb00170020008142e8008100e800dd
:1075f800010478008139dd000682610013003a0039
:1076080003003700130020000004eb008042eb0069
:10761800ea44b900c1a82100088440008800780025
:10762800801878008a88be003a0498004b049800b5
:107638008944e80089407800600321000148780007
:1076480003037300c681880003003700ef8f5000e2
:10765800e5ff3a0080c2eb00054078004f05be0008
:107668004f04be00000006008081fb0012002000cd
:107678000311dd00c1818000010261000040eb00c0
:1076880009003200ea18b900c3a82100808141002e
:107698008009eb003670ed000281ea00010061000c
:1076a800c081880010c0b300000006000003780005
:1076b800630321009341780000c0eb000304e0005d
:1076c80012003200c58180000040eb001400200049
:1076d800c7a821008080fb000121dd0005016100b1
:1076e80005003200ea09b90082804300910f1300b7
:1076f800060032008341e9000304e0000200320082
:107708000040e800f3ff370000c0eb00000006006f
:107718000202be008080fb00130020008119dd00fa
:10772800c0818000830160000040eb00050032004a
:10773800ea08b900e2a82100820040008488be005f
:1077480010c0b30000000600889fbe008a9fbe00dc
:107758008c9fbe008e1f780009842100bd952100f2
:107768000a972100cb072100cc0b21000004eb0075
:107778000b0778000000eb00800c780080eeeb002f
:10778800000d78004240dd000e004000e004980043
:10779800c340dd00c2b22100828d40008c00780019
:1077a8004c0607000804e800f2844400720545000e
:1077b800e48545008c07b000f00f5400edff3a0057
:1077c8003830ef00c0a82100020a20000001410063
:1077d8008000eb00010878006a004000820f50002a
:1077e800fcff3a003270ef003370ef003670ef00a4
:1077f80000012000d08188003c30ef0028090700f4
:1078080005090700e4fa07002ef707004f0778007c
:107818004f06be004f05be004f04be000000060024
:10782800889fbe008a9fbe008c9fbe008e1f780076
:10783800c5ff07003430ef00be952100c983210041
:107848008e06e8002c0321001c4678000c04e0009a
:10785800110032008e0578000044eb005b85fb00c8
:10786800f250b9008080440001007800a100900027
:1078780001000100e34f500004003a00f255b9003e
:107888000a8544002a009000fcfd07000844e8002f
:10789800884f5600f1ff3e00838180000308a30053
:1078a800e8ff320022032100124178000280fb0029
:1078b80000804600e1cfb30090cf10000f003a00df
:1078c8000240e800804f5600070036008080fb0029
:1078d8008180460011427800f4f89f000040e800db
:1078e800804f5600f9ff3e000c80fb0000804600e8
:1078f80080c0eb0071f89f000c46e9000204e0002c
:10790800020032000241e900e8ff37000c4078002d
:1079180032f0b7000300a10083818800c9ff370057
:10792800000178008001eb00909e2e0001002000ed
:107938000dec070066015000e08158002210880015
:1079480007e2a80000000600204290000474a0008e
:10795800244098009001780025052000858f51006b
:107968002800320006003e000300e0000b00320051
:1079780002052000828f510068003a000c00370091
