:020000040000fa
:080000000013040000000000e1
:020000040000fa
:1000080002100000061000000a1000000e10000088
:1000180012100000161000001a1000001e10000038
:1000280022100000261000002a1000002e100000e8
:1000380032100000361000003a1000003e10000098
:1000480042100000461000004a1000004e10000048
:1000580052100000561000005a1000005e100000f8
:1000680062100000661000006a1000006e100000a8
:1000780072100000761000007a1000007e10000058
:1000880082100000861000008a1000008e10000008
:1000980092100000961000009a1000009e100000b8
:1000a800a2100000a6100000aa100000ae10000068
:1000b800b2100000b6100000ba100000be10000018
:1000c800c2100000c6100000ca100000ce100000c8
:1000d800d2100000d6100000da100000de10000078
:1000e800e2100000e6100000ea100000ee10000028
:1000f800f2100000f6100000fa100000fe100000d8
:1001080002110000061100000a1100000e11000083
:1001180012110000161100001a1100001e11000033
:1001280022110000261100002a1100002e110000e3
:1001380032110000361100003a1100003e11000093
:1001480042110000461100004a1100004e11000043
:1001580052110000561100005a1100005e110000f3
:1001680062110000661100006a1100006e110000a3
:1001780072110000761100007a1100007e11000053
:1001880082110000861100008a1100008e11000003
:1001980092110000961100009a1100009e110000b3
:1001a800a2110000a6110000aa110000ae11000063
:1001b800b2110000b6110000ba110000be11000013
:1001c800c2110000c6110000ca110000ce110000c3
:1001d800d2110000d6110000da110000de11000073
:1001e800e2110000e6110000ea110000ee11000023
:1001f800f2110000f6110000fa110000fe110000d3
:1002080002120000061200000a1200000e1200007e
:1002180012120000161200001a1200001e1200002e
:1002280022120000261200002a1200002e120000de
:1002380032120000361200003a1200003e1200008e
:1002480042120000461200004a1200004e1200003e
:1002580052120000561200005a1200005e120000ee
:020000040000fa
:10200000020000000e140400000000000e14040082
:10201000000000000e140400000000000e14040074
:10202000000000000e140400000000000e14040064
:10203000000000000e140400000000000e14040054
:10204000000000000e140400000000000e14040044
:10205000000000000e140400000000008c140400b6
:10206000000000000e140400000000000e14040024
:10207000000000000e140400000000000e14040014
:10208000000000000e140400000000000e14040004
:10209000000000000e140400000000006a14040098
:1020a000000000003e140400000000000e140400b4
:1020b000000000000e140400000000000e140400d4
:1020c000000000000e140400000000000e140400c4
:1020d000000000000e140400000000000e140400b4
:1020e000000000000e140400000000000e140400a4
:1020f000000000000e140400000000000e14040094
:10210000000000000e140400000000000e14040083
:10211000000000000e140400000000000e14040073
:10212000000000000e140400000000000e14040063
:10213000000000000e140400000000000e14040053
:10214000000000000e140400000000000e14040043
:10215000000000000e140400000000000e14040033
:10216000000000000e140400000000000e14040023
:10217000000000000e140400000000000e14040013
:10218000000000000e140400000000000e14040003
:10219000000000000e140400000000000e140400f3
:1021a000000000000e140400000000000e140400e3
:1021b000000000000e140400000000000e140400d3
:1021c000000000000e140400000000000e140400c3
:1021d000000000000e140400000000000e140400b3
:1021e000000000000e140400000000000e140400a3
:1021f000000000000e140400000000000e14040093
:10220000000000000e140400000000000e14040082
:10221000000000000e140400000000000e14040072
:10222000000000000e140400000000000e14040062
:10223000000000000e140400000000000e14040052
:10224000000000000e140400000000000e14040042
:10225000000000000e140400000000000e14040032
:10226000000000000e140400000000000e14040022
:10227000000000000e140400000000000e14040012
:10228000000000000e140400000000000e14040002
:10229000000000000e140400000000000e140400f2
:1022a000000000000e140400000000000e140400e2
:1022b000000000000e140400000000000e140400d2
:1022c000000000000e140400000000000e140400c2
:1022d000000000000e140400000000000e140400b2
:1022e000000000000e140400000000000e140400a2
:1022f000000000000e140400000000000e14040092
:10230000000000000e140400000000000e14040081
:10231000000000000e140400000000000e14040071
:10232000000000000e140400000000000e14040061
:10233000000000000e140400000000000e14040051
:10234000000000000e140400000000000e14040041
:10235000000000000e140400000000000e14040031
:10236000000000000e140400000000000e14040021
:10237000000000000e140400000000000e14040011
:10238000000000000e140400000000000e14040001
:10239000000000000e140400000000000e140400f1
:1023a000000000000e140400000000000e140400e1
:1023b000000000000e140400000000000e140400d1
:1023c000000000000e140400000000000e140400c1
:1023d000000000000e140400000000000e140400b1
:1023e000000000000e140400000000000e140400a1
:1023f000000000000e140400000000000e14040091
:10240000000000000e140400000000000e14040080
:10241000000000000e140400000000000e14040070
:10242000000000000e140400000000000e14040060
:10243000000000000e140400000000000e14040050
:10244000000000000e140400000000000e14040040
:10245000000000000e140400000000000e14040030
:10246000000000000e140400000000000e14040020
:10247000000000000e140400000000000e14040010
:10248000000000000e140400000000000e14040000
:10249000000000000e140400000000000e140400f0
:1024a000000000000e140400000000000e140400e0
:1024b000000000000e140400000000000e140400d0
:0424c0000000000018
:020000040000fa
:102600008fd421000eff27000e018800000000007b
:10261000000020000000e000020032000001200065
:102620002002880014000700ce0007000000e00030
:1026300003003a00e0e0240001002000020037001f
:102640000000200001002000810f70000100320016
:102650000f000700000020000000e0000200320030
:102660000000020000000000923d02000000000097
:102670000040da000000fe00808e20000000e00034
:1026800002003200002020009001880000000600b7
:10269000a1028800800478000000eb001f003700d2
:1026a000e284440054a0b4009905ba00e2844400d6
:1026b00054a0b4009906ba00e284440054a0b400c7
:1026c0000006eb00476fde00fd07b200ae01880098
:1026d000636ce10003003a000ad801000000eb003f
:1026e0000e003700606ce10008003a00004deb007e
:1026f0000a05e800020039003420ec000af0a000ce
:102700008b05e900f9ff3e00040037006168e10035
:10271000010032000086eb000b00070019c7ba0069
:102720000e04e0001905ba0003003a000a00e000b8
:10273000dbff3a0000000600fe07b200ae02880090
:102740008a047800f5ff37000cd0a300e20f4d009b
:102750001c00390089027800354dba000a05e800ee
:10276000020039003420ec000af0a0008b05e900db
:102770000f003200254dba000a05e80002003900ba
:102780003420ec000af0a0008b05e90008003200bc
:102790000c00e0000600320015cdba000a05e80082
:1027a000020039003420ec000af0a0008b05e9009b
:1027b0008984e80054a0b4000b00e000e2ff3a0076
:1027c000000006009902ba00055d78008b05e9005b
:1027d000f7ff3200c82ade00055d78008b05e900ae
:1027e000f3ff32000c00e000f1ff320019ddba0007
:1027f000eeff3700a21f040000000000a42b04001d
:10280000000000007a1e040000000000762c040086
:1028100000000000aa220400000000003600f800ba
:10282000809fbe00829fbe00849fbe00869fbe0028
:102830003200f8003400f80010002000a0018800e9
:10284000002020009001880000000000c808f80067
:102850007010f900404d2900ce1707003400f90030
:102860003200f9004f03be004f02be004f01be0010
:102870004f00be003600f90000400600809fbe00f9
:10288000000021009000900020009000808f5000f8
:1028900002003a002188a9000c0037000430ec0047
:1028a000000420000410e30001003a000430ef00af
:1028b0000188a9000000210090007800200090000d
:1028c000008040001080fb00201188004f00be00f7
:1028d00000400600809fbe00821f78000168a900aa
:1028e000311180000a30ec00000420000a10e300df
:1028f00001003a000a30ef0080002100100178004a
:102900001000900000004100014878004f0178005d
:102910004f00be00004006003600f800809fbe0059
:10292000829fbe00849fbe00869fbe0010838000f1
:102930002183800061004000e0804800108388000f
:10294000218388000068a900b11307004f03be006f
:102950004f02be004f01be004f00be003600f9001e
:1029600000400600000005006022b80006022000ba
:102970000000d0008180d2000482d2008582d20083
:102980000000a0000202520083825a0003003100be
:102990000202420083824a000000a1000603e9000f
:0829a000f3ff3a0000000600fd
:020000040000fa
:1029a800556e0000686100006e6400006c650000f0
:1029b80064200000696e00007465000072720000f7
:1029c80075700000742c0000200000006473000083
:1029d80050490000433300003345000050350000e3
:1029e8003132000047500000383000003600000047
:1029f800756e00006b6e00006f7700006e000000bf
:102a08004231000000440000657600006963000060
:102a18006520000049440000203d0000200000001f
:102a280020280000002900002c200000726500000a
:102a380076690000736900006f6e000020000000d6
:102a4800290a0000000a00000a2a00002a2a0000b9
:102a58002a2a00002a2a00002a2a00002a2a00001e
:102a68002a2a00002a2a00002a2a00002a2a00000e
:102a78002a2a00002a2a00002a2a00002a2a0000fe
:102a88002a2a00002a2a00002a2a00002a2a0000ee
:102a98002a2a00002a2a00002a2a00002a2a0000de
:102aa8002a2a00002a2a00002a2a00002a2a0000ce
:102ab8002a2a00002a0a00002a20000057410000a4
:102ac800524e0000494e0000472000002d20000013
:102ad800746800006973000020700000726f0000c5
:102ae80067720000616d00002077000061730000cc
:102af800206300006f6d0000706900006c650000c5
:102b080064200000666f00007220000074680000f6
:102b180065200000777200006f6e000067200000db
:102b2800202a00000a2a00002063000068690000cb
:102b3800702e000020540000686900007320000017
:102b4800707200006f670000726100006d20000065
:102b58006d61000079200000707200006f64000051
:102b68007563000065200000756e00006578000040
:102b78007065000063740000656400002062000056
:102b880065680000766900006f720000212000006f
:102b98002a0a00002a200000456400006974000029
:102ba800207400006865000020680000656100006e
:102bb8006465000072200000666900006c65000012
:102bc80073200000746f000020700000726f000016
:102bd80070650000726c00007920000064650000d8
:102be800666900006e6500002074000068690000d6
:102bf800732000006368000069700000202a00004c
:102c08000a2a0000206100006e64000020740000a1
:102c18006f200000696e0000737500007265000087
:102c2800206300006f72000072650000637400008a
:102c3800206f000070650000726100007469000078
:102c48006f6e00002e2000002020000020200000d1
:102c5800202000002020000020200000202000006c
:102c68002020000020200000202000002a0a000068
:102c78002a20000020200000202000002020000042
:102c8800202000002020000020200000202000003c
:102c9800202000002020000020200000202000002c
:102ca800202000002020000020200000202000001c
:102cb800202000002020000020200000202000000c
:102cc80020200000202000002020000020200000fc
:102cd8002020000020200000202a00000a2a0000ee
:102ce800204e00004f540000453a000020490000e3
:102cf80066200000746800006973000020770000f7
:102d080061730000206300006f6d000070690000af
:102d18006c65000064200000666f000072200000ef
:102d28007468000065200000636f00007272000084
:102d3800656300007420000063680000697000008b
:102d48002c200000202000002a0a00002a20000071
:102d5800616e0000642000006f6e00006c79000056
:102d6800206f00006363000075720000732000008c
:102d780061740000207000006f7700006572000029
:102d88002d6f00006e200000286e00006f74000098
:102d98002064000075720000696e00006720000062
:102da800612000004d4300004c520000202000002c
:102db80020200000202a00000a2a000020720000bb
:102dc8006573000065740000292c0000207600005f
:102dd80065720000696600007920000074680000d0
:102de80061740000204100005644000044200000a7
:102df800616e00006420000041560000535300003b
:102e08002061000072650000206300006f6e000002
:102e18006e65000063740000656400002e200000e9
:102e2800202000002a0a00002a2000004f6e00001f
:102e3800207400006865000020500000494300002d
:102e4800323400004833000032470000503200009e
:102e5800303200002c2000006e6f0000742000004b
:102e6800636f00006e6e0000656300007469000007
:102e78006e67000020410000564400004420000016
:102e8800202000002020000020200000202000003a
:102e9800202a00000a2a000020700000726f00003b
:102ea800647500006365000073200000746800000a
:102eb80069730000206d00006573000073610000f5
:102ec80067650000206f00006e6c0000792000002c
:102ed80061740000207000006f77000065720000c8
:102ee8002d750000702e000020200000202000001a
:102ef80020200000202000002020000020200000ca
:102f08002a0a00002a2a00002a2a00002a2a000089
:102f18002a2a00002a2a00002a2a00002a2a000059
:102f28002a2a00002a2a00002a2a00002a2a000049
:102f38002a2a00002a2a00002a2a00002a2a000039
:102f48002a2a00002a2a00002a2a00002a2a000029
:102f58002a2a00002a2a00002a2a00002a2a000019
:102f68002a2a00002a2a00002a2a00002a2a000009
:102f78000a0000004661000073740000205200003f
:102f8800432000004f730000630a00000046000061
:102f9800617300007420000052430000204f0000bd
:102fa8007363000020770000697400006820000047
:102fb800504c00004c0a00000050000072690000ec
:102fc8006d61000072790000204f000073630000fb
:102fd80020280000585400002c200000485300000e
:102fe8002c20000045430000290a00000050000082
:102ff800726900006d61000072790000204f0000c6
:103008007363000020280000585400002c200000a2
:10301800485300002c2000004543000029200000f0
:103028007769000074680000205000004c4c0000d4
:103038000a00000053650000636f00006e64000022
:1030480061720000792000004f730000630a0000dd
:10305800004c00006f770000205000006f770000e0
:103068006572000020520000432000004f730000ea
:10307800630a00000046000061730000742000002d
:1030880052430000204f0000736300002f310000fe
:10309800360a00000046000061730000742000003a
:1030a80052430000204f0000736300002f4e0000c1
:1030b8000a000000556e00006b6e00006f7700007c
:1030c8006e2000006f730000636900006c6c0000e4
:1030d800617400006f7200002074000079700000b5
:1030e800652e0000000a00004465000076690000b3
:1030f8006365000020680000617300002062000022
:10310800656500006e200000696e000020730000f5
:103118006c65000065700000206d00006f640000a1
:10312800650a0000000a0000446500007669000096
:1031380063650000206800006173000020620000e1
:10314800656500006e200000696e000020690000bf
:10315800646c0000652000006d6f0000646500006d
:103168000a0000000a520000657300006574000040
:103178002063000061750000736500003a200000bc
:10318800005000006f770000657200002d6f00008e
:103198006e2e00000a000000536f000066740000e5
:1031a800776100007265000020520000657300001e
:1031b800657400002e0a00000057000061740000ca
:1031c80063680000646f0000672000005469000015
:1031d8006d6500006f750000743a00002000000063
:1031e8000a0000004d4300004c520000206100001e
:1031f8007373000065720000746900006f6e000050
:103208002e0a000000420000726f0000776e000076
:103218002d6f0000757400002e0a00000054000095
:103228007261000070200000436f00006e660000ad
:103238006c690000637400002e0a00000049000059
:103248006c6c000065670000616c000020430000a2
:103258006f6e000064690000746900006f6e000002
:103268002e0a0000004300006f6e0000666900002f
:103278006775000072610000746900006f6e0000dd
:10328800204d0000697300006d6100007463000048
:10329800682e00000a000000556e00006b6e0000ea
:1032a8006f7700006e2000007265000073650000f3
:1032b800742e00000a00000045720000726f0000c2
:1032c80072200000747200006170000070650000d8
:1032d800643a00002000000050720000696f00008e
:1032e80072690000747900003a200000002c000088
:1032f8002056000065630000746f00007220000013
:103308006e7500006d620000657200003a200000d2
:10331800000a00000a000000535700003120000096
:10332800507200006573000073650000642e000091
:103338000a000000535700003220000050720000bd
:103348006573000073650000642e00000a00000029
:1033580053570000332000005072000065730000ce
:1033680073650000642e00000a000000525000003f
:103378004720000069730000207400007572000087
:103388006e6900006e670000205300006c6f00003b
:10339800776c0000792e00000a00000052500000ef
:1033a8004720000069730000207400007572000057
:1033b8006e6900006e670000204d00006564000023
:1033c800697500006d2e00000a00000052500000d0
:1033d8004720000069730000207400007572000027
:1033e8006e6900006e6700002046000061730000ef
:1033f800742e00000a00000053570000312000001e
:10340800646f0000756200006c65000020700000a9
:103418007265000073730000656400002e0a0000e6
:103428000053000057320000206400006f75000050
:10343800626c000065200000707200006573000077
:1034480073650000642e00000a0000005357000056
:1034580033200000646f0000756200006c65000096
:10346800207000007265000073730000656400003e
:103478002e0a0000002e00000a0000000a5000007a
:10348800696300006b200000612000007661000085
:103498006c75000065200000746f00002063000058
:1034a800686100006e670000652e00000a61000078
:1034b800202d00002053000077690000746300008d
:1034c8006820000031200000446f00007562000091
:1034d8006c650000205000007265000073730000e6
:1034e8002050000065720000696f0000640a000047
:1034f800622000002d20000053770000697400004e
:103508006368000020320000204400006f7500004e
:10351800626c0000652000005072000065730000b6
:103528007320000050650000726900006f6400009d
:103538000a630000202d0000205300007769000076
:10354800746300006820000033200000446f00000e
:10355800756200006c650000205000007265000074
:10356800737300002050000065720000696f00004e
:10357800640a0000642000002d2000005250000062
:1035880047200000466100007374000020540000ca
:103598006872000065730000686f00006c640000ca
:1035a8000a650000202d000020520000504700004e
:1035b800204d000065640000697500006d20000062
:1035c8005468000072650000736800006f6c0000aa
:1035d800640a0000662000002d2000005250000000
:1035e80047200000536c00006f7700002054000053
:1035f8006872000065730000686f00006c6400006a
:103608000a0000000a4500006e74000065720000a0
:1036180020610000206e0000657700002076000021
:10362800616c000075650000206900006e200000d4
:103638006d6900006c6c0000697300006563000030
:103648006f6e0000647300002e0a0000000a00007c
:103658004245000045500000204200004f50000045
:10366800204200004f4f0000502e0000205600005e
:10367800616c000075650000207700006173000030
:1036880020630000686100006e6700006564000048
:10369800207400006f200000000a0000424500006e
:1036a80045500000204200004f500000204200001a
:1036b800525200005252000052520000522e000096
:1036c800204900006e760000616c0000696400000b
:1036d80020760000616c000075650000210a00007a
:1036e800000a000062750000696c0000645c00005c
:1036f800657300006f7300005f6500006d62000075
:103708006564000064650000644600003134000010
:103718005f330000334500005035000031320000af
:103728004750000038300000365c00006368000035
:1037380061700000313400005c740000335f0000e9
:1037480061700000702e0000632c000020620000f1
:10375800756900006c740000206f00006e20000086
:103768005365000070200000323500002032000050
:103778003032000030200000617400002031000069
:10378800323a0000343600003a330000300a0000b4
:103798000000000055410000525400003120000094
:1037a80070610000726900007479000020650000f3
:1037b800727200006f7200000a000000554100009c
:1037c800525400003120000066720000616d000054
:1037d800696e00006720000065720000726f0000cb
:1037e800720a0000005500004152000054310000e8
:1037f800206f00007665000072720000756e000090
:1038080020650000727200006f7200000a0000005c
:103818005541000052540000322000007061000041
:10382800726900007479000020650000727200005f
:103838006f7200000a000000554100005254000059
:103848003220000066720000616d0000696e0000a1
:103858006720000065720000726f0000720a0000a5
:10386800005500004152000054320000206f000053
:103878007665000072720000756e00002065000019
:10388800727200006f7200000a00000055410000cb
:10389800525400003320000070610000726900007b
:1038a8007479000020650000727200006f720000d9
:1038b8000a00000055410000525400003320000067
:1038c80066720000616d0000696e000067200000ec
:1038d80065720000726f0000720a00000055000057
:1038e8004152000054330000206f0000766500004c
:1038f80072720000756e0000206500007272000090
:103908006f7200000a000000554100005254000088
:1039180034200000706100007269000074790000b2
:1039280020650000727200006f7200000a0000003b
:103938005541000052540000342000006672000017
:10394800616d0000696e000067200000657200006c
:10395800726f0000720a000000550000415200001a
:1039680054340000206f0000766500007272000079
:10397800756e000020650000727200006f72000012
:103988000a00000030780000004500007272000054
:103998006f720000206900006e2000006275000050
:1039a800696c0000645c0000657300006f730000c0
:1039b8005f6500006d6200006564000064650000da
:1039c80064460000313400005f33000033450000d6
:1039d80050350000313200004750000038300000f8
:1039e800365c00006c690000625c000073720000c5
:1039f800635c00007069000063320000345f0000ff
:103a08007365000072690000616c00002e6300009d
:103a1800206c0000696e000065200000323900004b
:103a2800363a0000204900006e760000616c000004
:103a38006964000020550000415200005400000055
:103a480045720000726f000072200000696e00006d
:103a580020620000756900006c6400005c6500006d
:103a6800736f0000735f0000656d00006265000001
:103a7800646400006564000046310000345f0000a3
:103a88003333000045500000353100003247000054
:103a980050380000303600005c6c0000696200009d
:103aa8005c730000726300005c70000069630000d2
:103ab800323400005f730000657200006961000025
:103ac8006c2e0000632000006c6900006e65000029
:103ad80020330000333500003a200000496e000012
:103ae800766100006c690000642000005541000008
:103af800525400000005000003020000010000000d
:103b080050c3000030750000204e00001027000050
:103b180088130000b80b0000d0070000e80300007d
:103b2800f40100002c010000c8000000640000003f
:103b3800320000001e000000140000000a0000000f
:103b48000500000003000000020000000100000062
:103b58000503000002010000050300000201000047
:103b6800321e0000140a00000503000002010000d4
:020000040000fa
:103b7800871807000000060020e4880000000600ff
:103b8800e0c52100104078000004a2000080fb007e
:103b98000000e9004f00de0000000600e0c521003b
:103ba8001080fb000000e9004f00de000000060066
:103bb800f0c52100104078000004a2000080fb003e
:103bc8000000e9004f00de000000060000c62100ea
:103bd800104078000004a2000080fb000000e9000b
:103be8004f00de000000060000c621001080fb0028
:103bf8000000e9004f00de000000060010c62100aa
:103c0800104078000004a2000080fb000000e900da
:103c18004f00de000000060020c62100104078009a
:103c28000004a2000080fb000000e9004f00de0055
:103c38000000060020c621001080fb000000e900fb
:103c48004f00de000000060030c62100104078005a
:103c58000004a2000080fb000000e9004f00de0025
:103c68000000060050e388000000060060e38800ba
:103c78000000060070e388000000060020c721004d
:103c8800104078000004a2000080fb000000e9005a
:103c98004f00de000000060020c721001080fb0056
:103ca8000000e9004f00de000000060011c0b3006c
:103cb80020c72100014878000080e8000008eb00d8
:103cc8000000060020c721000048eb000080e80043
:103cd8000008eb000000060020c721001004a20025
:103ce80000000600a0e3880000000600881f780096
:103cf80000047800284090000074a0002044980038
:103d080018007800f40f500015003200fb0f500027
:103d18003b0032000000e0004c003a00a4ff07001e
:103d28000004e00003003a00b4ff07000004e000cc
:103d380025003200c0122000eaff07001118070012
:103d48003004980041049800403820000100200009
:103d5800500498006104980040012000000c78008d
:103d6800284090000028a3000400320040c0b3009f
:103d78002044980030c0b300380037005801900044
:103d8800e801900038009000c80090008a0e0700f3
:103d98000000e00004003200284090000004a10068
:103da8002044980003003700284090000004a00039
:103db80020449800a84090000040eb000108a300b0
:103dc8000a003200250037006dff07000004e000fc
:103dd80003003a007dff07000004e0000200320003
:103de800b2ff070001003700b6ff07002840900027
:103df8000074a10020449800b0012000000c780055
:103e0800284090000028a3000400320040c0b300fe
:103e18002044980030c0b300100037000004e000d0
:103e280003003d000004a100204498000200370070
:103e38000004a00020449800a84090000040eb0037
:103e48000108a300b5ff32000400370080c0b300aa
:103e580020449800000ceb0030c0b3004f047800f9
:103e68000000060080c72100104078000004a2006e
:103e78000080fb000000e9004f00de0000000600a3
:103e880080c721001080fb000000e9004f00de0021
:103e98000000060011c0b30080c721000148780067
:103ea8000080e8000008eb000000060080c7210041
:103eb8000048eb000080e8000008eb000000060066
:103ec80080c721001004a20000000600d0e388008b
:103ed80000000600e0c72100104078000004a2009e
:103ee8000080fb000000e9004f00de000000060033
:103ef800e0c721001080fb000000e9004f00de0051
:103f08000000060011c0b300e0c721000148780096
:103f18000080e8000008eb0000000600e0c7210070
:103f28000048eb000080e8000008eb0000000600f5
:103f3800e0c721001004a20000000600889fbe0010
:103f48008a9fbe0000047800284090000074a000fa
:103f580020449800180078000000e00004003200b7
:103f680071192000810f50004b013a0030013700d1
:103f78000040eb00f1c52100804878008180e8000e
:103f8800804878008180e800804878009b70800035
:103f9800cd5dde00e1c565006580500090c56d000f
:103fa8008b85fb008b05e900cf5dde000100220058
:103fb80092708000828060008100e900cf08de00f6
:103fc800014878009a7080004c55de006145650014
:103fd8000080e80010456d000a85fb000a05e9002d
:103fe8004f55de000100210093708000838060003f
:103ff8008100e900cf08de000148780019718000cf
:10400800cf4cde000080e80090c46c008984fb007f
:104018008904ea00cf4cde0011718000cf08de0071
:1040280001487800a0e380000000e00009003200a9
:1040380062c7210092017800f480410001097800ec
:10404800810f500003003e00020078000008eb00da
:1040580021ff0700d0e380000000e00009003200e3
:10406800c2c7210092017800f4804100010978005c
:10407800810f500003003e00020078000008eb00aa
:104088008fff070000e480000000e0000900320014
:1040980022c8210092017800f480410001097800cb
:1040a800810f500003003e00020078000008eb007a
:1040b8009fff070020c72100104078006140600082
:1040c800610060004400dd00a17280000140a10091
:1040d80081007000a172880080c72100104078001c
:1040e80061406000610060004e00dd00a17080004a
:1040f80001e0a10081007000a1708800e0c72100e4
:1041080010407800614060000080fb004f00dd0037
:10411800a170800001f0a10081007000a1708800ea
:1041280041c82100110178006a0041008008780028
:10413800b1fd2f00810f500002003600c0fd2f0096
:1041480020e4880091708000c808de00e1c06000ab
:10415800907080004900de006140600080cf500010
:104168001c00320020e48000e1c82100910f5000bb
:1041780018003900e88050001100500020e4880041
:1041880080087800907080004900de00614060007f
:10419800f6805000914f100003003a000080eb00b9
:1041a800a0e488000200370010002000a0e4880086
:1041b80091708000c808de0000c7210061c8600057
:1041c80091708000c908de000000e80061c8600046
:1041d8000200370040c921000008eb0020e48000fd
:1041e800e1c82100910f500009003e0011c0b30042
:1041f80020c92100014878000040eb0011c92100c6
:10420800804878008100e900804878001c00370069
:10421800c1c82100910f5000a6003e000040eb00ed
:10422800e68040008048780012c0b3008100e900b1
:10423800824878008100e900804878001000370043
:104248000040eb0021c92100804878008100e90086
:104258008048780011c0b30000c9210001487800e7
:10426800070037000040eb0021c921008048780092
:104278008100e900804878008100e90080487800e2
:1042880046fe07000004e0000b0032000b04e000cb
:104298000900320021e38000a0c62100908f500061
:1042a800050039000000eb0020e38800f1c521007b
:1042b800804878001000370031fe07000004e00055
:1042c8000d0032000b04e0000b00320020e38000f8
:1042d800a1c62100910f500007003e00f30f5000c7
:1042e80005003600668050000008eb0011c0b300de
:1042f80065005000014878003bfe07000004e0001c
:104308000b0032000a04e0000900320031e38000ab
:10431800c0c62100908f5000050039000000eb0056
:1043280030e3880011c6210080487800100037006b
:1043380026fe07000004e0000d0032000a04e00039
:104348000b00320030e38000c1c62100910f5000fd
:1043580007003e00f30f500005003600668050004d
:104368000008eb0011c0b300650050000148780058
:1043780030fe07000004e0000b0032000904e000f2
:104388000900320041e38000e0c62100908f500010
:10439800050039000000eb0040e3880031c6210029
:1043a80080487800100037001bfe07000004e0007a
:1043b8000d0032000904e0000b00320040e38000e9
:1043c800e1c62100910f500007003e00f30f500096
:1043d80005003600668050000008eb0011c0b300ed
:1043e800650050000148780040c62100900178001f
:1043f8006a8841000080e800900078006a884000e0
:104408000080e800100178006a0841005d16070086
:104418003004980041049800a0002000010020000a
:10442800500498006104980070192000000c78006e
:10443800284090000028a3000400320040c0b300c8
:104448002044980030c0b30017003700580190008e
:10445800e801900038009000c8009000d60c0700d2
:104468000000e00004003200284090000004a10091
:104478002044980003003700284090000004a00062
:1044880020449800a84090000040eb000108a300d9
:10449800b7fe32000400370080c0b3002044980003
:1044a800000ceb0030c0b3004f05be004f04be0047
:1044b80000000600a1c82100910f500060ff3600df
:1044c80068ff370000e488000000060011c0b30050
:1044d80020c72100014878000000060020c72100fd
:1044e8000048eb000000060011c0b30080c721009f
:1044f800014878000000060080c721000048eb0052
:104508000000060011c0b300e0c721000148780090
:1045180000000600e0c721000048eb00000006008c
:1045280020e480000000060000c921001040780047
:104538000000060010c921001040780000000600a5
:1045480020c9210010407800000006001800fa0079
:10455800881f780000047800284090000074a000ac
:1045680020449800180078008000eb00d20d20004d
:10457800820f5000e08f580040043e000006010002
:10458800dd0037003d0437003c0437003b043700aa
:104598003a04370039043700380437003704370045
:1045a8003604370035043700340437003304370045
:1045b8003204370031043700300437002f04370045
:1045c8002e0437002d0437002c0437002b04370045
:1045d8002a04370029043700280437002704370045
:1045e8002604370025043700240437002304370045
:1045f8002204370021043700200437001f04370045
:104608001e0437001d0437001c0437001b04370044
:104618001a04370019043700180437001704370044
:104628001604370015043700140437001304370044
:104638001204370011043700100437000f04370044
:104648000e0437000d0437000c0437000b04370044
:104658000a04370009043700080437000704370044
:104668000604370005043700040437000304370044
:10467800020437000104370000043700ff03370045
:10468800fe033700fd033700fc033700fb03370048
:10469800fa033700f9033700f8033700f703370048
:1046a800f6033700f5033700f4033700f303370048
:1046b800f2033700f1033700f0033700ef03370048
:1046c800ee033700ed033700ec033700eb03370048
:1046d800ea033700e9033700e8033700e703370048
:1046e800e6033700e5033700e4033700e303370048
:1046f800e2033700e1033700e0033700df03370048
:10470800de033700dd033700dc033700db03370047
:10471800da033700d9033700d8033700d703370047
:10472800d6033700d5033700d4033700d303370047
:10473800d2033700d1033700d0033700cf03370047
:10474800ce033700cd033700cc033700cb03370047
:10475800ca033700c9033700c8033700c703370047
:10476800c6033700c5033700c4033700c303370047
:10477800c2033700c1033700c0033700bf03370047
:10478800be033700bd033700bc033700bb03370047
:10479800ba033700b9033700b8033700b703370047
:1047a800b6033700b5033700b4033700b303370047
:1047b800b2033700b1033700b0033700af03370047
:1047c800ae033700ad033700ac033700ab03370047
:1047d800aa033700a9033700a8033700a703370047
:1047e800a6033700a5033700a4033700a303370047
:1047f800a2033700a1033700a00337009f03370047
:104808009e0337009d0337009c0337009b03370046
:104818009a03370099033700980337003f003700a1
:1048280057003700950337007600370093033700a9
:104838009203370096003700ae0037008f03370029
:10484800cd0037008d0337008c033700ed003700ab
:104858000501370089033700240137008703370033
:1048680086033700450137005d01370083033700b1
:104878007c01370081033700800337009d01370032
:10488800b50137007d033700d40137007b033700bb
:104898007a033700f50137000d0237007703370038
:1048a8002c02370075033700740337007303370091
:1048b8004b0237006302370070033700820237006b
:1048c8006e0337006d033700a3023700bb023700c1
:1048d8006a033700da0237006803370067033700d6
:1048e800fb02370013033700640337003203370035
:1048f800620337004e03370013aeab005b003a008b
:1049080000992900fa8057000d000900b058780076
:10491800e000b100700a2000000c780028409000e8
:104928000028a3000400320040c0b30020449800cf
:1049380030c0b30055033700818180000128a300ef
:1049480003003a000004a100204498000200370048
:104958000004a00020449800284190000040eb008b
:104968000208a30049033a000120a00081818800c1
:1049780040c221000008eb00800a2000000c7800eb
:10498800284090000028a3000400320040c0b30073
:104998002044980030c0b3003c033700fa80570029
:1049a80040c22100a0090700e24f50000400360071
:1049b800284090000004a10020449800030037001c
:1049c800284090000004a00020449800a8409000cf
:1049d8000040eb000108a3002c033a003050a90066
:1049e800e81407003004980041049800a000200053
:1049f800010020005004980061049800a00a2000db
:104a0800000c7800284090000028a3000400320021
:104a180040c0b3002044980030c0b3001b033700e7
:104a280058019000e801900038009000c8009000fc
:104a3800610b07000000e0000400320028409000ed
:104a48000004a1002044980003003700284090008b
:104a58000004a00020449800a84090000040eb000b
:104a68000108a300d401320008033700138eab00fd
:104a78005b003a00e09929007a8157000d0009008f
:104a880030597800e000b100d00a2000000c78000e
:104a9800284090000028a3000400320040c0b30062
:104aa8002044980030c0b300f802370081818000ac
:104ab8000128a30003003a000004a1002044980044
:104ac800020037000004a00020449800284190000c
:104ad8000040eb000208a300ec023a000120a0000d
:104ae8008181880040c221000008eb00e00a200014
:104af800000c7800284090000028a3000400320031
:104b080040c0b3002044980030c0b300df02370033
:104b1800fa80570040c2210043090700e24f5000c5
:104b280004003600284090000004a10020449800aa
:104b380003003700284090000004a000204498009b
:104b4800a84090000040eb000108a300cf023a0003
:104b58003050a9008b1407003004980041049800d5
:104b6800a000200001002000500498006104980073
:104b7800000b2000000c7800284090000028a300bb
:104b88000400320040c0b3002044980030c0b30095
:104b9800be02370058019000e801900038009000ec
:104ba800c8009000040b07000000e0000400320079
:104bb800284090000004a10020449800030037001a
:104bc800284090000004a00020449800a8409000cd
:104bd8000040eb000108a30077013200ab02370068
:104be800220ee2005b003500c09a2900fa805700c7
:104bf8000d000900b0587800e000b100300b20002b
:104c0800000c7800284090000028a300040032001f
:104c180040c0b3002044980030c0b3009b02370066
:104c2800818180000128a30003003a000004a1004c
:104c380020449800020037000004a0002044980097
:104c4800284190000040eb000208a3008f023a00c0
:104c58000120a0008181880040c221000008eb00eb
:104c6800400b2000000c7800284090000028a3008a
:104c78000400320040c0b3002044980030c0b300a4
:104c880082023700fa80570040c22100e608070078
:104c9800e24f500004003600284090000004a100b4
:104ca8002044980003003700284090000004a0002a
:104cb80020449800a84090000040eb000108a300a1
:104cc80072023a003050a9002e14070030049800f0
:104cd80041049800a0002000010020005004980022
:104ce80061049800600b2000000c780028409000b8
:104cf8000028a3000400320040c0b30020449800fc
:104d080030c0b3006102370058019000e8019000fc
:104d180038009000c8009000a70a07000000e000d3
:104d280004003200284090000004a10020449800ac
:104d380003003700284090000004a0002044980099
:104d4800a84090000040eb000108a3001a013200bf
:104d58004e023700f4fd07000004e0005b0032005b
:104d6800a09b29007a815700170009003059780064
:104d78008001b100900b2000000c780028409000c2
:104d88000028a3000400320040c0b300204498006b
:104d980030c0b3003d023700818180000128a300a4
:104da80003003a000004a1002044980002003700e4
:104db8000004a00020449800284190000040eb0027
:104dc8000208a30031023a000120a0008181880076
:104dd80040c221000008eb00a00b2000000c780066
:104de800284090000028a3000400320040c0b3000f
:104df8002044980030c0b30024023700fa805700de
:104e080040c2210088080700e24f50000400360025
:104e1800284090000004a1002044980003003700b7
:104e2800284090000004a00020449800a84090006a
:104e38000040eb000108a30014023a003050a9001a
:104e4800d01307003004980041049800a00f2000f8
:104e5800010020005004980061049800c00b200055
:104e6800000c7800284090000028a30004003200bd
:104e780040c0b3002044980030c0b300030237009c
:104e880058019000e801900038009000c800900098
:104e9800490a07000000e0000400320028409000a2
:104ea8000004a10020449800030037002840900027
:104eb8000004a00020449800a84090000040eb00a7
:104ec8000108a300bc003200f001370099fd07007b
:104ed8000004e0005b003200209d2900fa805700a2
:104ee80017000900b05878008001b100f00b2000cd
:104ef800000c7800284090000028a300040032002d
:104f080040c0b3002044980030c0b300df01370030
:104f1800818180000128a30003003a000004a10059
:104f280020449800020037000004a00020449800a4
:104f3800284190000040eb000208a300d3013a008a
:104f48000120a0008181880040c221000008eb00f8
:104f5800000c2000000c7800284090000028a300d6
:104f68000400320040c0b3002044980030c0b300b1
:104f7800c6013700fa80570040c221002a080700fe
:104f8800e24f500004003600284090000004a100c1
:104f98002044980003003700284090000004a00037
:104fa80020449800a84090000040eb000108a300ae
:104fb800b6013a003050a900721307003004980077
:104fc80041049800a00f2000010020005004980020
:104fd80061049800200c2000000c78002840900004
:104fe8000028a3000400320040c0b3002044980009
:104ff80030c0b300a501370058019000e8019000c7
:1050080038009000c8009000eb0907000000e0009d
:1050180004003200284090000004a10020449800b9
:1050280003003700284090000004a00020449800a6
:10503800a84090000040eb000108a3005e00320089
:10504800920137003efd07000004e0005a003200dc
:10505800a09e29007a815700150009003059780070
:105068006001b100500c2000000c7800284090002e
:105078000028a3000400320040c0b3002044980078
:1050880030c0b30081013700818180000128a3006e
:1050980003003a000004a1002044980002003700f1
:1050a8000004a00020449800284190000040eb0034
:1050b8000208a30075013a000120a0008181880040
:1050c80040c221000008eb00600c2000000c7800b2
:1050d800284090000028a3000400320040c0b3001c
:1050e8002044980030c0b30068013700fa805700a8
:1050f80040c22100cc070700e24f500004003600f0
:10510800284090000004a1002044980003003700c4
:10511800284090000004a00020449800a840900077
:105128000040eb000108a30058013a003050a900e4
:10513800141307003004980041049800a00f2000c1
:10514800010020005004980061049800800c2000a1
:10515800000c7800284090000028a30004003200ca
:1051680040c0b3002044980030c0b3004701370066
:1051780058019000e801900038009000c8009000a5
:105188008d0907000000e00004003200284090006c
:105198000004a10020449800030037002840900034
:1051a8000004a00020449800a84090000040eb00b4
:1051b8000108a30035013a007dfa07000004e00069
:1051c8005b00320000a02900fa8057001400090093
:1051d800b05878005001b100c00c2000000c7800d5
:1051e800284090000028a3000400320040c0b3000b
:1051f8002044980030c0b30024013700818180002a
:105208000128a30003003a000004a10020449800ec
:10521800020037000004a0002044980028419000b4
:105228000040eb000208a30018013a000120a0008a
:105238008181880040c221000008eb00d00c2000ca
:10524800000c7800284090000028a30004003200d9
:1052580040c0b3002044980030c0b3000b013700b1
:10526800fa80570040c221006f070700e24f500044
:1052780004003600284090000004a1002044980053
:1052880003003700284090000004a0002044980044
:10529800a84090000040eb000108a300fb003a0082
:1052a8003050a900b7120700300498004104980054
:1052b800a00f20000100200050049800610498000d
:1052c800f00c2000000c7800284090000028a30073
:1052d8000400320040c0b3002044980030c0b3003e
:1052e800ea00370058019000e8019000380090006b
:1052f800c8009000300907000000e00004003200f8
:10530800284090000004a1002044980003003700c2
:10531800284090000004a00020449800a840900075
:105328000040eb000108a300bc003200d7003700a2
:1053380032fa07000004e0005b00320050a12900a7
:105348007a81570014000900305978005001b100e3
:10535800200d2000000c7800284090000028a300b1
:105368000400320040c0b3002044980030c0b300ad
:10537800c6003700818180000128a30003003a009d
:105388000004a10020449800020037000004a00097
:1053980020449800284190000040eb000208a30038
:1053a800ba003a000120a0008181880040c2210093
:1053b8000008eb00300d2000000c78002840900019
:1053c8000028a3000400320040c0b3002044980025
:1053d80030c0b300ad003700fa80570040c221004a
:1053e80011070700e24f50000400360028409000e3
:1053f8000004a100204498000300370028409000d2
:105408000004a00020449800a84090000040eb0051
:105418000108a3009d003a003050a9005912070066
:105428003004980041049800a00f200001002000db
:105438005004980061049800500d2000000c78007a
:10544800284090000028a3000400320040c0b300a8
:105458002044980030c0b3008c00370058019000f9
:10546800e801900038009000c8009000d2080700ba
:105478000000e00004003200284090000004a10071
:105488002044980003003700284090000004a00042
:1054980020449800a84090000040eb000108a300b9
:1054a8005e00320079003700e7f907000004e000e9
:1054b8005a003200a0a22900fa80570014000900ff
:1054c800b05878005001b100800d2000000c780021
:1054d800284090000028a3000400320040c0b30018
:1054e8002044980030c0b3006800370081818000f4
:1054f8000128a30003003a000004a10020449800fa
:10550800020037000004a0002044980028419000c1
:105518000040eb000208a3005c003a000120a00054
:105528008181880040c221000008eb00900d200016
:10553800000c7800284090000028a30004003200e6
:1055480040c0b3002044980030c0b3004f0037007b
:10555800fa80570040c22100b3060700e24f50000e
:1055680004003600284090000004a1002044980060
:1055780003003700284090000004a0002044980051
:10558800a84090000040eb000108a3003f003a004b
:105598003050a900fb11070030049800410498001e
:1055a800a00f20000100200050049800610498001a
:1055b800b00d2000000c7800284090000028a300bf
:1055c8000400320040c0b3002044980030c0b3004b
:1055d8002e00370058019000e80190003800900034
:1055e800c8009000740807000000e00004003200c2
:1055f800284090000004a1002044980003003700d0
:10560800284090000004a00020449800a840900082
:105618000040eb000108a3001c003a00284090005d
:105628000074a10020449800d00d2000000c7800e0
:10563800284090000028a3000400320040c0b300b6
:105648002044980030c0b300100037000004e00088
:1056580003003d000004a100204498000200370028
:105668000004a00020449800a84090000040eb00ef
:105678000108a300a0fc32000400370080c0b3007a
:1056880020449800000ceb0030c0b3004f047800b1
:105698000080fa000000060061e48000808f50005e
:1056a8000100310050e488000000060051e4800049
:1056b800808f500004003600e1c82100910f50008f
:1056c8000100360060e488000000060061e4800004
:1056d800808f50000100360070e48800000006004a
:1056e800a0e4800000000600fdff07004f00de0078
:1056f80000000600faff07008000780010c0b30021
:105708000100e00001003c000040eb000000060042
:10571800f3ff0700800078000000eb000100e000c4
:10572800060032001000200022e48000a1c82100f9
:10573800910f5100010039000000eb000000060045
:10574800881f780000047800284090000074a000aa
:1057580020449800180078000000e000040032009f
:1057680011032000810f50002e003a001a00370064
:105778006dfb07000004e00002003200c5f90700d5
:10578800100037006bfb07000004e0000300320044
:10579800401f2000cdf907000a00370068fb07000a
:1057a8000004e0000300320040062000c7f90700ab
:1057b80004003700d6ff07000004e00001003a00ab
:1057c800baf90700284090000074a100204498000e
:1057d80010032000000c7800284090000028a30047
:1057e8000400320040c0b3002044980030c0b30029
:1057f800100037000004e00003003d000004a10091
:1058080020449800020037000004a00020449800bb
:10581800a84090000040eb000108a300d4ff32002c
:105828000400370080c0b30020449800000ceb004f
:1058380030c0b3004f04780000000600881f7800cd
:1058480000047800100020000100e000040034008b
:105858008100e90008007800f8ff07008880b90097
:105868004f04780000000600889fbe008a9fbe0093
:105878008c9fbe008e1f7800014678000005eb0063
:105888000c04e00011003200800678000c84fb0054
:105898000804e9008d047800ae002000b9457800be
:1058a800880078000e007800e4ff07008b85fb0075
:1058b8000b03b1008b80b900000545000804e9001e
:1058c8000dc05400804f5600f4ff3e000a007800d7
:1058d8004f0778004f06be004f05be004f04be00bc
:1058e800000006003401fa00881f780000047800e0
:1058f80020a42900a1ec2f0081804700c3000900e3
:10590800b0587800400cb10060b02900e2f82f00d0
:105918000281470024000900305978005002b10084
:10592800b0b2290031fb2f00818047002500090013
:10593800b05878006002b10010b5290092fd2f0020
:105948000281470023000900305978004002b10065
:10595800284090000074a0002044980018007800a7
:105968008000eb00c2092000820f5000e08f580031
:10597800e3023e00000601009c003700e002370009
:10598800df023700de023700dd023700dc023700b5
:10599800db023700da023700d9023700d8023700b5
:1059a800d7023700d6023700d5023700d4023700b5
:1059b800d3023700d2023700d1023700d0023700b5
:1059c800cf023700ce023700cd023700cc023700b5
:1059d800cb023700ca023700c9023700c8023700b5
:1059e800c7023700c6023700c5023700c4023700b5
:1059f800c3023700c2023700c1023700c0023700b5
:105a0800bf023700be023700bd023700bc023700b4
:105a1800bb023700ba023700b9023700b8023700b4
:105a2800b7023700b6023700b5023700b4023700b4
:105a3800b3023700b2023700b1023700b0023700b4
:105a4800af023700ae023700ad023700ac023700b4
:105a5800ab023700aa023700a9023700a8023700b4
:105a6800a7023700a6023700a5023700a4023700b4
:105a7800a3023700a2023700a1023700a0023700b4
:105a88009f0237009e0237005a0037007200370025
:105a98009b0237009a0237009902370089003700c5
:105aa800a10037009602370095023700bd00370085
:105ab800d500370092023700910237009002370074
:105ac8008f0237008e0237008d0237008c023700b4
:105ad800ec003700040137008902370088023700dc
:105ae80087023700860237001a0137003201370073
:105af800830237004b01370063013700800237000b
:105b08007f0237007e0237007d0237007c023700b3
:105b18007b0237007a0237007902370078023700b3
:105b280077023700760237007502370074023700b3
:105b380073023700720237007102370070023700b3
:105b48006f0237006e0237006d0237006c023700b3
:105b58006b0237006a0237006902370068023700b3
:105b680067023700660237006502370064023700b3
:105b78006302370062023700860137009e01370052
:105b88005f0237005e0237005d0237005c023700b3
:105b9800b5013700cd013700e801370004023700ae
:105ba80057023700560237005502370054023700b3
:105bb80053023700520237005102370050023700b3
:105bc8004f0237004e0237004d0237004c023700b3
:105bd8004b0237004a0237004902370048023700b3
:105be80047023700460237003202370040042000df
:105bf800000c7800284090000028a3000400320020
:105c080040c0b3002044980030c0b30040023700c1
:105c1800818180000128a30003003a000004a1004c
:105c280020449800020037000004a0002044980097
:105c3800284190000040eb000208a30034023a001b
:105c48000120a0008181880040c221000008eb00eb
:105c580050042000000c7800284090000028a30081
:105c68000400320040c0b3002044980030c0b300a4
:105c780027023700a1ec2f008f80400040c221008e
:105c8800e9040700e24f5000040036002840900065
:105c98000004a10020449800030037002840900029
:105ca8000004a00020449800a84090000040eb00a9
:105cb8000108a30016023a003050a9009004200001
:105cc800000c7800284090000028a300040032004f
:105cd80040c0b3002044980030c0b3000c02370025
:105ce800818180000138a30003003a000004a1006c
:105cf80020449800020037000004a00020449800c7
:105d0800284190000040eb000208a30000023a007e
:105d18000130a0008181880060c321000008eb00e9
:105d2800a0042000000c7800284090000028a30060
:105d38000400320040c0b3002044980030c0b300d3
:105d4800f301370012c0b3001106210060c321001f
:105d580029040700e24f5000040036002840900054
:105d68000004a10020449800030037002840900058
:105d78000004a00020449800a84090000040eb00d8
:105d88000108a300e2013a003070a90011062100c1
:105d9800914078000206210001497800d0042000d3
:105da800000c7800284090000028a300040032006e
:105db80040c0b3002044980030c0b300d40137007d
:105dc800818180000128a30003003a000004a1009b
:105dd80020449800020037000004a00020449800e6
:105de800284190000040eb000208a300c8013a00d7
:105df8000120a0008181880040c221000008eb003a
:105e0800e0042000000c7800284090000028a3003f
:105e18000400320040c0b3002044980030c0b300f2
:105e2800bb013700010621009140780040c22100e3
:105e380037020700e24f5000040036002840900067
:105e48000004a10020449800030037002840900077
:105e58000004a00020449800a84090000040eb00f7
:105e68000108a300aa013a003050a900f0c9b30004
:105e78006050b400e54f500089013e0060052000e5
:105e8800000c7800284090000028a300040032008d
:105e980040c0b3002044980030c0b3009c013700d4
:105ea800818180000128a30003003a000004a100ba
:105eb80020449800020037000004a0002044980005
:105ec800284190000040eb000208a30090013a002e
:105ed8000120a0008181880040c221000008eb0059
:105ee80070052000000c7800284090000028a300ce
:105ef8000400320040c0b3002044980030c0b30012
:105f080083013700e1f82f008f80400040c2210054
:105f180045040700e24f5000040036002840900076
:105f28000004a10020449800030037002840900096
:105f38000004a00020449800a84090000040eb0016
:105f48000108a30072013a003050a900c0052000e2
:105f5800000c7800284090000028a30004003200bc
:105f680040c0b3002044980030c0b3006801370037
:105f7800818180000138a30003003a000004a100d9
:105f880020449800020037000004a0002044980034
:105f9800284190000040eb000208a3005c013a0091
:105fa8000130a0008181880060c321000008eb0057
:105fb800d0052000000c7800284090000028a3009d
:105fc8000400320040c0b3002044980030c0b30041
:105fd8004f01370012c0b3001106210060c3210031
:105fe80085030700e24f5000040036002840900067
:105ff8000004a100204498000300370028409000c6
:106008000004a00020449800a84090000040eb0045
:106018000108a3003e013a003070a900f0052000f5
:10602800000c7800284090000028a30004003200eb
:1060380040c0b3002044980030c0b300340137009a
:10604800818180000128a30003003a000004a10018
:1060580020449800020037000004a0002044980063
:10606800284190000040eb000208a30028013a00f4
:106078000120a0008181880040c221000008eb00b7
:1060880000062000000c7800284090000028a3009b
:106098000400320040c0b3002044980030c0b30070
:1060a8001b013700110621009140780040c22100f1
:1060b80097010700e24f5000040036002840900086
:1060c8000004a100204498000300370028409000f5
:1060d8000004a00020449800a84090000040eb0075
:1060e8000108a3000a013a003050a90061d0bf009e
:1060f800ed4f50000d003a00c10521009140780095
:1061080060c92100d8fd0700f08288005c70ef00ac
:1061180051c92100f48140000041eb0082687800f9
:10612800838f5000fdff3a0015003700e84f5000fc
:1061380007003a005c50ed005cf0b7000080fb00ff
:1061480061c92100008040000048eb007fff370054
:10615800c1052100914078000181fb0063c921003d
:1061680002814100004978000140e8005cf0b70076
:10617800f34f500075ff36005c70ef0073ff370077
:1061880021032000810f500035003e000008200048
:10619800000c7800284090000028a300040032007a
:1061a80040c0b3002044980030c0b300d800370086
:1061b800818180000128a30003003a000004a100a7
:1061c80020449800020037000004a00020449800f2
:1061d800284190000040eb000208a300cc003a00e0
:1061e8000120a0008181880040c221000008eb0046
:1061f80010082000000c7800284090000028a30018
:106208000400320040c0b3002044980030c0b300fe
:10621800bf00370091fd2f008f80400040c2210051
:1062280081030700e24f5000040036002840900028
:106238000004a10020449800030037002840900083
:106248000004a00020449800a84090000040eb0003
:106258000108a300ae003a003050a90063fe3700e1
:1062680060082000000c7800284090000028a30057
:106278000400320040c0b3002044980030c0b3008e
:10628800a3003700818180000128a30003003a00a1
:106298000004a10020449800020037000004a00078
:1062a80020449800284190000040eb000208a30019
:1062b80097003a000120a0008181880040c2210097
:1062c8000008eb0070082000000c780028409000bf
:1062d8000028a3000400320040c0b3002044980006
:1062e80030c0b3008a00370031fb2f008f80400098
:1062f80040c221004c030700e24f50000400360062
:10630800284090000004a1002044980003003700b2
:10631800284090000004a00020449800a840900065
:106328000040eb000108a30079003a0040c22100b8
:106338000008eb0080082000000c7800284090003e
:106348000028a3000400320040c0b3002044980095
:1063580030c0b3006e003700f28280004011dd00cb
:106368008001eb0040c22100ea010700e24f500023
:1063780004003600284090000004a1002044980042
:1063880003003700284090000004a0002044980033
:10639800a84090000040eb000108a3005c003a0010
:1063a80040c221000008eb0090082000000c780093
:1063b800284090000028a3000400320040c0b30029
:1063c8002044980030c0b30051003700f1a32900e1
:1063d80040c2210014030700e24f500004003600b9
:1063e800284090000004a1002044980003003700d2
:1063f800284090000004a00020449800a840900085
:106408000040eb000108a30041003a003050a90009
:1064180060d0bf0011c6b300814f500003003a009e
:10642800f08280000ff607001d00370021c6b30078
:10643800814f500003003a00f08280000bf60700fd
:106448001700370031c6b300814f500003003a00ef
:10645800f082800007f607001100370041c6b3003c
:10646800814f500003003a00f082800097fc07003b
:106478000b00370051c6b300814f500003003a00ab
:10648800f082800089fc07000500370061c6b30070
:10649800814f500002003a00f08280007efc070025
:1064a800284090000074a10020449800c0092000f2
:1064b800000c7800284090000028a3000400320057
:1064c80040c0b3002044980030c0b300100037002b
:1064d8000004e00003003d000004a10020449800ef
:1064e800020037000004a00020449800a840900053
:1064f8000040eb000108a300bcfd32000400370097
:1065080080c0b30020449800000ceb0030c0b300fa
:106518004f0478000080fa000000060020fa2100ed
:10652800320307000000eb00a0e38800d0e38800f6
:1065380000e48800b0e38800e0e3880010e4880005
:1065480020e3880030e3880040e38800810c2000c5
:1065580071e48800c15d200061e4880081bb2000ef
:1065680051e4880021e4880031e488008040eb0091
:1065780002c92100004978000200e80001487800bb
:106588000000e80001487800c012200050e38800ad
:1065980060e3880070e388000000060050b7290017
:1065a800e9020700508ea900568ea9005a8ea9004c
:1065b8005c8ea9001fcea90011cea9001bcea90090
:1065c8001dcea9001feea90011eea9001beea9001f
:1065d8001deea9001faea90011aea8001baea900b0
:1065e8001daea9001baea800b003200001002000ca
:1065f8005ff507001f8ea900118ea8001b8ea90049
:106608001d8ea9001b8ea800b003200001002000e9
:1066180057f5070021eea8002beea9002deea900e2
:106628002beea800b00320000100200050f5070061
:106638001f0ea900110ea8001b0ea9001d0ea9000f
:106648001f2ea900112ea8001b2ea9001d2ea9007f
:106658001b0ea8001b2ea800b0032000010020007c
:1066680043f50700adff0700401f200095f707001e
:1066780040ba2200dd020700a0e72100db02070084
:1066880060c72200d9020700a02a2200d70207000b
:10669800000006000000210041ba2100010878002e
:1066a8008000eb00110098002100980002042000ef
:1066b800320098008000210043be210003087800c2
:1066c800110098002100980032009800130d07006f
:1066d800000006000080fb004400de00e94f500087
:1066e800020036007043b000010037000043b000dc
:1066f800000006006f406000e94f500002003600bd
:106708007043b000010037000043b00000000600ed
:10671800881f780000047800284090000074a000ca
:1067280020449800180178000200e00004003200bc
:1067380031052000810f510027003a000c00370076
:1067480081417800b202210003497800118080005d
:106758008100e8006181880002042000828f5000d7
:1067680001003a002c30ef0031052000010c7800c0
:106778000028a3000400320040c0b3002044980061
:1067880030c0b3001800370061818000228080008b
:10679800810f5100030032000004a100204498003a
:1067a800020037000004a00020449800284190000f
:1067b8000040eb000208a3000b003a000000210093
:1067c80010814000b302210093417800034978000a
:1067d80011009800a80c070080c0b300204498005e
:1067e800000ceb0030c0b3004f0478000000060036
:1067f800889fbe00000478008144780028409000fb
:106808000074a00020449800180078000000e00000
:1068180004003200a1062000810f50003f003a001a
:106828001900370001c3b30080c521000148780072
:1068380081c7b3000000e8000148780009407800eb
:10684800a4ff0700a1c5210080487800094078000e
:10685800a8ff0700b1c52100804878000100e800c2
:106868000048eb002a70ef000210ec00408188001d
:1068780001042000810f500001003a002830ef0089
:10688800a0062000000c7800284090000028a300f3
:106898000400320040c0b3002044980030c0b30068
:1068a800220037004181800022808000810f510042
:1068b800030032000004a1002044980002003700c1
:1068c8000004a00020449800284190000040eb00fc
:1068d8000208a30015003a00000021009081400042
:1068e800a2022100124178000282fb0085c5210026
:1068f80004824200944978000241e800024278008c
:10690800a302210084497800110098005a0c07005e
:106918002ad0bf00e34f5000d3ff360080c0b30039
:1069280020449800000ceb0030c0b3004f04be00b8
:1069380000000600881f78000004780028409000b6
:106948000074a00020449800180078000000e000bf
:106958000400320041082000810f500067003a000f
:10696800410037002670ef0030c6b30080cf5000da
:106978000a0036000181fb004211de00b047210009
:106988000011b8000301d10030c5210003c3b300d2
:106998000348410010c0b30026f0b700e9cf50000b
:1069a8001400360026d0bf000081fb0033c521004b
:1069b800828141000181fb00c212de00b447210040
:1069c800042ab8008502d1004406200084aab90030
:1069d800040151000281fb00d5cc2c000512b8003f
:1069e8004329de0004c3b300844941000040e800a5
:1069f80026f0b70062022100124178008281fb0074
:106a080030c52100830140008180fb00d4cc2c00dc
:106a1800040ab800432ade00ea22b9008480500044
:106a280004c3b30084c940008240e8006202210028
:106a3800014978008180fb00010040000048eb001c
:106a48002770ef002a0037000210ec002081880030
:106a580001042000810f500001003a002430ef00ab
:106a680040082000000c7800284090000028a3006f
:106a78000400320040c0b3002044980030c0b30086
:106a8800220037002181800024808000810f52007d
:106a9800030032000004a1002044980002003700df
:106aa8000004a00020449800284190000040eb001a
:106ab8000208a30015003a00000021009081400060
:106ac80072022100124178000282fb0035c52100c4
:106ad80004824200944978000241e80002427800aa
:106ae800730221008449780011009800e20b070026
:106af80027d0bf002650e300d3ff3e0080c0b3007c
:106b080020449800000ceb0030c0b3004f0478001c
:106b180000000600889fbe008a9fbe008c1f780078
:106b2800000678000204be002c4090000074a0000b
:106b3800204698001c0078000000e00004003200a5
:106b4800410a2000810f50005f003a0039003700e9
:106b580001c3b30080c421000148780081c7b30095
:106b68000000e80001487800481dde000b00200006
:106b78000a407800d7fe0700a1c4210080487800a9
:106b88000a407800dbfe0700b1c421008048780085
:106b9800404dde000b0020000a407800cdfe0700c3
:106ba800c1c42100804878000a407800d1fe07005f
:106bb800d1c4210080487800c84dde004848dd0077
:106bc8004845de000a0570000a407800c1fe07004b
:106bd800e1c42100804878000a407800c5fe07001b
:106be800f1c421008048780008407800b9fe070009
:106bf80001c521008048780008407800bdfe0700e4
:106c080011c52100804878000100e8000048eb0029
:106c18002270ef000210ec000081880001042000bf
:106c2800810f500001003a002030ef00400a200098
:106c3800000e78002c4090000028a30004003200c9
:106c480040c0b3002046980030c0b300220037008f
:106c58000181800022808000810f510003003200f2
:106c68000004a10020469800020037000004a0009c
:106c7800204698002c4190000040eb000208a30039
:106c880015003a00000021009081400022022100f6
:106c9800124178000282fb0085c421000482420070
:106ca800944978000241e80002427800230221005a
:106cb80084497800110098006f0b070022d0bf00ac
:106cc800e94f5000d3ff360080c0b300204698003b
:106cd800000eeb0030c0b3004f0678004f05be0031
:106ce8004f04be0000000600881f780000047800ea
:106cf800284090000074a0002044980018007800f4
:106d08000000e00004003200910b2000810f5000c9
:106d180033003a000e00370082417800c00121009c
:106d280003487800d18088001d70ef002a003700e2
:106d38000210ec00f080880001042000810f500050
:106d480001003a001e30ef00900b2000000c780084
:106d5800284090000028a3000400320040c0b3007f
:106d68002044980030c0b30021003700f180800033
:106d780024808000810f5200030032000004a1002b
:106d880020449800020037000004a0002044980026
:106d9800284190000040eb000208a30014003a00cc
:106da8000200210012824000d301210093417800a3
:106db8000380fb001a10b400104a78008341e800f1
:106dc80003427800d001210004487800110198009e
:106dd800290b07001c70ed001c50e200d4ff3a009c
:106de80080c0b30020449800000ceb0030c0b30012
:106df8004f04780000000600a04190000374a00032
:106e080023409800900178000300e000040032005d
:106e1800d40c2000848f510034003a00070037005a
:106e28005301210082497800b18088001870ef0072
:106e38002a003700d30c200003087800a0419000f6
:106e48000328a3000400320041c0b3002140980089
:106e580033c0b30029003700840021009402900059
:106e680024029000848f5200030032000304a10022
:106e780023409800020037000304a0002340980034
:106e8800204290008041eb000408a3001b003a0058
:106e98000c30ec000304200065808000838f5200d2
:106ea80001003a000c30ef00830121009341780083
:106eb8008400210094027800240290008482420019
:106ec8000382fb0004824000154a78008341e800f1
:106ed8008342780084012100054a7800830121005b
:106ee8009341780082cf5100d2ff390081c0b300ae
:106ef800214098000008eb0033c0b300034078003d
:106f080000000600204190000274a0002240980072
:106f1800100178000200e00004003200e30d2000b8
:106f2800830f51003a003a00030037001470ef0055
:106f3800e20d200002087800204190000228a300fa
:106f48000400320041c0b3002140980032c0b300b1
:106f5800330037008300210013029000a301900042
:106f6800830f5200030032000204a100224098005f
:106f7800020037000204a00022409800a0419000bf
:106f88000041eb000308a30025003a000c30ec0098
:106f98000204200063808000828f510001003a00c3
:106fa8000c30ef004301210093417800820021005a
:106fb800120278002201900002014200124178007a
:106fc8000382fb0004824000024a7800ea4f510025
:106fd8000a003200ed4f5100080032000204e000c0
:106fe800060032008341e80044012100034a78008a
:106ff800e2c3b30082cf5100cdff36004201210029
:10700800124178000281fb00828040008048eb003a
:1070180081c0b300214098000008eb0032c0b300e3
:107028000240780000000600881f780000047800fd
:10703800284090000074a0002044980018007800b0
:107048000000e00004003200210f2000810f5000f2
:1070580029003a000a0037008180880023003700a1
:107068000210ec009080880001042000810f50007d
:1070780001003a001230ef00200f2000000c7800c9
:10708800284090000028a3000400320040c0b3004c
:107098002044980030c0b3001b0037009180800066
:1070a80022808000810f5100030032000004a100fb
:1070b80020449800020037000004a00020449800f3
:1070c800284190000040eb000208a3000e003a009f
:1070d800020021009281400080808000b049780041
:1070e8008080880011019800630a07008080800072
:1070f8001004e000daff3a0080c0b3002044980092
:10710800000ceb0030c0b3004f047800000006000c
:10711800804178000210ec0001042000810f50002b
:1071280001003a000000eb000410e300feff32000b
:1071380001002100110140000349780090009800e7
:107148004d0a070000000600889fbe008a1f7800cd
:10715800904078000104e00011003200000478003b
:10716800090420000005eb000210ec00890f500014
:1071780001003a000a0078000410e300feff320024
:107188000200210092014000814978001001980016
:10719800390a0700d84078000104e000f2ff3a00fd
:1071a8004f0578004f04be00000006008000210053
:1071b8009000900020009000808f5000fbff32006c
:1071c8000c30ec00000420000c10e30001003a0031
:1071d8000c30ef0080002100900078002000900023
:1071e8000080400010407800000006008000780011
:1071f80023032100934178000000eb00efcf5100fa
:1072080058003e00c5c18000818f52001400320032
:10721800a48421000043eb00064078000641780072
:1072280017c0b300040037009402780072024200cd
:10723800818f52000c0032000604e00004003a007e
:107248000500e00002003a00024078000743780099
:107258000241e800f04f5100f3ff3a0042003700c6
:107268000040eb00004178008280fb00448321004d
:10727800f20bb900860342008002eb00850b780010
:107288008483e80086834300854b78000603420028
:10729800060b900016037800250398008382fb00f4
:1072a8004695210085024300824a78008341e80020
:1072b8008342780022032100054978000080fb0002
:1072c800f201b90002024200740190000200e000dd
:1072d80007003a00a28180000201e800a28188002c
:1072e800f200b9002384210003004000020878005e
:1072f800f209b9004083210000004100190037005d
:107308004483210022c1b3000440bc008202420031
:10731800a10298008000eb00810a78000483e8004d
:1073280002034300014b7800050990001201780020
:10733800210198008380fb004295210081004100d3
:10734800804878008341e8008340780020032100ca
:10735800014878003410ec00a0818800f002980001
:1073680005007800000006000604e000e4ff3a008b
:107378000000eb00fbff3700000378002403210026
:10738800144278000040eb000404e00018003200ca
:10739800339521008000eb0047832100534078009b
:1073a80000c1e800e14f51000d00360022c1b300d2
:1073b8000440bc000280430020009000860f50006b
:1073c80007003a004095210081024000e0cfb30059
:1073d800804a78003010a80010c0b30004003700bd
:1073e8008100e800814f5200ecff3e000040eb00b6
:1073f800000006000003780025032100954278006c
:107408000000eb000504e000110032003395210074
:107418008040eb00448321005340780000c1e8001d
:10742800e14f51000600360022c1b3000440bc0001
:107438000400410020019000860f51000400320032
:107448008140e80085cf5000f3ff39000000eb00d1
:10745800000006000003780025032100954278000b
:107468000000eb000504e000110032003395210014
:107478008040eb00448321005340780000c1e800bd
:10748800e14f51000600360022c1b3000440bc00a1
:107498000400410070019000860f51000400320082
:1074a8008140e80085cf5000f3ff39000000eb0071
:1074b8000000060020cb80000000e000050032003c
:1074c80061972100100020001100e00006003a003a
:1074d800010037000000eb00f200b90041962100de
:1074e80001004000050037000000e800f28040007d
:1074f800f00f5000f4ff3a000000eb000000060017
:10750800d0818800e181880000000600d0818000d9
:10751800e181800092e52b00828ab900661a240076
:107528008683b900060242000201b80083014200c6
:10753800400ade0005002000711a240081abb90062
:107548000120b80081004300cf0ade00410bdd00b6
:107558004f02de00040273000401410085814900e6
:1075680000f0a1008000eb00c002dd000400200054
:107578000200420083804a0004003b001200200001
:10758800030028000000410081804900d081880064
:10759800e181880000000600889fbe00810040004d
:1075a800810f50002300310052dc2900c31128004c
:1075b800c812dd0004002000020441008384490051
:1075c800441bdd00cc13de00870373004413dd0089
:1075d8000804430089844b00080441008984490059
:1075e800471bdd00c913de00870373004713dd0066
:1075f8000804430089844b00481bdd00c813de00e3
:10760800870373004813dd000801430089814b009c
:107618000201420083814a003082fb008002eb00b5
:107628000401690085816900808f5000e0ff3e00f9
:107638000200370052dc2900c311280002816900ca
:10764800020078004f04be000000060081004000e0
:10765800810f500026003100428380005383800050
:107668000203410083834900441add00cc12de0086
:10767800850272004412dd000602420087824a0039
:107688000402410085824900471bdd00c913de0062
:10769800870373004713dd000402430085824b0013
:1076a800481bdd00c813de00870373004813dd00a4
:1076b8000402430085824b00c811dd00020020004f
:1076c8000401410085814900428388005383880072
:1076d8003082fb008002eb000401690085816900ab
:1076e8004283880053838800808f5000daff3e0071
:1076f8004083800051838000000006001004e000f1
:107708002600320042838000538380000203410038
:1077180083834900441add00cc12de008502720022
:107728004412dd000602420087824a00040241003a
:1077380085824900471bdd00c913de0087037300fb
:107748004713dd000402430085824b00481bdd001f
:10775800c813de00870373004813dd0004024300ea
:1077680085824b00c811dd000200200004014100a1
:107778008581490042838800538388001082fb007a
:107788008002eb000401690085816900428388005a
:10779800538388005004e000daff3a0040838000f9
:1077a8005183800000000600008068000000060089
:1077b80000c1b30000000600889fbe008a9fbe007b
:1077c8000004be000205be006e0907000801500053
:1077d80089815800880f5000898f580002003100b5
:1077e80061015100e0815900100020008a0f51000a
:1077f8008b8f590001003e000000eb004f05be00d2
:107808004f04be0000000600889fbe008a9fbe008d
:1078180069032100994478000904e000210032003e
:107828000044eb001b0020004aa821000880fb0050
:107838008058dd00c281800081006100150032009f
:10784800ea02b900e6004200810045000083eb002f
:107858008083eb0031014300a1814b000402450005
:107868003202980043029800e00f5100e08f59005f
:1078780007003a008400780011019000a1019000ef
:10788800b2009800c30098001100780000000100c1
:107898008944e9000904e000020032000844e800d5
:1078a800e2ff37004f05be004f04be00000006008f
:1078b800889fbe008a9fbe000205be0069032100a2
:1078c8009944780080c2eb00efcf540021003e00bd
:1078d800c68180000608a300090032008000eb0082
:1078e800170020008142e8008100e80001047800c8
:1078f8008139dd000682610013003a000300370079
:10790800130020000004eb008042eb00ea44b900b9
:1079180041a8210008844000880078008018780079
:107928008a88be003a0498004b0498008944e8000d
:107938008940780060032100014878000303730040
:10794800c681880003003700ef8f5000e5ff3a003a
:1079580080c2eb00054078004f05be004f04be0012
:10796800000006008081fb00120020000311dd00ea
:10797800c1818000010261000040eb000900320073
